:020000040800F2
:10000000800D00206D330008C9040008CB040008EF
:10001000CF040008D3040008D70400080000000043
:10002000000000000000000000000000DB040008E9
:10003000DD04000800000000DF040008E1040008FF
:1000400087330008873300088733000887330008A8
:100050008733000887330008873300088733000898
:100060008733000887330008873300088733000888
:100070008733000887330008873300088733000878
:100080008733000887330008873300088733000868
:100090008733000887330008873300088733000858
:1000A0008733000887330008873300088733000848
:1000B0005F0700088733000887330008873300088C
:1000C0008733000887330008873300088733000828
:1000D000873300084B310008873300088733000856
:1000E0008733000887330008873300088733000808
:1000F00087330008873300088733000887330008F8
:1001000087330008873300088733000887330008E7
:1001100087330008873300088733000887330008D7
:1001200087330008873300088733000887330008C7
:1001300000F002F800F03AF80AA090E8000C8244BF
:100140008344AAF10107DA4501D100F02FF8AFF29C
:10015000090EBAE80F0013F0010F18BFFB1A43F0A5
:100160000103184784900000A4900000103A24BFB7
:1001700078C878C1FAD8520724BF30C830C144BF0C
:1001800004680C607047000000230024002500264E
:10019000103A28BF78C1FBD8520728BF30C148BFEA
:1001A0000B6070471FB51FBD10B510BD05F0C2FA3A
:1001B0001146FFF7F7FF00F04CF805F0E0FA03B442
:1001C000FFF7F2FF03BC02F05BFF000080F308883A
:1001D0007047000070B505460C4645F2555005F0D5
:1001E00049FA284605F049FA204605F049FA05F093
:1001F0004AFA05F04DFA70BD10B505F044FA10BD8D
:100200000246002003E0002342F82030401C8842D0
:10021000F9DB70472DE9F04104460F46002514E054
:100220006E1C0FE054F8251054F8260006F066FB0B
:1002300007D254F8258054F8260044F8250044F8E5
:100240002680761CBE42EDDB6D1CBD42E8DBBDE8BE
:10025000F081002400270025002600208649087030
:1002600000214FF0006003F0D8F84FF4A06003F0D5
:100270009DF802F09BFE02F0FBFD642002F0D3FE2D
:100280004FF4165002F0FEFE12217CA002F0FCFF9B
:1002900002F048FD02F0DCFD7D494FF42B5002F0E6
:1002A000C0FC02F0D5FD01F0F3FD00F01BFB00BF28
:1002B00005E00020774921F81400601C84B2042C6A
:1002C000F7DB0A217448FFF79BFF0A217348FFF709
:1002D00097FF0020724908607249086072490860FF
:1002E0000024002500260027C4E001F006FE6A492C
:1002F00041F82500A623BE221146A42002F0A4FC4A
:100300006449B1F90010634AB2F904205143614ACB
:10031000B2F902205F4BB3F9063002FB031006F07E
:10032000C1FA80465B49B1F900105A4AB2F9062079
:100330005143584AB2F90420564BB3F9023002FB3C
:10034000131006F0AFFA8146414606F0ADF9534965
:1003500041F825000A2E02DA701C86B200E00A2657
:100360000A2D02DA681C85B200E000250A2F02DAA5
:10037000781C87B267E000240DE0474850F824005D
:100380004A4941F82400454850F82400484941F8BA
:100390002400601C84B20A2CEFDB00204249086074
:1003A000404908600A214148FFF734FF0A214048CC
:1003B000FFF730FF022413E03C4850F824103A487D
:1003C000006806F003F938490860394850F82410ED
:1003D0003448006806F0FAF832490860601C84B2BC
:1003E000082CE9DB33493048006806F05DF93249F2
:1003F000086030492B48006806F056F982462F49BC
:1004000006F0B0FA814606F011FAB0F1000801DBFF
:10041000414601E0C8F10001084606F043FA2049D0
:10042000086000F085FB01F004F8002700201E4959
:1004300008601C4908600A211C48FFF7E1FE0A21F8
:100440001B48FFF7DDFE4FF480711D4803F02BF9C8
:100450000948007801280DD10A2E0BD10020064949
:1004600008708021174805F026F9164802F0EBFEC7
:1004700001F023F839E70000000000200A0D4F705A
:1004800065727461696E6720415050210000000060
:100490004E6D0008B2000020FC0100204C0200203C
:1004A00008000020100000200C0000202402002082
:1004B000740200200000C0401400002000401C46D0
:1004C00000080140F8000020704700BFFEE700BFB1
:1004D000FEE700BFFEE700BFFEE7704770477047CA
:1004E000704700000CB50020019000906C48006837
:1004F00040F480306A49086000BF6948006800F431
:10050000003000900198401C0190009818B90198A3
:10051000B0F5A06FF1D16248006800F4003010B16E
:100520000120009001E0002000900098012843D1B4
:100530005C48006840F010005A49086008460068AE
:1005400020F0030008600846006840F002000860E0
:100550005348406852494860084640684860084629
:10056000406840F4806048600846406820F47C1091
:1005700048600846406840F4E81048600846006853
:1005800040F08070086000BF4548006800F00070CF
:100590000028F9D04248406820F0030040494860F4
:1005A0000846406840F00200486000BF3C48406890
:1005B00000F00C000828F9D10CBD10B5FFF792FF30
:1005C00010BD10B53648006840F00100344908609D
:1005D0000846406834490840314948600846006888
:1005E000324908402E4908600846006820F48020FF
:1005F00008600846406820F4FE0048604FF41F0081
:100600008860FFF7DAFF4FF000602949086010BDED
:1006100010B5002100200022214B5B6803F00C0183
:1006200021B1042906D0082928D107E0214B224C0A
:10063000236027E01F4B204C236023E0184B5B68AE
:1006400003F47010164B5B6803F48032022303EB53
:10065000904022B9194B4343174C23600DE0104BD7
:100660005B6803F4003323B1144B4343124C236003
:1006700003E0104B4343104C236003E00D4B0E4C42
:10068000236000BF00BF064B5B68C3F303130C4C31
:10069000E15C094B1B68CB40074C236010BD000098
:1006A00000100240002002400000FFF8FFFFF6FEAD
:1006B00008ED00E000127A001800002000093D005B
:1006C0001C000020F0B502460026FF23FF24002571
:1006D0000BE03046771CFEB2105C80EA0305074849
:1006E000405D80EA04030648445D081EA1F101074D
:1006F000F9B2EEDC44EA0320F0BD00008E8F000862
:100700008E9000087FB505460C460121084603F08F
:10071000E4F9ADF80450ADF800400020ADF8060053
:10072000ADF8020069464FF0804003F005FD01225C
:100730001146900704F077F80121880704F058F873
:100740001C208DF80C0003208DF80D0001208DF881
:100750000E008DF80F0003A802F02DFE7FBD10B52E
:100760000121880704F00DFB58B10121880704F02E
:1007700019FB00214FF0804004F03AF80120504965
:10078000087010BD0146088870472DE9F041054604
:100790000E461746002407E036F81410284604F0E9
:1007A000F2FDAD1C601C84B2BC42F5DBBDE8F081FB
:1007B00030B503460C461546002207E01846FFF701
:1007C000E1FF24F812009B1C501C82B2AA42F5DB08
:1007D00030BD2DE9F05F80468A461746B8F1006FBC
:1007E00002D33848804501D3BDE8F09F04F083FC74
:1007F000A8F1006B4FEA9B25CBF34809C9F50074BB
:10080000A74200DC3C464DE04FF0006101EB852043
:100810008A142D49FFF7CCFF00260BE009EB0600F8
:10082000294931F810004FF6FF71884200D003E0EB
:10083000701C86B2A642F1DB00BFA6421BDA4FF065
:10084000006101EB852004F09BFC002608E03AF8EB
:10085000160006EB09011C4A22F81100701C86B232
:10086000A642F4DB4FF0006101EB85208A141649A3
:10087000FFF78BFF04E0224651464046FFF785FF15
:10088000A74200D10FE06D1C4FF000090AEB440AAB
:10089000A044381B87B2B7F5007F02DD4FF4007427
:1008A00000E03C46B0E700BF04F031FC00BF9BE72E
:1008B00013B50446012201A92046FFF78AFF1CBD9B
:1008C00000000020000001089C02002010B503E099
:1008D00010F8013B01F8013B131EA2F10104E2B242
:1008E000F6D110BD2DE9FC47012500274FF0000887
:1008F0004FF0000940F2F5360024FC48FFF742FFB4
:10090000C7B2282F07DD2820F94908704FF4C870B6
:10091000F849888206E0F648077007EB8700400038
:10092000F4498882F148001DFFF72CFF8046F24809
:10093000A0F80080EF48A0F81680EC48801DFFF773
:1009400021FF8146ED48A0F80090EA48A0F81890F1
:10095000E648801CFFF716FF064640F23340864209
:1009600004DDE7490880E34948830DE0B6F5077FD9
:1009700006DA4FF40770E2490880DE49488303E055
:10098000DF480680DB484683D848801EFFF7FAFE22
:10099000C5B2012D01DB7F2D05DD0120D94908708D
:1009A000D449488203E0D7480570D24845820322E3
:1009B0006946CE480E30FFF7FBFEBDF80000D24975
:1009C0000880BDF8020000F47F40ADF80200084640
:1009D0004088BDF802100843CB494880002409E054
:1009E000C94830F8141004F11100C24A22F810105E
:1009F000601CC4B2032CF3DB0422C449BB481E3084
:100A0000FFF7D6FE002409E0C04830F8141004F1C6
:100A10001400B84A22F81010601CC4B2042CF3DB96
:100A20000422BB49B1482E30FFF7C2FE002409E082
:100A3000B74830F8141004F11800AE4A22F810102C
:100A4000601CC4B2042CF3DBA8480830FFF79AFE00
:100A5000B049088008460088A6498880A3484630E7
:100A6000FFF790FEAC49088008460088A149C8837A
:100A70009E484830FFF786FEA8490880084600884F
:100A80009C49088499480A30FFF77CFEA4490880F5
:100A9000084600889749C88094480C30FFF772FEDA
:100AA000A049088008460088924988818F484C30C8
:100AB000FFF768FE9C490880084600888D494881F8
:100AC0008A483E30FFF75EFE984908800846008855
:100AD0008849088785484030FFF754FE94490880CC
:100AE000084600888349488780484230FFF74AFE1D
:100AF00090490880084600887E4988877B484430B2
:100B0000FFF740FE8C490880084600887949C8876D
:100B1000BDE8FC8710B58948006805F0A3FE884948
:100B200008808648006805F09DFE7249888310BDE4
:100B30002DE9F05F4FF0000A8248D0F800B0594626
:100B4000814805F0DBFF02D2DFF8FCB106E0594630
:100B50007E4805F0D3FE01D2DFF8F0B1584605F02B
:100B600009FD804600227A4B05F01AFC0646794AB8
:100B7000794B05F0B9F8044605F03EFA1FFA80FA01
:100B8000BAF5FF7F01DD4FF4FF7A7448008805F065
:100B9000A1FE0446724905F087FD83465E48008841
:100BA000A0BB5E4800884FF47A7190FBF1F738469D
:100BB00005F078FE0546504605F08CFE074659467E
:100BC00005F0D0FE0646294605F000FD044605F076
:100BD00049FE64490880514800884FF47A7190FBBF
:100BE000F1F7384605F05EFE0546504605F072FE08
:100BF0000746594605F0B6FE0646294605F0E6FCCE
:100C0000044605F02FFE3B49088034E0FFE74348E7
:100C100000884FF47A7190FBF1F7384605F042FEF8
:100C20000546504605F056FE0746594605F09AFE21
:100C30000646294605F09EFF044605F013FE494985
:100C40000880364800884FF47A7190FBF1F73846F7
:100C500005F028FE0546504605F03CFE074659467D
:100C600005F080FE0646294605F084FF044605F09F
:100C7000F9FD20490880BDE8F09F2DE9F04F8FB0C5
:100C800082464FF0000B2E48008843F2C82188426C
:100C900006DD01203449087058460FB0BDE8F08FDA
:100CA000BAF1010F03D0BAF1020F7DD15EE04FF02F
:100CB000010B234800880F49888021480088154986
:100CC00008801F48018809480830FFF7F1FD2548D2
:100CD00000880849C88023480088114908802148B5
:100CE000018802480A30FFF7E3FD45E102E0000811
:100CF000830000202C000020980000209A00002093
:100D000084000020820000206C000020720000207F
:100D10007A00002086000020900000208E00002035
:100D2000880000208A0000208C0000209E00002007
:100D3000A0000020A20000209C000020080000204D
:100D4000A40000201400002000007A440020AD44DC
:100D500000408F4068226C787AA5D83F920000202E
:100D600000401C46AE000020B1000020FD48008875
:100D7000FD494881FB480088FC490880F948018802
:100D8000FB48FFF795FDFB480088FB490880F948C0
:100D90000088F5498881F7480188F5484038FFF711
:100DA00087FDF548008800E0E5E005F069F90746B1
:100DB000F24AF34B05F0B4F905460022F14B04F07A
:100DC00093FFCDE90601EC49098801FB01F005F02C
:100DD00040F90546EC4AED4B05F0A2F90746002222
:100DE000EB4B04F081FFCDE90201E3490988494357
:100DF000E14A128801FB02F005F02BF90546E54AAD
:100E0000E54B05F08DF907460022E44B04F06CFF3A
:100E1000CDE90001DDE9022304F0AAFECDE90401D9
:100E2000DDE9062305F0BCFA4FF06632DC4BCDE974
:100E3000080104F09DFE0022DA4BCDE90A0104F01E
:100E400097FECDE90C0104F061FE8146484605F0AD
:100E500009FDD5490880C8480088D44909888842D6
:100E600012DDC5480088D1490988401AD04909884F
:100E700048430A2190FBF1F0CE4909880D1A284613
:100E800005F010FD814611E0C8480088BA4909887C
:100E9000401AC749098848430A2190FBF1F0C54927
:100EA00009884518284605F0FDFC8146C24800889F
:100EB00060B9B0480088C14909884843642190FB63
:100EC000F1F0BF490988081A84B20BE0A9480088EC
:100ED000BA4909884843642190FBF1F0B849098870
:100EE000084484B2484605F0BDFC80B29D4909889B
:100EF000884228DD9D490988081B05F0D3FC064679
:100F00009A48008805F0E6FC0746494605F027FEAA
:100F10000546314605F0C8FB8146A3490988A94A20
:100F20001288881A05F0BEFC0646A749484605F017
:100F300019FD0746314605F0B7FB0546A34905F004
:100F400011FD814601E05846A7E6484605F08AFCB7
:100F50009F490880484605F085FC83490883484638
:100F600005F080FC85B2294681484638FFF7A0FC91
:100F70004FF0010B00E000BF00BF58468DE62DE9A1
:100F8000F04F8FB0FFF7C6FD7A48008805F078F87B
:100F900082467A4A7A4B05F0C3F807460022794B1D
:100FA00004F0A2FECDE906017249098801FB01F0B7
:100FB00005F04FF88246744A744B05F0B1F80746C5
:100FC0000022734B04F090FECDE9020169490988C3
:100FD0004943684A128801FB02F005F03AF80746D7
:100FE0006C4A6D4B05F09CF8824600226B4B04F076
:100FF0007BFECDE90001DDE9022304F0B9FDCDE976
:101000000401DDE9062305F0CBF94FF06632644BAD
:10101000CDE9080104F0ACFD0022624BCDE90A01E4
:1010200004F0A6FDCDE90C0104F070FD0E905148CE
:1010300000885E490988884212DD4E4800885B4975
:101040000988401A5A49098848430A2190FBF1F05F
:10105000584909880F1A384605F024FC044611E067
:101060005248008843490988401A51490988484331
:101070000A2190FBF1F04F4909884718384605F0DE
:1010800011FC04464C48008860B93A4800884B4936
:1010900009884843642190FBF1F049490988081AFE
:1010A00086B20BE0334800884449098848436421EC
:1010B00090FBF1F042490988084486B2204605F0C9
:1010C000D1FB80B227490988884209DA00204149CA
:1010D000088041490880244948800FB0BDE8F08F5E
:1010E00020490988881B05F0DDFB80461D480088E3
:1010F00005F0F0FB8246214605F031FD07464146EA
:1011000005F0D2FA04461B4800881B49098888422A
:1011100068DD1848008818490988401A2F4909884D
:1011200000FB01F9484605F0D5FB2D49089005F074
:10113000BBFA099005F01EFACDE90A0104F0A4FB00
:10114000074688462248008804F09AFF82463A46BD
:10115000434604F0E5FFCDE90C0104F0D7FC054659
:1011600069E03FE0A40000202C0000208C0000205B
:101170004EE00008AE0000208A00002054E3A59B4A
:10118000C440444000002440068195438B6CE93FF5
:1011900000005940B81E85EB51B87EBF00408F401B
:1011A00066D096400000E03F9400002088000020B8
:1011B0009800002086000020A2000020A00000204F
:1011C0009E0000209600002000401C460000C842FF
:1011D0009A000020A8000020A60000209C0000200B
:1011E0000050C347FE480088FE490988401AFE495E
:1011F000098800FB01F9484605F06CFB80F00040CF
:10120000FA49089005F050FA099005F0B3F98246C2
:1012100004F03AFB07468846F548008804F030FFA2
:101220003A464346CDE90A0104F07AFFCDE90C01C4
:1012300004F06CFC0546284605F014FBED490883D4
:10124000ED49204605F08EFB8046294605F02CFA34
:101250000746EA4905F086FB0446E948008805F0A0
:1012600039FB0746214605F0B1F90446E5480088F8
:1012700040F63401884203DD0846E249088004E074
:10128000204605F0EFFADF490880DE48008805F0C7
:1012900021FB82460E9905F007FA8046DA4905F0EF
:1012A00061FB074605F0DEFAD8490880D54800887A
:1012B00005F010FB82460E9905F0F6F98046D249FA
:1012C00005F050FB074605F0CDFACA49488000BF3B
:1012D00003E72DE9F04F8FB04FF0000BDA46CC4812
:1012E000007804F0CDFECDE90801BE48008804F086
:1012F000C7FE0646C74AC84B04F012FF0446002248
:10130000C64B04F0F1FCCDE90201B649098801FBA6
:1013100001F004F09EFE0646C14AC24B04F000FFF5
:1013200004460022C04B04F0DFFCCDE90001DDE9FA
:10133000022305F035F8BD4ABD4BCDE9040104F0A8
:1013400017FC0022BB4BCDE9060104F011FC8046DE
:10135000DDE9082304F0E4FE0022B34BCDE90A01E5
:1013600004F0C2FCCDE90C0104F0D0FB82465046EB
:1013700005F078FA80B2A3490988884208DA504615
:1013800005F070FA9F490988081A1FFA80FB01E0EE
:101390004FF0000B9348008804F072FEA64AA74B5A
:1013A000CDE9060104F0BCFE8046A54AA54B04F039
:1013B000DFFB064632460B46A348A44904F094FCE2
:1013C000A34AA44BCDE9080104F0EAFFCDE90A01E4
:1013D00004F05AFA02460B46CDE90C0100209E4962
:1013E00004F082FC044604F091FB8246584605F066
:1013F00071FA06465146994805F0BCFB07469848E5
:10140000008805F067FA8046514605F0B3FB0546B3
:10141000394605F049F90446314605F0A3FA8246FB
:10142000504605F01FFA1FFA80FB58460FB0BDE882
:10143000F08F10B50024FFF7A2FDFFF74AFF044626
:1014400040F63400844204DD8649088069490881F9
:1014500003E0844804806748048110BD70B50546E8
:1014600000240520804981F801016248817C7E4882
:1014700080300155641C803840788030C1B27A4891
:1014800080300155641C0555641C803890F80101BA
:10149000801EC1B274488030FFF714F90646320A44
:1014A0002146641C7048803042540655803890F8BC
:1014B0000111803001F0E8FE70BD2DE9F04FB3B0AE
:1014C0004FF0000A002500270024674890F80061CB
:1014D000324612A9FFF7FAF99DF8480063490978E6
:1014E000884202D033B0BDE8F08FB01EC1B212A85E
:1014F000FFF7E8F804464FEA142BE0B23290B01E32
:1015000012A9085C584504D1701E095C32988142CA
:1015100002D00120FFF7A2FF9DF84B00202802DD3A
:101520000220FFF79BFF9DF84900032802D0062800
:1015300054D1AFE09DF84D00052101EB40004A4930
:1015400081F80101022001F06EFD4848007846490B
:1015500081F880009DF84910434880F881109DF87B
:101560004D004006010E404880F8821003250027F8
:1015700025E09DF84B1039441E4A32F81100C1177E
:1015800000EB1161C1F3072329466A1CD5B2364A24
:10159000803253549DF84B103944164A32F81100EA
:1015A000C11700EB11610912A0EB0121CBB2294652
:1015B0006A1CD5B22C4A80325354781CC7B29DF8AD
:1015C0004D00B842D5DC022001F02DFD264890F8F0
:1015D0000101801EC1B22448803049E0FDE30000D3
:1015E0008A000020AE0000209C0000200050C3476D
:1015F0009A0000202C00002000401C460000C84239
:1016000096000020A800002000007A44A6000020D8
:10161000830000201F85EB51B81E3D400000244090
:10162000AE47E17A14AED73F0000594014AE47E10F
:101630007A828C400000E03F9A9999999999B93F34
:10164000E3A59BC4206C6D40560E2DB21D8FAF409C
:1016500039B4C876BE1F284000408F4000407D440A
:1016600084000020AA000020F80000208200002052
:10167000FFF728F80446220A2846691CCDB2FE4925
:101680000A5408464455803890F80111803001F022
:10169000FBFDCDE3F848803880F80161002505E0C6
:1016A00012A8415DF4484155681CC5B2B542F7DB4C
:1016B0009DF84D109DF84C0001EB002084B29DF880
:1016C0004B00C01F19287DD2DFE810F019007C0004
:1016D0002B024B026A027C0015037C0085029D02EE
:1016E00030037C007C0061037C007C007C0088036C
:1016F0007C007C007C00AE02C902E202FA029DF886
:101700004D000A2830D004DC012807D002287DD102
:1017100017E068287BD08028F9D197E10120FFF7F6
:10172000ACFA8246BAF1000F07D0D348803890F85F
:101730000111803001F0A8FD02E00320FFF78EFECA
:10174000EDE10220FFF799FA8246BAF1000F07D0C7
:10175000C948803890F80111803001F095FD02E011
:101760000320FFF77BFEDAE10020C4490870C4497A
:1017700088820021C348FFF79BF840F2F530C24948
:101780000880BF4948830146BE48801CFFF790F897
:101790003220BE490880BA49C8823221B948001DAA
:1017A000FFF786F842F26020B9490880B449888082
:1017B0000146B4480830FFF77BF8FA20B5490880A5
:1017C000AF4900E030E3C880FA21AE480A30FFF7A5
:1017D0006FF840F6FD30B0490880A949888301467A
:1017E000A8484C30FFF764F8FA20AC490880A449B7
:1017F0008881FA21A3480C30FFF75AF84FF4AF6004
:10180000A74908809E490887A54801E086E17DE157
:1018100001889C483E30FFF74BF80A20A149088018
:10182000974948879F48018896484030FFF740F81D
:1018300000209D490880924988879B4801889148EB
:101840004230FFF735F8A520984908808C49C887B1
:10185000964801888B484430FFF72AF88F48008863
:1018600004F00EFC924A934BCDE9040104F058FCBD
:101870000022914BCDE9060104F036FACDE90A01C8
:101880008649098801FB01F004F0E3FB8B4A8C4B8D
:10189000CDE9000104F044FC00228A4BCDE90201AD
:1018A00004F022FACDE906017C49098849437B4AC4
:1018B000128801FB02F004F0CCFB834A834BCDE994
:1018C000000104F02DFC0022814BCDE9020104F05F
:1018D0000BFACDE90401DDE9062304F049F9CDE96D
:1018E0000801DDE90A2304F05BFD4FF06632794B15
:1018F000CDE90C0104F03CF90022774BCDE90E0153
:1019000004F036F9CDE9100104F000F981464846AB
:1019100004F0A8FF71490880604800885D49098883
:10192000884212DD5D4800885A490988401A5749A3
:10193000098848430A2190FBF1F055490988081AA3
:10194000119004F0AFFF814611E0524801885348DE
:101950000088081A4D49098848430A2190FBF1F094
:101960004B4909880844119004F09CFF81464E4879
:10197000008868B95A4800884A4909884843642160
:1019800090FBF1F046490988081A1FFA80F80CE02C
:1019900053480088434909884843642190FBF1F08B
:1019A0003F49098808441FFA80F8484604F05AFF66
:1019B00080B23949098888422CDD37480088404583
:1019C00028DD35490988A1EB080004F06BFF119070
:1019D0003148008804F07EFF49460F9005F0BFF8BB
:1019E0001090119904F060FE81463C4909883D4AF7
:1019F0001288881A04F056FF3B491090484604F0BC
:101A0000B1FF0F90109904F04FFE3849119004F087
:101A1000A9FF8146484604F025FF3549088048461D
:101A200004F020FF16490883484604F01BFF80B2EB
:101A3000014611901348801DFEF73AFF0E4880388A
:101A400090F80111803001F01FFC68E00A488038EE
:101A500090F80111803001F017FC0A2001F0E3FA40
:101A6000012080F3138800BF00BF2248006800F403
:101A7000E0602149084341E0780100208300002014
:101A80002C00002002E000088400002098000020C4
:101A90008600002088000020A40000208A0000208A
:101AA0009E000020A0000020A20000209C0000203A
:101AB00054E3A59BC4404440000024400681954364
:101AC0008B6CE93F00005940B81E85EB51B87EBFD2
:101AD00000408F4066D096400000E03F9400002018
:101AE000AE0000209600002000401C460000C842C6
:101AF0009A0000200CED00E00000FA05001DCE4920
:101B00000860BFF34F8F00BF00BFFEE70F21CBA0DF
:101B100001F0BAFBCD4801F0EBFB00BF00BF00BFF6
:101B200083E19DF84D00012803DB9DF84D007F28DF
:101B300003DD0120C649087003E09DF84D00C4494B
:101B40000870C3480078C3494882C1480178C24838
:101B5000FEF7AEFEC14890F80111803001F094FB11
:101B600063E1B4F5C87F07DD2820BD4908704FF454
:101B7000C870B849888206E00A2094FBF0F0B849A2
:101B80000870B4488482B6480178B348801CFEF7D8
:101B90008FFEB24890F80111803001F075FB44E1EE
:101BA000B4F57A7F06DD4FF47A70AE490880A94912
:101BB000C88203E0AB480480A648C482A9480188D3
:101BC000A548801DFEF774FEA44890F801118030EE
:101BD00001F05AFB29E124B9A34804809D48C4833D
:101BE00004E00120A04908809A49C8839E480188E2
:101BF00099484830FEF75CFE984890F80111803013
:101C000001F042FB11E1994804809248048497480E
:101C1000018891484A30FEF74BFE904890F8011138
:101C2000803001F031FB00E1B4F5FA6F06DD4FF4CE
:101C3000FA608F4908808749088703E08C48048050
:101C4000844804878A48018883484030FEF730FE84
:101C5000824890F80111803001F016FBE5E0C82CB5
:101C600005DDC820834908807A49488703E0814818
:101C70000480784844877F48018877484230FEF7DF
:101C800017FE764890F80111803001F0FDFACCE0A3
:101C900024B9794804806F48848704E0012076499C
:101CA00008806C498887744801886B484430FEF787
:101CB000FFFD6A4890F80111803001F0E5FAB4E0C8
:101CC000B4F57A7F06DD4FF47A706C49088061497B
:101CD000C88703E0694804805E48C4876748018874
:101CE0005D484630FEF7E4FD5C4890F80111803015
:101CF00001F0CAFA99E040F2F530844201DD044671
:101D000004E0B4F5077F01DA4FF407745C480480FF
:101D10005048448321465048001DFEF7C9FD4F48F6
:101D200090F80111803001F0AFFA7EE09DF84D107F
:101D30009DF84C0001EB0020524908809DF84E00B0
:101D40004FF6FF7101EA00244E4880784D494880E3
:101D50000846408820434880002509E0494830F87B
:101D6000151005F111003B4A22F81010681CC5B28D
:101D7000032DF3DB0322434937481030FEF729FDDA
:101D8000364890F80111803001F07EFA4DE00025D0
:101D900014E06800401D12A9095C6800001D12AA29
:101DA000105C01EB002084B2374820F8154005F1A3
:101DB0001400284921F81040681CC5B2042DE8DB46
:101DC0000422314924482030FEF703FD234890F8CF
:101DD0000111803001F058FA27E028E0002514E0D6
:101DE0006800401D12A9095C6800001D12AA105C61
:101DF00001EB002084B2254820F8154005F11800B9
:101E0000144921F81040681CC5B2042DE8DB0422F7
:101E10001E4911483030FEF7DCFC104890F80111E3
:101E2000803001F031FA00E000BF00BF00E000BFE9
:101E300000BF00BFFFF756BB0CED00E00A0D557068
:101E4000646174652066696C652100000000060805
:101E5000820000202C00002000E00008F800002094
:101E60008300002098000020900000208E000020B9
:101E70009E000020A0000020A20000209C00002066
:101E8000840000206C000020720000207A000020F6
:101E900008B50121102001F013FE4020ADF800002C
:101EA00002208DF8020010208DF8030069463348A7
:101EB00001F04AFB0121102001F002FE2020ADF8C4
:101EC000000002208DF8020010208DF80300694602
:101ED0002A4801F039FB0121082001F0F1FD012021
:101EE000ADF8000002208DF8020004208DF80300F8
:101EF0006946234801F028FB08BD2DE9F04700257D
:101F00001EE040211D4801F0CEFB20211B4801F0BE
:101F1000CAFB012001F063F84FF6FF7000EA4404A9
:101F20000121174801F0A3FB08B144F0010420216E
:101F3000124801F0B6FB012001F051F8681C85B28F
:101F4000102DDEDB40210D4801F0ABFB204604F0F4
:101F5000C1FC81460B4904F002FE0746204604F00E
:101F6000B9FC8146084904F0FDFC8046394604F07E
:101F70009BFB06463046BDE8F0870000001001409C
:101F8000000C014000FF7F4700409C4608B501213E
:101F9000082001F095FDFE20ADF8000010208DF81E
:101FA000030001208DF802006946FC4801F0CCFADC
:101FB0000421FA4801F075FB0821F84801F073FB91
:101FC00008BD08B50121082001F07AFD4FF47F40DB
:101FD000ADF8000010208DF8030001208DF80200FC
:101FE0006946EE4801F0B0FA08BD08B501210820A5
:101FF00001F066FD4FF47F40ADF8000004208DF83D
:10200000030001208DF802006946E44801F09CFAC3
:1020100008BD10B5FFF7E9FF4021E04801F043FBA0
:102020002021DE4801F03DFB8021DC4801F03BFB34
:102030001021DA4801F035FB0221D84801F033FBCA
:102040004FF40041D54801F012FB04464FF48041A3
:10205000D24801F00CFB40EA44044FF40051CF4851
:1020600001F005FB40EA44044FF48051CB4801F0F5
:10207000FEFA40EA44044FF40061C84801F0F7FA60
:1020800040EA44044FF48061C44801F0F0FA40EAA9
:1020900044044FF40071C14801F0E9FA40EA4404F5
:1020A0004FF48071BD4801F0E2FA40EA4404022195
:1020B000BA4801F0F6FA8021B84801F0F2FA10218E
:1020C000B64801F0EEFA0221B44801F0ECFA4FF400
:1020D0000041B24801F0CBFA40EA44044FF4804199
:1020E000AE4801F0C4FA40EA440084B24FF4005113
:1020F000AA4801F0BCFA40EA440084B24FF480518F
:10210000A64801F0B4FA40EA440084B24FF40061FA
:10211000A24801F0ACFA40EA440084B24FF4806176
:102120009E4801F0A4FA40EA440084B24FF40071E2
:102130009A4801F09CFA40EA440084B24FF480715E
:10214000964801F094FA40EA440084B20221934890
:1021500001F0A7FA204610BD70B505462C46FFF7E2
:1021600030FF40218D4801F09EFA20218B4801F07C
:1021700098FA8021894801F096FA1021874801F0E9
:1021800092FA0221854801F08EFA04F40040B0F57D
:10219000004F05D14FF40041804801F082FA04E07D
:1021A0004FF400417D4801F07EFA04F48040B0F520
:1021B000804F05D14FF48041784801F072FA04E075
:1021C0004FF48041754801F06EFA04F40050B0F508
:1021D000005F05D14FF40051704801F062FA04E04D
:1021E0004FF400516D4801F05EFA04F48050B0F5F0
:1021F000805F05D14FF48051684801F052FA04E045
:102200004FF48051654801F04EFA04F40060B0F5D7
:10221000006F05D14FF40061604801F042FA04E01C
:102220004FF400615D4801F03EFA04F48060B0F5BF
:10223000806F05D14FF48061584801F032FA04E014
:102240004FF48061554801F02EFA04F40070B0F5A7
:10225000007F05D14FF40071504801F022FA04E0EC
:102260004FF400714D4801F01EFA04F48070B0F58F
:10227000807F05D14FF48071484801F012FA04E0E4
:102280004FF48071454801F00EFA0221434801F0F5
:1022900008FA8021414801F004FA10213F4801F07A
:1022A00002FA02213D4801F0FEF94FF4004000EA35
:1022B0000420B0F5004F05D14FF40041374801F03C
:1022C000F0F904E04FF40041344801F0ECF94FF428
:1022D000804000EA0420B0F5804F05D14FF48041E2
:1022E0002E4801F0DEF904E04FF480412B4801F064
:1022F000DAF94FF4005000EA0420B0F5005F05D190
:102300004FF40051254801F0CCF904E04FF400519E
:10231000224801F0C8F94FF4805000EA0420B0F5DB
:10232000805F05D14FF480511C4801F0BAF904E0F8
:102330004FF48051194801F0B6F94FF4006000EAFB
:102340000420B0F5006F05D14FF40061134801F08F
:10235000A8F904E04FF40061104801F0A4F94FF42B
:10236000806000EA0420B0F5806F05D14FF48061F1
:102370000A4801F096F904E04FF48061074801F043
:1023800092F94FF4007000EA0420B0F5007F07D105
:102390004FF40071014801F084F906E0000C01409F
:1023A0004FF40071F84801F07EF94FF4807000EAB4
:1023B0000420B0F5807F05D14FF48071F24801F020
:1023C00070F904E04FF48071EF4801F06CF90221DC
:1023D000ED4801F066F970BD10B5FFF706FE40212B
:1023E000E94801F060F92021E74801F05CF980211B
:1023F000E54801F058F91021E34801F052F90221B3
:10240000E14801F050F94FF40041DF4801F02FF9A5
:1024100004464FF48041DC4801F029F940EA4404C5
:102420004FF40051D84801F022F940EA44044FF437
:102430008051D54801F01BF940EA44044FF4006193
:10244000D14801F014F940EA44044FF48061CE48C9
:1024500001F00DF940EA44044FF40071CA4801F05C
:1024600006F940EA44044FF48071C74801F0FFF8D0
:1024700040EA44040221C44801F013F98021C24813
:1024800001F00FF91021C04801F00BF90221BE48FC
:1024900001F009F94FF40041BB4801F0E8F840EAC7
:1024A00044044FF48041B84801F0E1F840EA4400A8
:1024B00084B24FF40051B44801F0D9F840EA440026
:1024C00084B24FF48051B04801F0D1F840EA4400A2
:1024D00084B24FF40061AC4801F0C9F840EA44000E
:1024E00084B24FF48061A84801F0C1F840EA44008A
:1024F00084B24FF40071A44801F0B9F840EA4400F6
:1025000084B24FF48071A04801F0B1F840EA440071
:1025100084B202219C4801F0C4F8204610BD70B579
:1025200005462C46FFF74DFD4021974801F0BBF8CA
:102530002021954801F0B7F88021934801F0B3F8C5
:102540001021914801F0AFF802218F4801F0ABF85B
:1025500004F40040B0F5004F05D14FF400418A4823
:1025600001F09FF804E04FF40041874801F09BF828
:1025700004F48040B0F5804F05D14FF4804182488B
:1025800001F08FF804E04FF480417F4801F08BF8B0
:1025900004F40050B0F5005F05D14FF400517A48C3
:1025A00001F07FF804E04FF40051774801F07BF828
:1025B00004F48050B0F5805F05D14FF4805172482B
:1025C00001F06FF804E04FF480516F4801F06BF8B0
:1025D00004F40060B0F5006F05D14FF400616A4863
:1025E00001F05FF804E04FF40061674801F05BF828
:1025F00004F48060B0F5806F05D14FF480616248CB
:1026000001F04FF804E04FF480615F4801F04BF8AF
:1026100004F40070B0F5007F05D14FF400715A4802
:1026200001F03FF804E04FF40071574801F03BF827
:1026300004F48070B0F5807F05D14FF4807152486A
:1026400001F02FF804E04FF480714F4801F02BF8AF
:1026500002214D4801F025F880214B4801F021F876
:102660001021494801F01FF80221474801F01BF8EA
:102670004FF4004000EA0420B0F5004F05D14FF4BC
:102680000041414801F00DF804E04FF400413E489C
:1026900001F009F84FF4804000EA0420B0F5804FC3
:1026A00005D14FF48041384800F0FBFF04E04FF4BF
:1026B0008041354800F0F7FF4FF4005000EA042055
:1026C000B0F5005F05D14FF400512F4800F0E9FF4D
:1026D00004E04FF400512C4800F0E5FF4FF4805027
:1026E00000EA0420B0F5805F05D14FF48051264800
:1026F00000F0D7FF04E04FF48051234800F0D3FFEF
:102700004FF4006000EA0420B0F5006F05D14FF4EB
:1027100000611D4800F0C5FF04E04FF400611A4855
:1027200000F0C1FF4FF4806000EA0420B0F5806F34
:1027300005D14FF48061144800F0B3FF04E04FF47A
:102740008061114800F0AFFF4FF4007000EA0420F0
:10275000B0F5007F05D14FF400710B4800F0A1FFE8
:1027600004E04FF40071084800F09DFF4FF48070C2
:1027700000EA0420B0F5807F08D14FF48071024850
:1027800000F08FFF07E00000000C01404FF4807163
:10279000F84800F088FF0221F64800F082FF70BD83
:1027A00010B5FFF722FC4021F24800F07AFF20210B
:1027B000F04800F078FF8021EE4800F074FF10210F
:1027C000EC4800F06EFF0221EA4800F06CFF4FF485
:1027D0000041E84800F04BFF04464FF48041E548D3
:1027E00000F045FF40EA44044FF40051E14800F096
:1027F0003EFF40EA44044FF48051DE4800F037FFCA
:1028000040EA44044FF40061DA4800F030FF40EA47
:1028100044044FF48061D74800F029FF40EA4404A3
:102820004FF40071D34800F022FF40EA44044FF413
:102830008071D04800F01BFF40EA44040221CD48DB
:1028400000F02FFF8021CB4800F02BFF1021C9485A
:1028500000F027FF0221C74800F025FF4FF4004198
:10286000C44800F004FF40EA44044FF48041C148EA
:1028700000F0FDFE40EA440084B24FF40051BD4830
:1028800000F0F5FE40EA440084B24FF48051B948AC
:1028900000F0EDFE40EA440084B24FF40061B54818
:1028A00000F0E5FE40EA440084B24FF48061B14894
:1028B00000F0DDFE40EA440084B24FF40071AD4800
:1028C00000F0D5FE40EA440084B24FF48071A9487C
:1028D00000F0CDFE40EA440084B20221A54800F099
:1028E000E0FE204610BD70B505462C46FFF769FB9B
:1028F0004021A04800F0D5FE20219E4800F0D3FEE4
:1029000080219C4800F0CFFE10219A4800F0CBFEB9
:102910000221984800F0C7FE04F40040B0F5004FD3
:1029200005D14FF40041934800F0BBFE04E04FF4A2
:102930000041904800F0B7FE04F48040B0F5804FAD
:1029400005D14FF480418B4800F0ABFE04E04FF41A
:102950008041884800F0A7FE04F40050B0F5005F05
:1029600005D14FF40051834800F09BFE04E04FF482
:102970000051804800F097FE04F48050B0F5805F6D
:1029800005D14FF480517B4800F08BFE04E04FF4FA
:102990008051784800F087FE04F40060B0F5006FC5
:1029A00005D14FF40061734800F07BFE04E04FF462
:1029B0000061704800F077FE04F48060B0F5806F2D
:1029C00005D14FF480616B4800F06BFE04E04FF4DA
:1029D0008061684800F067FE04F40070B0F5007F85
:1029E00005D14FF40071634800F05BFE04E04FF442
:1029F0000071604800F057FE04F48070B0F5807FED
:102A000005D14FF480715B4800F04BFE04E04FF4B9
:102A10008071584800F047FE0221564800F041FE00
:102A20008021544800F03DFE1021524800F03BFE4A
:102A30000221504800F037FE4FF4004000EA042025
:102A4000B0F5004F05D14FF400414A4800F029FE8F
:102A500004E04FF40041474800F025FE4FF4804069
:102A600000EA0420B0F5804F05D14FF48041414881
:102A700000F017FE04E04FF480413E4800F013FEE2
:102A80004FF4005000EA0420B0F5005F05D14FF488
:102A90000051384800F005FE04E04FF4005135487D
:102AA00000F001FE4FF4805000EA0420B0F5805F92
:102AB00005D14FF480512F4800F0F3FD04E04FF4AE
:102AC00080512C4800F0EFFD4FF4006000EA042034
:102AD000B0F5006F05D14FF40061264800F0E1FD2C
:102AE00004E04FF40061234800F0DDFD4FF4806006
:102AF00000EA0420B0F5806F05D14FF480611D48D5
:102B000000F0CFFD04E04FF480611A4800F0CBFDE7
:102B10004FF4007000EA0420B0F5007F05D14FF4B7
:102B20000071144800F0BDFD04E04FF4007111483D
:102B300000F0B9FD4FF4807000EA0420B0F5807F0A
:102B400005D14FF480710B4800F0ABFD04E04FF469
:102B50008071084800F0A7FD0221064800F0A1FDA1
:102B600070BD2DE9F047044657E014F8015B1DB92C
:102B700054E00000000C014014F8010B4FF6FF7107
:102B800001EA002614F8011B881986B2701E86B26D
:102B9000641C4FF0000A39E03046FFF7DDFA14F804
:102BA000010B4FF6FF7101EA002714F8011BC81949
:102BB00087B24FF0000914E03046FFF7CDFA3846EF
:102BC000FFF791FEFFF7ECFD8046474505D1FFF783
:102BD00020FA0646701E86B206E009F101001FFACF
:102BE00080F9B9F1020FE7DB00BFB9F1020F06D19E
:102BF0004FF480712D4800F054FD00BFFEE7012026
:102C000000F011FA0AF101001FFA80FA05EBD57104
:102C1000BAEB610FC0DB641C00BFA6E700BFBDE8D4
:102C2000F08770B505460C46FFF7B0F940F608008E
:102C3000FFF775FC2046FFF794FF7E20FFF78CFA24
:102C40002846FFF750FE70BD2DE9F04105460E46BF
:102C500017461C464FF4FA7000F0E5F92846FFF7D6
:102C60007BFA45F65A20FFF73EFE2046FFF774FA3E
:102C7000FFF796FD00B20E490880FFF791FD00B204
:102C80000B494880FFF78CFD00B209498880FFF7A7
:102C900087FD00B20649C8802846FFF75DFA45F671
:102CA0005A20FFF720FEBDE8F0810000001001402F
:102CB000B200002010B500F095FD4FF4803000F018
:102CC000B1FD00F0EEFD6549087008460078012866
:102CD00027D1002000F02BFE4FF4806000F039FE79
:102CE0004FF4806000F02CFE022002F0E5F9102085
:102CF00002F0F6F94FF4E0114FF4803000F0FAFDE5
:102D0000012000F003FE00BF392000F0AEFD0028D6
:102D1000FAD0022000F0FDFD00BF00F003FE0828FD
:102D2000FBD110BD00B587B0012141F2140000F0C5
:102D3000C7FEE020ADF8040018208DF8070002203F
:102D40008DF8060001A9464800F0FEFBE02144484A
:102D500000F0A9FC1020ADF804008DF80700022057
:102D60008DF8060001A93F4800F0EEFB0020ADF809
:102D700008004FF48270ADF80A004FF40060ADF81F
:102D80000C000220ADF80E000120ADF8100040024A
:102D9000ADF812003820ADF814000020ADF8160090
:102DA0000720ADF8180002A92F4802F025F80021ED
:102DB0002D4802F025F901212B4802F0C2F810211C
:102DC000284800F06EFC07B000BD70B50446002531
:102DD0001021244800F065FC05E0681CC5B2B5F57B
:102DE000FA6F00DD70BD02211F4802F02EF90028A5
:102DF000F3D0012000F017F910211A4800F053FC1D
:102E00002146194802F0CEF81021164800F049FC7E
:102E100000BFE7E710B50446A089FFF7D6FFE089B9
:102E2000FFF7D3FF2089FFF7D0FF6089FFF7CDFFC1
:102E30002089FFF7CAFF208AFFF7C7FF2088FFF726
:102E4000C4FFA088FFF7C1FF608AFFF7BEFF10BD77
:102E500010B50648FFF7DEFF10BD0000D0000020CF
:102E6000000801400010014000300140BA0000207D
:102E700008B50121084600F023FE0121474800F073
:102E800034FC0121042000F01BFE0121082000F089
:102E900017FE0121102000F013FE0121202000F078
:102EA0000FFE0121102000F00BFE4FF48070ADF8F2
:102EB000000010208DF8030002208DF80200694602
:102EC000374800F041FB4FF48071354800F0EBFBD0
:102ED0000121102000F0F4FD8020ADF8000010204A
:102EE0008DF8030002208DF8020069462C4800F09E
:102EF0002BFB80212A4800F0D4FB0121102000F098
:102F0000DFFD4FF48060ADF8000010208DF8030065
:102F100002208DF802006946214800F015FB4FF4AD
:102F200080611F4800F0BDFB0121202000F0C8FD9A
:102F30000420ADF8000010208DF8030001208DF86A
:102F400002006946174800F0FFFA0421154800F016
:102F5000AAFB142000F067F80421124800F0A1FB3E
:102F60000121042000F0ACFD0420ADF80000102089
:102F70008DF8030002208DF8020069460A4800F02F
:102F8000E3FA0421084800F08EFB642000F04BF8BF
:102F90000821054800F085FB08BD00000002300054
:102FA00000100140001401400008014010B56FF00E
:102FB000040000F04AFA2E4800682E49B0FBF1F0F8
:102FC0002D4908700846007800EB4001C1EBC010A5
:102FD0004FF6FF7101EAC0002849088010BD014684
:102FE000254A12784A434FF0E0235A6100229A6141
:102FF0001A46126942F001021A6100BF4FF0E02246
:10300000106900F001021AB100F48032002AF5D0F4
:103010004FF0E022126922F001024FF0E0231A6122
:1030200000229A6170470146144A12884A434FF0C1
:10303000E0235A6100229A611A46126942F00102A5
:103040001A6100BF4FF0E022106900F001021AB1CE
:1030500000F48032002AF5D04FF0E022126922F00D
:1030600001024FF0E0231A6100229A6170470000CC
:103070001800002000127A00D2000020D4000020A6
:1030800000BF704710B586B00446012144F2040029
:1030900000F016FD4FF40070ADF8140003208DF819
:1030A000160018208DF8170005A9884800F04CFA82
:1030B0004FF48060ADF8140003208DF81600042052
:1030C0008DF8170005A9814800F03EFA4FF4807092
:1030D000ADF8140010208DF8170003208DF81600AD
:1030E00005A97A4800F030FA4FF48071774800F073
:1030F000DAFA25208DF8000003208DF80100002069
:103100008DF8020001208DF80300684600F053F9A5
:1031100001940020ADF80800ADF80A00ADF80C00ED
:10312000ADF810000C20ADF80E0001A9684800F0C1
:103130006EFD012240F22551654800F000FE01219C
:10314000634800F0F0FD06B010BD2DE9F041002409
:103150000025002640F225515D4800F0D5FE0128EB
:103160006FD15B4800F050FEC4B25A480078B8B93D
:10317000032C15D158480078002811DD56480078F6
:10318000401E5649085C56490978884208D154487F
:1031900000785249087001204F4908704D49087065
:1031A0004C480078B8B9062C15D14B480078002857
:1031B00011DD49480078401E4849085C48490978B3
:1031C000884208D1464800784449087001204249A5
:1031D0000870404908704048007800F07F053F487B
:1031E0004455681C3C49087008460078022823DDD5
:1031F00008460078801EC1B23848FDF763FA0646DB
:1032000006F0FF08370A34480078801E3349085C0E
:10321000B8420CD130480078401E085C404506D1C9
:1032200001203049087000202A49087004E000207D
:103230002C4908702749087040F22551244800F0B5
:103240008DFEBDE8F08130B50146002200200CE083
:10325000254B1B7803F07F02531C234C23701F4B1C
:103260009D5C0346441CE0B2CD541B4B1B781E4CA6
:103270002478A342ECD10023174C23701A4C2370FE
:103280001A4B83F8000130BD70B505460E46104854
:1032900000884FF480710D4800F003FA00240CE020
:1032A000295D0B4800F0ACFD00BF4021084800F04C
:1032B00015FE0128F9D1601CC4B2B442F0DB4FF412
:1032C0008071024800F0EFF9204670BD000801400F
:1032D00000380140DE000020DC0000209C060020B9
:1032E0008200002000000020DD000020F800002007
:1032F00010B50446206814490840B0F1005F21D1A0
:103300000F2112A0FFF7C0FF00211C2000F0D8FB06
:103310000021124801F06CFA0021114801F011FE61
:1033200000214FF0804001F063FA00210D4800F0C9
:10333000FAFC60680C4908602068FCF747FF0A48FF
:103340000068804710BD00000000FE2F0A0D426F8C
:103350006F746C6F616465722100000000040040AE
:103360000030014000380140E0000020094880475B
:1033700009480047FEE7FEE7FEE7FEE7FEE7FEE757
:10338000FEE7FEE7FEE7FEE704480549054A064B6F
:1033900070470000C30500083101000880070020C5
:1033A000800D002080090020800900203149014360
:1033B000314A1160704770B5002100230F22C47894
:1033C00004B32D4C246804F4E064C4F5E064210ADD
:1033D000C1F10403CA40447804FA03F1847814402C
:1033E00021430901254C0678A155047804F01F05F6
:1033F0000124AC4005786D11AD0005F1E025C5F85C
:10340000004109E0047804F01F050124AC401C4D84
:103410000678761145F8264070BD1A4A0A400243E4
:10342000154B1B1F1A60704739B1134A121D1268E1
:103430000243114B1B1D1A6006E00F4A121D126851
:1034400082430D4B1B1D1A607047042808D14FF0B2
:10345000E021096941F004014FF0E022116107E029
:103460004FF0E021096921F004014FF0E0221161E1
:10347000704700000000FA050CED00E000E400E0F9
:1034800080E100E080FFFF1F10B50446CC48844275
:1034900008D10121042000F02DFB0021042000F0C0
:1034A00029FB46E0C748844208D10121082000F0EA
:1034B00021FB0021082000F01DFB3AE0C2488442B5
:1034C00008D10121102000F015FB0021102000F090
:1034D00011FB2EE0BD48844208D10121202000F0DC
:1034E00009FB0021202000F005FB22E0B8488442BF
:1034F00008D10121402000F0FDFA0021402000F019
:10350000F9FA16E0B348844208D10121802000F086
:10351000F1FA0021802000F0EDFA0AE0AE48844282
:1035200007D10121801500F0E5FA0021A01500F077
:10353000E1FA10BD10B50121084600F0DBFA0021C8
:10354000012000F0D7FA10BD2DE9F0410246002518
:103550000026002000230024002791F803C00CF06F
:103560000F0591F803C00CF0100CBCF1000F03D054
:1035700091F802C04CEA050591F800C0BCF1000FBB
:1035800031D0146800202BE04FF0010C0CFA00F34E
:10359000B1F800C00CEA03069E4220D183004FF030
:1035A0000F0C0CFA03F7BC4305FA03FC4CEA0404C5
:1035B00091F803C0BCF1280F06D14FF0010C0CFAB2
:1035C00000FCC2F814C00AE091F803C0BCF1480F37
:1035D00005D14FF0010C0CFA00FCC2F810C0401CE1
:1035E0000828D1D31460B1F800C0BCF1FF0F34DD5E
:1035F000546800202EE000F1080C4FF0010808FA92
:103600000CF3B1F800C00CEA03069E4221D18300FE
:103610004FF00F0C0CFA03F7BC4305FA03FC4CEA1D
:10362000040491F803C0BCF1280F05D100F1080C87
:1036300008FA0CF8C2F8148091F803C0BCF1480FE6
:1036400007D100F1080C4FF0010808FA0CF8C2F895
:103650001080401C0828CED35460BDE8F0814FF69E
:10366000FF710180022181700421C1707047024600
:10367000002093680B400BB1012000E00020704750
:103680000146886880B2704702460020D3680B402C
:103690000BB1012000E0002070470146C86880B2ED
:1036A000704701617047416170470AB1016100E0F4
:1036B00041617047C16070474FF480320A438261B4
:1036C0008161826182698269704702460020434BB2
:1036D00018684FF68073184040EA021008433F4BC9
:1036E000186070473E49C8617047F0B50A4600232C
:1036F00000240021002500F00046B6F1004F02D161
:10370000364EF16901E0354E7168C0F3034583B26E
:1037100000F44016B6F5401F08D121F070612F4E1D
:10372000766826F070662D4F7E6012E000F48016F9
:10373000B6F5801F06D1032606FA05F4A14341F031
:10374000706106E0460D360103FA06F6B14341F01A
:10375000706122B1460D360103FA06F6314300F0DE
:103760000046B6F1004F02D11C4EF16101E01B4E44
:103770007160F0BD30B500228B071C0F0F2303FAD8
:1037800004F2164B08338C1053F824309343134C37
:1037900008348D1044F8253023468C1053F824301B
:1037A0008C07240F00FA04F423430C4C08348D10CA
:1037B00044F8253030BD0A49DC310860704700000C
:1037C00000080140000C01400010014000140140BD
:1037D00000180140001C0140002001400000014091
:1037E00000002042DF48006840F00100DD49086029
:1037F00008464068DC490840DA49486008460068E5
:10380000DA490840D74908600846006820F480205B
:1038100008600846406820F4FE0048604FF41F002E
:1038200088607047CF49096821F48031CD4A116022
:103830001146096821F480211160B0F5803F03D062
:10384000B0F5802F0ED106E0C649096841F48031F9
:10385000C44A116007E0C349096841F4A021C14A84
:10386000116000E000BF00BF704710B501460022A4
:10387000002300204A11012A02D1BA4C236806E035
:10388000022A02D1B74C236A01E0B64C636A01F008
:103890001F02012494401C400CB1012000E00020D4
:1038A00010BD38B5002000900024002500BF312055
:1038B000FFF7DBFF05460098401C00900098B0F52C
:1038C000A06F01D0002DF2D03120FFF7CEFF08B15C
:1038D000012400E00024204638BD01460020A14A12
:1038E000106820F0F80040EAC10010607047A0495D
:1038F00008607047024600209A4B586820F47C10FC
:1039000042EA01031843974B58607047984908668C
:10391000704701460020934A506820F00300084396
:10392000506070478F48406800F00C0070470146B7
:1039300000208C4A506820F0F00008435060704727
:1039400001460020874A506820F4E0600843506038
:10395000704701460020834A506820F4605040EAD6
:10396000C1005060704729B17E4A527A02437D4BB4
:103970005A7204E07B4A527A82437A4B5A727047F9
:103980007B49D8310860704701460020754A50686D
:1039900020F440400843506070470021714A2032B3
:1039A0001170704A82F82010012802D004280AD130
:1039B00004E001216B4A2032117005E00521694ABB
:1039C0002032117000E000BF00BF704769490860F5
:1039D00070476449096A0143624A11627047654948
:1039E00044390860704730B50021002200240023CC
:1039F0005C4D6D6805F00C0121B1042905D0082942
:103A000023D105E05C4D056022E05B4D05601FE0C1
:103A1000544D6D6805F47012524D6D6805F4803494
:103A2000022505EB92421CB9544D554305600BE04D
:103A30004C4D6D6805F400351DB1504D5543056082
:103A400002E04D4D5543056002E04B4D056000BF5F
:103A500000BF444D6D6805F0F0010909484D6B5CED
:103A60000568DD4045603F4D6D6805F4E061090A79
:103A7000434D6B5C4568DD4085603A4D6D6805F4EB
:103A80006051C90A3E4D6B5C4568DD40C560354DEF
:103A90006D6805F44041890B3A4D6B5CC568B5FB18
:103AA000F3F5056130BD29B12E4A526902432D4B11
:103AB0005A6104E02B4A526982432A4B5A6170478B
:103AC00029B1284A92690243264B9A6104E0254AAB
:103AD00092698243234B9A61704729B1214AD26986
:103AE0000243204BDA6104E01E4AD26982431D4B37
:103AF000DA61704729B11B4AD2680243194BDA6078
:103B000004E0184AD2688243164BDA60704729B144
:103B1000144A12690243134B1A6104E0114A1269F4
:103B20008243104B1A617047124940390860704750
:103B30000F49C86470470B49C87170470948406A0B
:103B400040F0807007494862704701460020054AEE
:103B500092680A400AB1012000E000207047014944
:103B600088727047001002400000FFF8FFFFF6FE69
:103B7000000042428004424200127A0000093D00E7
:103B8000E4000020F400002010B50446FB48844205
:103B900009D101218803FFF7ADFF00214FF48040D8
:103BA000FFF7A8FF32E0F648844209D1012148041A
:103BB000FFF7ADFF00214FF40030FFF7A8FF25E02D
:103BC000F048844209D101218804FFF7A0FF0021B9
:103BD0004FF48020FFF79BFF18E0EB48844209D1A7
:103BE0000121C804FFF793FF00214FF40020FFF7E5
:103BF0008EFF0BE0E548844208D101210805FFF75C
:103C000086FF00214FF48010FFF781FF10BD2DE9E2
:103C1000F04786B005460E460024A24600BFA146E6
:103C20000027B08900B100BF2F462C8A4CF6FF70E8
:103C30000440F08804432C82AC894EF6F310044013
:103C4000B08831890843718908430443AC81AC8A48
:103C50004FF6FF400440B0890443AC8201A8FFF74F
:103C6000C2FEC648874202D1DDF810A001E0DDF8AF
:103C70000CA0A88900F4004040B10AEBCA0000EB98
:103C80000A1031684900B0FBF1F807E00AEBCA00FE
:103C900000EB0A1031688900B0FBF1F86420B8FB32
:103CA000F0F004012009642101FB1089A88900F4C7
:103CB000004040B1322000EBC900B0FBF1F000F051
:103CC0000700044308E0322000EB09106421B0FB38
:103CD000F1F000F00F0004432C8106B0BDE8F0873E
:103CE0004FF41651016000218180C18001810C21B7
:103CF000418100218181704710B502460020108A61
:103D00004FF2FF0318400B884C8823438C882343D1
:103D1000CC8823431843108210BD002101804180CC
:103D20008180C180704721B1828942F40052828132
:103D300004E082894DF6FF731A4082817047F0B526
:103D40000346002400260025002040F66A17B942E9
:103D500000D100BF1846C1F3421401F01F0601272D
:103D600007FA06F5012C01D10C3004E0022C01D138
:103D7000103000E014301AB107682F43076002E0EA
:103D80000768AF430760F0BD1AB1838A0B43838293
:103D900002E0838A8B4383827047028A4FF6F07376
:103DA0001A400282028A0A430282704782894FF2D5
:103DB000FF731A40828182890A438281704721B150
:103DC000828942F00202828104E082894FF6FD730B
:103DD0001A4082817047028A4FF6DF731A400282CE
:103DE000028A0A430282704721B1028A42F4804269
:103DF000028204E0028A4BF6FF731A400282704787
:103E0000C1F308028280704701468888C0F3080029
:103E10007047818941F0010181817047028BD2B2E4
:103E20000283028B42EA012202837047028B02F472
:103E30007F420283028B0A430283704721B1828A48
:103E400042F02002828204E0828A4FF6DF731A4039
:103E50008282704721B1828A42F01002828204E09D
:103E6000828A4FF6EF731A408282704721B1828AAC
:103E700042F00802828204E0828A4FF6F7731A4009
:103E80008282704721B1828942F40042828103E03C
:103E90008289C2F30E028281704721B1828A42F484
:103EA0000062828204E0828A4FF2FF731A408282AB
:103EB0007047828A4FF6FB731A408282828A0A43D5
:103EC0008282704721B1828A42F00202828204E03B
:103ED000828A4FF6FD731A408282704702460020A4
:103EE000B1F5007F00D100BF13880B400BB101205A
:103EF00000E00020704701F40072B2F5007F00D1AD
:103F000000BFCA430280704770B5024600240023F8
:103F10000025002040F66A16B14200D100BFC1F36F
:103F2000421501F01F03012606FA03F3012D02D109
:103F30009689334006E0022D02D1168A334001E013
:103F4000968A33400C12012606FA04F4168834408F
:103F500013B10CB1012000E0002070BD10B50022AB
:103F6000002340F66A14A14200D100BF0A120124C6
:103F70009440A3B2DC43048010BD0000003801402F
:103F80000044004000480040004C00400050004009
:103F900010B50446FE48844208D10121C014FFF741
:103FA000A9FD0021E014FFF7A5FDC4E0B4F1804FA6
:103FB00008D101210846FFF7AAFD00210120FFF7E3
:103FC000A6FDB8E0F348844208D101210220FFF7A2
:103FD0009EFD00210220FFF79AFDACE0EE488442EE
:103FE00008D101210420FFF792FD00210420FFF7F2
:103FF0008EFDA0E0E948844208D101210820FFF7A6
:1040000086FD00210820FFF782FD94E0E448844209
:1040100008D101211020FFF77AFD00211020FFF7C1
:1040200076FD88E0DF48844208D101212020FFF797
:104030006EFD00212020FFF76AFD7CE0DA48844213
:1040400008D101214014FFF755FD00216014FFF74E
:1040500051FD70E0D548844209D10121C804FFF721
:1040600049FD00214FF40020FFF744FD63E0D048F4
:10407000844209D101210805FFF73CFD00214FF4DE
:104080008010FFF737FD56E0CA48844209D101216C
:104090004805FFF72FFD00214FF40010FFF72AFD20
:1040A00049E0C548844208D101214020FFF72FFD97
:1040B00000214020FFF72BFD3DE0C048844208D19D
:1040C00001218020FFF723FD00218020FFF71FFD45
:1040D00031E0BB48844208D101218015FFF717FD6C
:1040E0000021A015FFF713FD25E0B648844209D151
:1040F00001210804FFF7FEFC00214FF48030FFF798
:10410000F9FC18E0B048844209D101214804FFF7C6
:10411000F1FC00214FF40030FFF7ECFC0BE0AB4862
:10412000844208D101218804FFF7E4FC00214FF408
:104130008020FFF7DFFC10BD00220288944B9842DC
:104140000ED0994B98420BD0B0F1804F08D0914BD4
:10415000984205D0904B984202D0904B984204D19F
:104160004FF68F731A404B881A438D4B984207D0F5
:104170008C4B984204D04FF6FF431A40CB881A4329
:1041800002808B8883850B880385814B98420BD0F6
:10419000854B984208D08B4B984205D08A4B984269
:1041A00002D08A4B984201D10B7A03860123838285
:1041B000704770B5002400220023058C4FF6FE7670
:1041C00035400584028C8388048B4FF68F752C4014
:1041D000B51E2C400D882C43751E2A400D892A439C
:1041E0004D882A436A4DA8420BD06F4DA84208D093
:1041F000744DA84205D0744DA84202D0734DA84218
:1042000013D14FF6F7752A404D892A434FF6FB75B7
:104210002A408D882A434FF6FF652B404FF6FF5505
:104220002B408D892B43CD892B4383800483CD88FC
:104230008586028470BD70B5002400220023058CA1
:104240004FF6EF7635400584028C8388048B48F660
:10425000FF752C404FF6FF452C400D884FF6FF763A
:1042600006EA05252C434FF6DF752A400D8906EA3C
:1042700005152A434D8806EA05152A43444DA842F0
:1042800002D0494DA8421DD14FF67F752A404D8975
:104290004FF6FF7606EA05152A434FF6BF752A400A
:1042A0008D8806EA05152A434FF6FF352B404FF25D
:1042B000FF752B408D8906EA85052B43CD8906EADB
:1042C00085052B4383800483CD880587028470BDD8
:1042D00070B5002400220023058C4FF6FF663540A0
:1042E0000584028C8388848B4FF68F752C404FF6A3
:1042F000FC752C400D882C434FF6FF552A400D8944
:104300004FF6FF7606EA05252A434D8806EA05257D
:104310002A431F4DA84202D0234DA8421DD14FF27F
:10432000FF752A404D894FF6FF7606EA05252A4398
:104330004FF6FF352A408D8806EA05252A434EF6BA
:10434000FF752B404DF6FF752B408D8906EA05154C
:104350002B43CD8906EA05152B4383808483CD88C2
:104360008587028470BD70B5002200230024058C6F
:104370004EF6FF7635400584038C8488828B48F6A0
:10438000FF752A404FF6FF452A400D8820E00000C7
:10439000002C01400004004000080040000C0040D8
:1043A000001000400014004000340140004C014067
:1043B000005001400054014000180040001C004023
:1043C00000200040004001400044014000480140FE
:1043D0004FF6FF7606EA05252A434DF6FF752B407A
:1043E0000D8906EA05352B434D8806EA05352B4332
:1043F000FA4DA84202D0FA4DA84208D14BF6FF75FB
:104400002C408D894FF6FF7606EA85152C43848073
:104410008283CD88A0F84050038470BD828B4FF218
:10442000FF331A408283828B4FF6FF7303EA012326
:104430001A4382837047F0B50C46154600220021CE
:104440000026078C4EF6FF7C07EA0C070784828B58
:10445000018C4FF6FF7707EA043640F6FF473A40F3
:104460004FF6FF7707EA05273A434FF6FF7707EA4B
:1044700003373A43D94FB8420ED0D94FB8420BD088
:10448000B0F1804F08D0D74FB84205D0D64FB842D0
:1044900002D0D64FB84206D14DF6FF77394046F4E8
:1044A0008057394305E047F6FF57394044F48057B9
:1044B000394382830184F0BD828B4FF6F3731A4037
:1044C0008283828B0A4382837047F0B50C4615467F
:1044D000002200210026078C4FF6FF6C07EA0C072C
:1044E0000784828B018C4FF6FF7707EA04264FF68C
:1044F0000C773A404FF6FF7707EA03172F433A430A
:10450000B64FB8420ED0B64FB8420BD0B0F1804F84
:1045100008D0B44FB84205D0B34FB84202D0B34F21
:10452000B84206D14FF6FF57394046F480773943F9
:1045300005E04FF2FF57394044F4807739438283D6
:104540000184F0BD028B4FF2FF331A400283028BCD
:104550004FF6FF7303EA01231A4302837047F0B555
:104560000C461546002200210026078C4FF6EF7CF2
:1045700007EA0C070784028B018C4FF6FF7707EAE6
:10458000041640F6FF473A404FF6FF7707EA033735
:104590003A434FF6FF7707EA05273A438F4FB84271
:1045A0000ED08F4FB8420BD0B0F1804F08D08D4F56
:1045B000B84205D08C4FB84202D08C4FB84206D1D9
:1045C0004FF6DF77394046F01007394305E04FF6E4
:1045D0005F77394044F01007394302830184F0BD0E
:1045E000028B4FF6F3731A400283028B0A43028355
:1045F0007047F0B50C46154600220021068C4FF698
:10460000FE773E400684028B018C4FF60C763240DA
:104610007E1C06EA03162E433243704EB0420ED083
:104620006F4EB0420BD0B0F1804F08D06D4EB0420B
:1046300005D06D4EB04202D06C4EB04206D14FF65E
:10464000FD76314044F00106314305E04FF6F57642
:10465000314044F00106314302830184F0BD70B55E
:1046600005460C465D4885420ED05D4885420BD01C
:10467000B5F1804F08D05B48854205D05A48854245
:1046800002D05A48854200D100E000BF208850B9CE
:104690002389A28861882846FFF7ABFFE188284676
:1046A000FFF79EFF25E0208804280AD12389A288ED
:1046B00061882846FFF753FFE1882846FFF742FF4D
:1046C00017E0208808280AD12389A2886188284613
:1046D000FFF7FBFEE1882846FFF7EEFE09E023899D
:1046E000A28861882846FFF7A6FEE1882846FFF7E2
:1046F00095FE70BD2DE9F04105460C4600260127C8
:10470000608808B9022600E00026A088012801D1AF
:10471000022700E001272088A0B92389A2886188A8
:104720002846FFF766FFE1882846FFF759FF2389EF
:104730003A4631462846FFF712FFE1882846FFF740
:1047400001FF13E02389A28861882846FFF707FF4D
:10475000E1882846FFF7F6FE23893A463146284687
:10476000FFF747FFE1882846FFF73AFFBDE8F081F1
:104770000A884B881A438B881A43CB881A430B89C3
:104780001A434B891A438B891A43A0F84420704777
:104790004FF6FF71818000210180C180418001724C
:1047A00070470021018041808180C1800181418169
:1047B0008181C18170470021018041800121818078
:1047C0000021C180018170470021018041808180EA
:1047D000C18001814181818170470000002C01402E
:1047E000003401400004004000080040000C00407C
:1047F00021B1028842F00102028004E002884FF6F3
:10480000FE731A400280704731B1B0F8442042F480
:104810000042A0F8442005E0B0F84420C2F30E02A4
:10482000A0F8442070471AB183890B43838102E0CA
:1048300083898B43838170478182704741EA0203F9
:10484000A0F8483070471AB183890B43838102E096
:1048500083898B438381704701894FF6F872114039
:10486000018170470A46002101894FF68F73194074
:1048700011430181704730B504460D462946204654
:10488000FFF7F0FF208940F00700208130BD2DE9BF
:10489000F04104460D4616461F46602D06D13B46A4
:1048A000012231462046FFF75AFE05E03B46012231
:1048B00031462046FFF79DFE29462046FFF7D2FFEE
:1048C000208940F007002081BDE8F08130B50C461A
:1048D00000210189C9B24FF6FF7505EA032515438A
:1048E00025432943018130BD2DE9F04105460E469F
:1048F00017469846002443463A4631462846FFF775
:10490000E5FF2C894FF6F870044044F007044FF699
:104910008F70044044F070042C81BDE8F081F0B544
:1049200004460D4616461F463B463246294620465B
:10493000FFF7CCFF208940F480402081F0BD018545
:10494000828270470A46002101884FF68F73194012
:10495000114301807047F0B50C4615461E460021F4
:10496000002200230189028B038C4FF6F87739402F
:1049700021434FF6FC473A4040F201173A434FF6C5
:10498000DD773B404FF6FF7707EA06172F433B439F
:10499000018102830384F0BD0A460021018B4FF69A
:1049A0008F7319401143018370470A460021018B20
:1049B00048F6FF7319404FF6FF7303EA02231943C9
:1049C000018370470A460021818B4FF68F7319408F
:1049D0001143818370470A460021818B48F6FF739B
:1049E00019404FF6FF7303EA02231943818370478E
:1049F00021B1028842F08002028004E002884FF672
:104A00007F731A400280704721B1828842F004020D
:104A1000828004E082884FF6FB731A4082807047E0
:104A200021B1828842F00802828004E082884FF639
:104A3000F7731A408280704721B1828842F00102E8
:104A4000828004E082884FF6FE731A4082807047AD
:104A50000A460021018B4FF6F77319401143018379
:104A600070470A460021018B4FF2FF7319404FF641
:104A7000FF7303EA02231943018370470A460021AA
:104A8000818B4FF6F77319401143818370470A46B3
:104A90000021818B4FF2FF7319404FF6FF7303EA39
:104AA00002231943818370470A460021018B4FF688
:104AB000FB7319401143018370470A460021018BA3
:104AC0004FF6FF3319404FF6FF7303EA02231943F1
:104AD000018370470A460021818B4FF6FB73194012
:104AE0001143818370470A460021818B4FF6FF33C3
:104AF00019404FF6FF7303EA02231943818370477D
:104B00000A460021018B4FF67F7319401143018340
:104B100070470A460021018BC1F30E014FF6FF7367
:104B200003EA02231943018370470A460021818B5F
:104B30004FF67F7319401143818370470A46002165
:104B4000818BC1F30E014FF6FF7303EA0223194371
:104B5000818370470A460021018C4FF6FD7319408E
:104B60001143018470470A460021018C4FF6F77308
:104B700019401143018470470A460021018C4FF609
:104B8000DF7319404FF6FF7303EA021319430184E0
:104B900070470A460021018C4FF67F7319404FF68B
:104BA000FF7303EA02131943018470470A46002188
:104BB000018C4FF6FF5319404FF6FF7303EA0223AF
:104BC0001943018470470A460021018C4FF2FF739C
:104BD00019404FF6FF7303EA02231943018470471B
:104BE0000A460021018C4DF6FF7319404FF6FF7302
:104BF00003EA023319430184704730B500230124CE
:104C00008C40A3B2048C9C430484048C02FA01F50A
:104C1000ADB22C43048430BD30B5002304248C4055
:104C2000A3B2048C9C430484048C02FA01F5ADB257
:104C30002C43048430BD70B5034600200024184680
:104C4000183001258D40ACB21D8CA5431D8409B1DF
:104C5000082909D100EB6100056825F070050560A1
:104C60000568154305600EE00D1FC5F34E05284489
:104C7000056825F4E045056005684FF6FF7606EA0D
:104C800002263543056070BD21B1028842F0020260
:104C9000028004E002884FF6FD731A4002807047DC
:104CA00021B1028842F00402028004E002884FF63B
:104CB000FB731A400280704721B1828842F0800263
:104CC000828004E082884FF67F731A4082807047AA
:104CD00002884FF6F7731A40028002880A43028066
:104CE000704782884FF68F731A40828082880A4309
:104CF0008280704702894FF6F8731A400281028958
:104D00000A430281704702894FF67F731A4002817D
:104D100002890A4302817047818470478185704708
:104D2000818670470187704781877047A0F84010DF
:104D3000704702884FF6FF431A40028002880A43F8
:104D4000028070470146888E70470146088F704781
:104D50000146888F70470146B1F840007047014610
:104D6000888C70470146088D704702460020138AE0
:104D70000B400BB1012000E000207047CA430282C3
:104D8000704730B50246002000230024158A05EA4A
:104D90000103958905EA010413B10CB1012000E07B
:104DA000002030BDCA4302827047000010B504469F
:104DB000BE48844208D101218014FEF79BFE0021E9
:104DC000A014FEF797FE16E0B948844208D10121ED
:104DD0000014FEF79CFE00212014FEF798FE0AE066
:104DE000B448844207D10121C013FEF790FE002190
:104DF000E013FEF78CFE10BD10B50022028802F40D
:104E000041520B884C8823438C882343CC8823430E
:104E10000C8923434C8923438C892343CC89234326
:104E20001A430280838B4FF2FF74234083830B8AE3
:104E3000038210BD2DE9F04F85B005460C464FF0BA
:104E4000000902274FF000084FF0010B0026B24680
:104E5000A88B4FF240010840A88302202884B5F8AF
:104E60001C90A068022801D100BF38E0A08810B9CA
:104E70004FF0010B01E04FF0020B8D48854200D14D
:104E800000E000BF6846FEF7AEFDDDF800A0E08858
:104E9000B0F5007F0AD14FEA1A2000EB80004000F5
:104EA000A168B0FBF1F0401D86B20BE04FEA4B1059
:104EB000BAFBF0F000EB80004000A168B0FBF1F01D
:104EC000401D86B20A20B6FBF0F606F00108A6EBFC
:104ED0000800C0F34F074FF6FF7000EA0828022FC2
:104EE00001DBFF2F02DD02274FF00008E08840EAD7
:104EF000080038432884A088A189084361880843B2
:104F00002188084340F4006040EA0909A5F81C9094
:104F100005B0BDE8F08F0021018041808180C18013
:104F2000018141818181C181072101827047002176
:104F3000018041808180C1800221816000218181C6
:104F4000704721B1028842F04002028004E00288EA
:104F50004FF6BF731A400280704721B1828B42F432
:104F60008062828304E0828B4FF6FF331A40828393
:104F7000704730B5002400230C110125A540ABB2C9
:104F80001AB185881D43858002E085889D43858010
:104F900030BD1AB183880B43838002E083888B4342
:104FA00083807047818170470146888970474FF63A
:104FB000FF62914204D0028842F48072028004E0D1
:104FC00002884FF6FF631A400280704721B1828841
:104FD00042F00402828004E082884FF6FB731A409C
:104FE0008280704702884FF2FF731A400280028865
:104FF0000A4302807047018841F480510180704764
:1050000021B1028842F40052028004E002884DF689
:10501000FF731A400280704702460020012901D028
:10502000108B00E0908A70470146088A7047B1F5FE
:10503000804F04D1028842F48042028004E002885A
:105040004BF6FF731A400280704702460020138916
:105050000B400BB1012000E000207047CA430281E1
:105060007047F0B50246002000240023002501F01F
:105070000F070126BE40B4B20B1101269E40B3B209
:10508000968806EA03051689264016B10DB101205F
:1050900000E00020F0BD10B5002201F00F04012354
:1050A000A3409AB2D343038110BD000000300140F9
:1050B00000380040003C004001460020FE4A1068D5
:1050C00000F03800084310607047FB49096821F080
:1050D0000801F94A116011460968014311607047DF
:1050E000F549096821F01001F34A11601146096879
:1050F000014311607047F148EF494860F04848604B
:105100007047EE48EC494860ED4848607047EA480F
:10511000006940F08000E84908617047E64800698E
:1051200040F08000E449086170470420E249C96802
:1051300001F0010109B101200EE0DF49C96801F069
:10514000040109B1022007E0DB49C96801F0100140
:1051500009B1032000E00420704700B50246042393
:10516000FFF7E3FF034603E0FFF7DFFF0346521EAE
:10517000012B01D1002AF7D102B90523184600BD41
:1051800030B5044604254FF43020FFF7E6FF05460E
:10519000042D17D1C848006940F00200C6490861D3
:1051A00008464461006940F0400008614FF4302037
:1051B000FFF7D3FF0546C048006941F6FD7108407E
:1051C000BD490861284630BD10B504244FF4302095
:1051D000FFF7C3FF0446042C16D1B748006940F01E
:1051E0000400B54908610846006940F040000861C4
:1051F0004FF43020FFF7B1FF0446AF48006941F695
:10520000FB710840AC490861204610BD00B502465C
:105210000423FFF78AFF034603E0FFF786FF0346F8
:10522000521E012B01D1002AF7D102B905231846DD
:1052300000BD10B504244FF43020FFF7E7FF04460B
:10524000042C16D19C48006940F004009A4908617A
:105250000846006940F0400008614FF43020FFF735
:10526000D5FF04469448006941F6FB710840924915
:105270000861204610BD00208F49C96901F0020174
:1052800009B1012000E00020704730B5A5250424B5
:10529000FFF7F1FF00B100254FF43020FFF75DFF6D
:1052A0000446042C3AD18548834988608448886044
:1052B0000846006940F0200008610846006940F097
:1052C000400008614FF43020FFF747FF0446042CEC
:1052D0001BD17948006941F6DF71084076490861C1
:1052E0000846006940F01000086176480580E00239
:1052F000FFF733FF0446052C10D06F48006941F6D4
:10530000EF7108406C49086108E0052C06D06A4836
:10531000006941F6EF71084067490861204630BDD9
:1053200078B506460C46042500200090E802FFF7F9
:1053300014FF0546042D24D15F48006940F00100A8
:105340005D4908613480E802FFF707FF0546042D38
:1053500010D1B01C0090200C00990880E802FFF7E3
:10536000FCFE05465448006941F6FE71084052496A
:10537000086106E05048006941F6FE7108404E4958
:105380000861284678BD70B504460D460426F00233
:10539000FFF7E3FE0646042E11D14748006940F0AE
:1053A0000100454908612580F002FFF7D6FE064658
:1053B0004148006941F6FE7108403F4908613046A6
:1053C00070BD70B505460E460424E002FFF7C5FE29
:1053D0000446042C17D1394837498860384888601A
:1053E0000846006940F0100008612E80E002FFF7D7
:1053F000B4FE0446052C06D02F48006941F6EF7133
:1054000008402D490861204670BD2DE9F04304464F
:105410004FF6FF763746B046B1460425E443E6B280
:10542000C4F30727C4F307484FEA1469E802FFF7FB
:1054300094FE0546042D49D120481F498860204824
:1054400088600846006940F010000861FF2E06D011
:105450001C4808300680E802FFF77FFE0546042D51
:1054600008D1FF2F06D017480A300780E802FFF75F
:1054700074FE0546042D0AD1B8F1FF0F07D011487C
:105480000C30A0F80080E802FFF767FE0546042D07
:105490000AD1B9F1FF0F07D00A480E30A0F80090EA
:1054A000E802FFF75AFE0546052D0FD002480069B5
:1054B00041F6EF71084007E00020024023016745F4
:1054C000AB89EFCD00F8FF1F664908612846BDE8AB
:1054D000F08330B5054604244FF43020FFF73DFE3D
:1054E0000446042C41D160485E4988605F4888606A
:1054F0000846006940F0200008610846006940F055
:10550000400008614FF43020FFF727FE0446042CCA
:1055100022D15448006941F6DF71084051490861C1
:105520000846006940F0100008611DB10020504994
:10553000088002E0A5204E4908804FF43020FFF794
:105540000CFE0446052C10D04648006941F6EF7168
:1055500008404449086108E0052C06D0414800692C
:1055600041F6DF7108403F490861204630BDF0B583
:1055700005460E46174604243B483A4988603B4896
:105580008860E002FFF7E9FD0446042C19D1354894
:10559000006940F010003349086147F0F8003043DB
:1055A00028433349891C0880E002FFF7D6FD0446F2
:1055B000052C06D02B48006941F6EF7108402949B7
:1055C00008612046F0BD2748C0698008704725481B
:1055D000006A704700202349096801F0200109B1E1
:1055E000012000E00020704729B11E4A12690243E1
:1055F0001C4B1A6104E01B4A12698243194B1A6161
:10560000704701460020012908D1164AD26902F0EC
:1056100001020AB1012008E0002006E0114AD26828
:105620000A400AB1012000E0002070470D49C8601F
:10563000704704200B49C96801F0010109B101203C
:105640000EE00849C96801F0040109B1022007E031
:105650000449C96801F0100109B1032000E00420E9
:10566000704700000020024023016745AB89EFCD61
:1056700000F8FF1F0E49086070470D4948607047E9
:105680000B49886070474AF6AA20094908607047AC
:105690004CF6CC4006490860704701460020044A99
:1056A000D2680A400AB1012000E0002070470000E3
:1056B0000030004070474FF0000200B5134694469A
:1056C0009646203922BFA0E80C50A0E80C50B1F15A
:1056D0002001BFF4F7AF090728BFA0E80C5048BF6E
:1056E0000CC05DF804EB890028BF40F8042B08BF0C
:1056F000704748BF20F8022B11F0804F18BF00F808
:10570000012B7047704770477047704710B500F025
:1057100009F8006810BD10B5044600F003F80460F5
:1057200010BD0000004870471C070020004870476B
:105730001C0700207546FFF7F9FFAE4605006946D5
:10574000534620F00700854618B020B5FDF71CFE33
:10575000BDE820404FF000064FF000074FF0000872
:105760004FF0000B21F00701AC46ACE8C009ACE8F3
:10577000C009ACE8C009ACE8C0098D46704710B557
:105780000446AFF300802046BDE81040FAF717BD8D
:10579000490050EAC12018BF04204A0D18BF40F04C
:1057A000010040F2FF72B2EB515F08BF40F002000F
:1057B000012808BF052070472DE9F0414F1E00EB7E
:1057C000C7010446D1E9000115461E4637F006021E
:1057D0000DD02A46334600F0A3FC7F1E04EBC7031E
:1057E000D3E9002300F0C4F937F00602F1D1022F0B
:1057F00025D0042F13D0062F18BFBDE8F0812A460C
:10580000334600F08DFCD4E90A2300F0B1F92A46B2
:10581000334600F085FCD4E9082300F0A9F92A46B4
:10582000334600F07DFCD4E9062300F0A1F92A46B6
:10583000334600F075FCD4E9042300F099F92A46B8
:10584000334600F06DFCD4E9022300F091F92A46BA
:10585000334600F065FCD4E90023BDE8F04100F0D8
:1058600087B9012201F02DBA40F2013200204FF039
:10587000E04101F026BA0000024A0020110701F0C1
:1058800020BA000001FDFFFF2DE9F04D894BCE0F3E
:1058900021F0004784B005460C469F4230D386482D
:1058A000874211D3C7F31300284305D004B028461C
:1058B000BDE8F04DFFF7D5BF002E1ABF002001460E
:1058C000284604B0BDE8F08D7C4A284600F026FD4D
:1058D00007D20220FFF71FFF04B0BDE8F04DFFF72D
:1058E000C3BF774A774B2846214600F0DDFB07D23D
:1058F0000220FFF710FF04B0BDE8F04DFFF7BCBF7A
:105900007148B84248D27148874215D270487844ED
:1059100000EBC6002146D0E90023284600F040FDF8
:10592000CDE900016B48784400EBC600D0E900AB3C
:10593000C6F10100861B26E0674A684B28462146CF
:1059400000F0EEFB664A7A4402EBC603D3E900237B
:1059500000F00EF900F020FB064600F07AFB074647
:105960008846604A604B00F0DBFB2A46234600F085
:105970000BFDCDE900015D4A5D4B3846414600F024
:10598000CFFB82468B46DDE9000152465B4600F0C4
:1059900007FD05460C4618E05648874214D2564A81
:1059A000564B2846214600F0E3F8554E0022334678
:1059B00000F0B4FC08D204B0334628462146BDE8C6
:1059C000F04D002200F0D4B800262A4623461046A7
:1059D000194600F0A5FB804602464A480F460B4692
:1059E00005217844FFF7E8FE42463B4600F098FB6D
:1059F0002A46234600F0C8FC07468846E6B302461E
:105A00000B4600204FF0804100F0CAFCCDE90201B6
:105A10003A4643462846214600F082FBDDE9022350
:105A200000F062F952465B4600F0AEFCDDE900236F
:105A300000F0B6FC0022324B00F0A6FC6FF47F723F
:105A40009642A2BF01EB065104B0BDE8F08D4FF0C5
:105A50007A5202EB065211442B4A01F032F9044605
:105A60000D46FFF795FE042808BFFFF705FF204607
:105A700004B02946BDE8F08DFFE700224FF08043D7
:105A800000F08EFC82460E463A46434628462146A2
:105A900000F046FB5246334600F026F92A462346DC
:105AA00000F07EFC04B00022BDE8F04D144B00F085
:105AB0006BBC0000422E86400000F07FEF39FAFEFA
:105AC00051302DD5104987C0422ED63FB2A2F03FAB
:105AD0008E38000086380000FE822B654715F73FA0
