:020000040800F2
:10000000B84A0020CD2A00084D0400084F0400081B
:1000100053040008570400085B04000800000000B7
:100020000000000000000000000000005F04000865
:100030006104000800000000630400086504000873
:10004000E72A0008E72A0008E72A0008E72A00084C
:10005000E72A0008E72A0008E72A0008E72A00083C
:10006000E72A0008E72A0008E72A0008E72A00082C
:10007000E72A0008E72A0008E72A0008E72A00081C
:10008000E72A0008E72A0008E72A0008E72A00080C
:10009000E72A0008E72A0008E72A0008E72A0008FC
:1000A000E72A0008E72A0008E72A0008E72A0008EC
:1000B000830B0008E72A0008E72A0008E72A00085F
:1000C000E72A0008E72A0008E72A0008E72A0008CC
:1000D000E72A000827290008E72A0008E72A00087D
:1000E000E72A0008E72A0008E72A0008E72A0008AC
:1000F000E72A0008E72A0008E72A0008E72A00089C
:10010000E72A0008E72A0008E72A0008E72A00088B
:10011000E72A0008E72A0008E72A0008E72A00087B
:10012000E72A0008E72A0008E72A0008E72A00086B
:1001300000F002F800F03AF80AA090E8000C8244BF
:100140008344AAF10107DA4501D100F02FF8AFF29C
:10015000090EBAE80F0013F0010F18BFFB1A43F0A5
:1001600001031847FC8E00001C8F0000103A24BFCA
:1001700078C878C1FAD8520724BF30C830C144BF0C
:1001800004680C607047000000230024002500264E
:10019000103A28BF78C1FBD8520728BF30C148BFEA
:1001A0000B6070471FB51FBD10B510BD06F07AFB80
:1001B0001146FFF7F7FF00F04CF806F098FB03B488
:1001C000FFF7F2FF03BC02F049FB000080F3088850
:1001D0007047000070B505460C4645F2555003F0D7
:1001E000A7FD284603F0A7FD204603F0A7FD03F076
:1001F000A8FD03F0ABFD70BD10B503F0A2FD10BD6E
:100200000246002003E0002342F82030401C8842D0
:10021000F9DB70472DE9F04104460F46002514E054
:100220006E1C0FE054F8251054F8260008F0B6FABA
:1002300007D254F8258054F8260044F8250044F8E5
:100240002680761CBE42EDDB6D1CBD42E8DBBDE8BE
:10025000F081002400270025002600BF00F04EFAA0
:1002600000206C4908704FF4A06002F04FFC02F0CF
:100270004DFA02F03FF9642002F085FA4FF416506F
:1002800002F0EEFA02F0B8F800F03EFD00BF05E023
:100290000020614921F81400601C84B2042CF7DBB3
:1002A0000A215E48FFF7ACFF0A215D48FFF7A8FF6F
:1002B00000205C4908605C4908605C4908600024D3
:1002C000002500260027A3E05349B1F90010524A47
:1002D000B2F904205143504AB2F902204E4BB3F90F
:1002E000063002FB031008F02DFA80464A49B1F9A6
:1002F0000010494AB2F906205143474AB2F9042096
:10030000454BB3F9023002FB131008F01BFA81468B
:10031000414608F019F9424941F825000A2E02DA4F
:10032000701C86B200E00A260A2D02DA681C85B22B
:1003300000E000250A2F02DA781C87B251E0002481
:1003400007E0374850F82400394941F82400601C80
:1003500084B20A2CF5DB0020344908603249086079
:100360000A213348FFF756FF02240AE0304850F8CC
:1003700024102D48006808F079F82B490860601CAB
:1003800084B2082CF2DB02F06CF82A4908602A4992
:100390002548006808F0D8F88246284908F032FA63
:1003A000814608F093F9B0F1000801DB414601E015
:1003B000C8F10001084608F0C5F91A49086000F0C4
:1003C00055FE01F0DAFA00270020184908601649A6
:1003D00008600A211A48FFF713FF0A211448FFF7A3
:1003E0000FFF4FF48071174803F003FC09480078B1
:1003F00001280DD10A2E0BD100200649087080215A
:10040000114806F010FA104802F00BFB01F0F9FA5F
:100410005AE7000000000020DC00002070020020ED
:10042000200200200C000020080000201000002006
:1004300048020020140000200000C04000401C467C
:1004400098020020000801401C010020704700BFF6
:10045000FEE700BFFEE700BFFEE700BFFEE7704714
:1004600070477047704700000CB500200190009065
:100470006C48006840F480306A49086000BF6948F1
:10048000006800F4003000900198401C0190009832
:1004900018B90198B0F5A06FF1D16248006800F476
:1004A000003010B10120009001E000200090009881
:1004B000012843D15C48006840F010005A490860A8
:1004C0000846006820F0030008600846006840F015
:1004D0000200086053484068524948600846406836
:1004E00048600846406840F48060486008464068BC
:1004F00020F47C1048600846406840F4E8104860EA
:100500000846006840F08070086000BF45480068F9
:1005100000F000700028F9D04248406820F0030045
:10052000404948600846406840F00200486000BF0B
:100530003C48406800F00C000828F9D10CBD10B50B
:10054000FFF792FF10BD10B53648006840F001007B
:1005500034490860084640683449084031494860D9
:1005600008460068324908402E490860084600687D
:1005700020F4802008600846406820F4FE004860AF
:100580004FF41F008860FFF7DAFF4FF00060294941
:10059000086010BD10B5002100200022214B5B68CF
:1005A00003F00C0121B1042906D0082928D107E065
:1005B000214B224C236027E01F4B204C236023E07B
:1005C000184B5B6803F47010164B5B6803F48032C1
:1005D000022303EB904022B9194B4343174C23608D
:1005E0000DE0104B5B6803F4003323B1144B43431D
:1005F000124C236003E0104B4343104C236003E094
:100600000D4B0E4C236000BF00BF064B5B68C3F36D
:1006100003130C4CE15C094B1B68CB40074C236077
:1006200010BD000000100240002002400000FFF852
:10063000FFFFF6FE08ED00E000127A00180000202F
:1006400000093D001C00002010B50A460023FB4CA9
:100650002380FB4C238000211DE0F84B1B8830F8E1
:10066000133030F81140A34201DDF44B1980F44BF4
:100670001B8830F8133030F81140A34207DBF04BF1
:100680001B8830F8133030F81140A34201D1EC4BF5
:1006900019804B1CD9B29142DFDB10BD2DE9F04728
:1006A00006460D46002729463046FFF7CDFF0024B9
:1006B00012E0E348008884420CD0E048008884427D
:1006C00008D036F8140008F055F88146394607F08E
:1006D000CDFE0746601CC4B2AC42EADBA81E08F09F
:1006E00031F882465146384607F02EFF814608F021
:1006F00009F81FFA80F84046BDE8F08700B587B0DA
:1007000001214FF4047003F0A1FC4FF4404003F0CA
:1007100001FC0120ADF8040000208DF8070001A9BC
:10072000C84803F0B7F9C84802F05EFA002002900A
:100730008DF80C008DF80D004FF46020049000201F
:10074000059001208DF8180002A9BF4802F073FA45
:100750000121BD4802F09BFABB4802F0BAFA00BF83
:10076000B94802F0BBFA0028FAD1B74802F0C0FA43
:1007700000BFB54802F0C1FA0028FAD107B000BDA9
:1007800010B50446062301222146AF4802F0EBFAD9
:100790000121AD4802F0BBFA00BF0221AA4802F0D5
:1007A00027FC0028F9D0A84802F044FB10BD2DE931
:1007B000F14F92B00027002401F078FF192001F0DA
:1007C000E2FF00BF08E01298FFF7DAFF00049F493C
:1007D00041F82700781C87B2B7F5806FF3DB01F092
:1007E00069FF4FF480629949994804F02BFF002477
:1007F0005FE0974830F824000FFA80FB944850F8E7
:100800002400000C00B21090584607F09BFF4FF0F8
:100810008941089007F0F6FF4FF08E41099007F0EC
:1008200093FE8046109807F08DFF4FF089410890A5
:1008300007F0E8FF4FF08E41099007F085FE8146F2
:100840004946484607F0DEFF41460290404607F021
:10085000D9FF0190029907F009FE039007F0DAFD35
:10086000CDE9040106F064FF00227A4BCDE90601D0
:1008700007F0A4F8CDE9080106F0B2FF0D905CB9CD
:100880004FF08E410D9807F0BDFF099007F03AFF39
:10089000714941F824000AE04FF08F410D9807F0AC
:1008A000B1FF099007F02EFF6B4941F82400601C4E
:1008B00084B2B4F5806F9CDB0A2509E0664850F8E5
:1008C0002510A5F10A00654A42F82010681C85B27F
:1008D000B5F5FA7FF2DB00260DE06048584909883B
:1008E00050F821005D4951F82610884201D2544841
:1008F0000680701C86B2B6F5F57FEEDB5449504891
:1009000000880A3031F8200000B20F904C4800886F
:100910000A3051F82000000C00B20E900F9807F03A
:1009200011FF4FF08941089007F06CFF4FF08E41A6
:10093000099007F009FE82460E9807F003FF4FF07A
:100940008941089007F05EFF4FF08E41099007F053
:10095000FBFD0B9051460B9807F0F6FD059007F054
:1009600059FDCDE9060106F041FCCDE9080106F08C
:1009700037FF0C9000210B9808F010F813D80021D5
:10098000504608F00BF828D90C9807F043FD344A7C
:10099000344BCDE9060106F055FFCDE9080106F01C
:1009A0001FFF0C9019E00021504607F0F7FF06D812
:1009B0002D4801680C9807F059FD0C900DE00C983B
:1009C00007F028FD264A274BCDE9060106F03AFF3D
:1009D000CDE9080106F004FF0C9024490C9807F0BB
:1009E00011FF059007F016FD1D4A1E4BCDE90601CB
:1009F00006F0E4FFCDE9080106F0F2FE0C900C9839
:100A000007F080FE80B20A900C9807F07BFE80B25F
:100A100013B0BDE8F08F2DE9F04F87B080460D464A
:100A2000002707E04046FFF7C2FE01A921F81700A2
:100A3000781C87B2AF42F5DB002640E02C00002096
:100A40002E0000200010014000240140700F002003
:100A5000701F002000009040702F0020C002002076
:100A60004AD8124DFB2109403000002000A08C46DE
:100A700000241EE001A830F8141001AA601C32F80E
:100A80001000814213DD01A931F8140007F072FE55
:100A9000834601A9601C31F8100021F81400584663
:100AA00007F030FE81B201AA601C22F81010601C11
:100AB00084B2A81B401EA042DCDC701C86B2681EFB
:100AC000B042D5DC814609EBD971491001AA32F850
:100AD000110007F04FFE8246504607F013FE80B229
:100AE00007B0BDE8F08F0000F0B502460026FF23F6
:100AF000FF2400250BE03046771CFEB2105C80EA34
:100B000003050748405D80EA04030648445D081E6B
:100B1000A1F10107F9B2EEDC44EA0320F0BD0000C8
:100B2000EE8B0008EE8C00087FB505460C460121CF
:100B3000084603F098FAADF80450ADF800400020E4
:100B4000ADF80600ADF8020069464FF0804003F0B2
:100B50003BFD01221146900704F0ADF80121880702
:100B600004F08EF81C208DF80C0003208DF80D0089
:100B700001208DF80E008DF80F0003A801F0CBFFC7
:100B80007FBD10B50121880704F043FB58B1012156
:100B9000880704F04FFB00214FF0804004F070F80C
:100BA00001205049087010BD0146088870472DE9A2
:100BB000F04105460E461746002407E036F81410AB
:100BC000284602F090FDAD1C601C84B2BC42F5DBEF
:100BD000BDE8F08130B503460C461546002207E01B
:100BE0001846FFF7E1FF24F812009B1C501C82B24C
:100BF000AA42F5DB30BD2DE9F05F80468A461746F4
:100C0000B8F1006F02D33848804501D3BDE8F09FAA
:100C100002F021FCA8F1006B4FEA9B25CBF34809B9
:100C2000C9F50074A74200DC3C464DE04FF000617E
:100C300001EB85208A142D49FFF7CCFF00260BE03D
:100C400009EB0600294931F810004FF6FF71884280
:100C500000D003E0701C86B2A642F1DB00BFA642C2
:100C60001BDA4FF0006101EB852002F039FC002611
:100C700008E03AF8160006EB09011C4A22F81100B8
:100C8000701C86B2A642F4DB4FF0006101EB8520B8
:100C90008A141649FFF78BFF04E02246514640466E
:100CA000FFF785FFA74200D10FE06D1C4FF0000950
:100CB0000AEB440AA044381B87B2B7F5007F02DD77
:100CC0004FF4007400E03C46B0E700BF02F0CFFBF9
:100CD00000BF9BE713B50446012201A92046FFF798
:100CE0008AFF1CBD0000002000000108703F0020AA
:100CF00010B503E010F8013B01F8013B1300A2F12D
:100D00000104E2B2F6D110BD2DE9FC470125002710
:100D10004FF000084FF0000940F2F5360024FE487D
:100D2000FFF742FFC7B2282F07DD2820FB490870D4
:100D30004FF4C870FA49888206E0F848077007EB5C
:100D400087004000F6498882F348001DFFF72CFF1A
:100D50008046F448A0F80080F148A0F81680EE48DC
:100D6000801DFFF721FF8146EF48A0F80090EC4876
:100D7000A0F81890E848801CFFF716FF064640F2DE
:100D80003340864204DDE9490880E54948830DE0A7
:100D9000B6F5077F06DA4FF40770E4490880E049AA
:100DA000488303E0E1480680DD484683DA48801E38
:100DB000FFF7FAFEC5B2012D01DB7F2D05DD012015
:100DC000DB490870D649488203E0D9480570D44809
:100DD000458203226946D0480E30FFF7FBFEBDF87E
:100DE0000000D4490880BDF8020000F47F40ADF84F
:100DF000020008464088BDF802100843CD494880EB
:100E0000002409E0CB4830F8141004F11100C44A62
:100E100022F81010601CC4B2032CF3DB0422C64974
:100E2000BD481E30FFF7D6FE002409E0C24830F866
:100E3000141004F11400BA4A22F81010601CC4B255
:100E4000042CF3DB0422BD49B3482E30FFF7C2FE69
:100E5000002409E0B94830F8141004F11800B04A31
:100E600022F81010601CC4B2042CF3DBAA4808302E
:100E7000FFF79AFEB249088008460088A849888092
:100E8000A5484630FFF790FEAE4908800846008826
:100E9000A349C883A0484830FFF786FEAA490880C6
:100EA000084600889E4908849B480A30FFF77CFE6C
:100EB000A6490880084600889949C88096480C30A1
:100EC000FFF772FEA249088008460088944988818D
:100ED00091484C30FFF768FE9E490880084600881C
:100EE0008F4948818C483E30FFF75EFE9A49088062
:100EF000084600888A49088787484030FFF754FE33
:100F000096490880084600888549488782484230CB
:100F1000FFF74AFE92490880084600888049888782
:100F20007D484430FFF740FE8E490880084600881F
:100F30007B49C887BDE8FC872DE9F04F89B00821BF
:100F4000894802F056FE0B210A20FFF764FD044693
:100F500007F010FC0690012001F015FC08218248E2
:100F600002F045FE0B210A20FFF755FD044607F06D
:100F700001FC0790012001F006FC0B210A20FFF77D
:100F80004AFD044607F0F6FB0490012001F0FBFB4C
:100F90000821754802F02DFE0B210A20FFF73BFDCA
:100FA000044607F0E7FB0390012001F0ECFBDDE9CC
:100FB000061007F02FFD8146049907F057FA064600
:100FC000039907F027FD054607F024FA21F00041B8
:100FD000074606F005FC04464FF0804107F0B4FADE
:100FE0000590DDE9061007F015FD8246049907F02B
:100FF0003DFA8146039907F00DFD044607F00AFA11
:1010000021F00041074600224FF0804306F0D6FC55
:10101000054606F05BFE0290029806F09BFE8246B3
:10102000524A534B06F0E6FE0022524BCDE9000136
:1010300006F0C4FC804606F0A1FB064600224E4B9B
:1010400006F0D8FE044606F0CBFB4C490860084683
:10105000006807F057FB4A4908804848006807F0D5
:1010600051FB2F49888309B0BDE8F08F2DE9F05F6F
:101070004FF0000A4348D0F800B05946424807F004
:101080008DFC02D2DFF800B106E059463F4807F078
:1010900085FB01D2DFF8F4B0584607F0BBF9804673
:1010A00000223B4B07F0CCF806463A4A3A4B06F092
:1010B00085FC044606F00AFE1FFA80FABAF5FF7FA7
:1010C00001DD4FF4FF7A3548008807F053FB0446F2
:1010D000334907F039FA83461A480088D0B91A48CC
:1010E00000884FF47A7190FBF1F7384607F02AFB3D
:1010F0000546504607F03EFB0746594607F082FB7F
:101100000646294607F0B2F9044607F0FBFA2549DE
:10111000088049E063E0000002E00008AC00002025
:1011200046000020C2000020C4000020AE000020C5
:10113000AB000020940000209A000020A2000020B4
:10114000B0000020BA000020B8000020B20000204B
:10115000B6000020B4000020C8000020CA00002013
:10116000CC000020C6000020000801404AD8124DE3
:10117000FB2109400094D1400088C3400C000020AE
:10118000CE0000201400002000007A440020AD446E
:1011900000408F4068226C787AA5D83FBC000020C0
:1011A00000401C46D8000020FE4800884FF47A71A9
:1011B00090FBF1F7384607F0C5FA0546504607F0B0
:1011C000D9FA0746594607F01DFB0646294607F09F
:1011D0004DF9044607F096FAF349088033E0F148E8
:1011E00000884FF47A7190FBF1F7384607F0AAFABD
:1011F0000546504607F0BEFA0746594607F002FB7F
:101200000646294607F006FC044607F07BFAE74944
:101210000880E44800884FF47A7190FBF1F7384673
:1012200007F090FA0546504607F0A4FA07465946DB
:1012300007F0E8FA0646294607F0ECFB044607F0FB
:1012400061FAD9490880BDE8F09F2DE9F04F8FB0D1
:1012500082464FF0000BD648008843F2C8218842EE
:1012600006DD0120D349087058460FB0BDE8F08F65
:10127000BAF1010F03D0BAF1020F7CD11DE04FF09B
:10128000010BCB480088C8498880C9480088CA49F2
:101290000880C7480188C948FFF71CFDC34800887B
:1012A000C149C880C1480088C5490880BF48018835
:1012B000C248801CFFF70EFD06E1BD480088BA4910
:1012C0004881BB480088BF490880B9480188BB48AD
:1012D0004430FFF7FFFCB5480088BB490880B3489D
:1012E0000088B1498881B1480188B448001DFFF7E2
:1012F000F1FCB548008806F02DFD0746B34AB44B13
:1013000006F078FD05460022B24B06F057FBCDE90A
:101310000601AD49098801FB01F006F004FD054610
:10132000AD4AAE4B06F066FD07460022AC4B06F018
:1013300045FBCDE90201A44909884943A24A128824
:1013400001FB02F006F0EFFC0546A64AA64B06F0AC
:1013500051FD07460022A54B06F030FBCDE9000108
:10136000DDE9022306F06EFACDE90401DDE906238A
:1013700006F066FF00E0A6E04FF066329C4BCDE938
:10138000080106F05FFA00229A4BCDE90A0106F047
:1013900059FACDE90C0106F023FA8146484607F0D8
:1013A000B1F99549088088480088854909888842AC
:1013B00012DD8548008882490988401A8F490988CA
:1013C00048430A2190FBF1F07B4909880D1A284611
:1013D00007F0B8F9814611E0794800887A49098810
:1013E000401A8649098848430A2190FBF1F0724966
:1013F00009884518284607F0A5F9814680480088E5
:1014000060B96A4800887F4909884843642190FB95
:10141000F1F07D490988081A84B20BE0634800881E
:10142000784909884843642190FBF1F0764909889E
:10143000084484B2484607F065F980B25C490988DF
:10144000884228DD5F490988081B07F07BF90646BA
:101450005C48008807F08EF90746494607F0CFFA46
:101460000546314607F070F8814663490988674AA6
:101470001288881A07F066F906466549484607F05B
:10148000C1F90746314607F05FF80546614907F0A4
:10149000B9F9814601E05846E7E6484607F032F9D7
:1014A0005D490880484607F02DF93F4908834846C2
:1014B00007F028F985B229464048801EFFF70AFC4C
:1014C0004FF0010B00E000BF00BF5846CDE62DE90C
:1014D000F04F8FB0FFF730FD3448008806F03AFC3B
:1014E00082463A4A3A4B06F085FC07460022394BC1
:1014F00006F064FACDE906012C49098801FB01F0E8
:1015000006F011FC8246344A344B06F073FC074661
:101510000022334B06F052FACDE902012349098833
:101520004943224A128801FB02F006F0FCFB074601
:101530002C4A2D4B06F05EFC824600222B4B06F017
:101540003DFACDE90001DDE9022306F07BF9CDE9A2
:101550000401DDE9062306F073FE4FF06632244BEA
:10156000CDE9080106F06EF90022224BCDE90A010F
:1015700006F068F9CDE90C0106F032F90E900B483F
:1015800000880F49098888424FDD084800880C49C7
:101590000988401A1949098848430A2190FBF1F04B
:1015A00005493BE0B800002046000020D80000209C
:1015B000CE000020DB000020B00000200AE0000880
:1015C000B2000020B4000020B600002054E3A59B28
:1015D000C440444000002440068195438B6CE93FA1
:1015E00000005940B81E85EB51B87EBF00408F40C7
:1015F00066D096400000E03FBE000020C200002000
:10160000CC000020CA000020C8000020C00000203C
:1016100000401C460000C842C400002009880F1A80
:10162000384607F08FF8044611E0FE480088FE496E
:101630000988401AFD49098848430A2190FBF1F0C6
:10164000FB4909884718384607F07CF80446F948F2
:10165000008860B9F4480088F74909884843642144
:1016600090FBF1F0F5490988081A86B20BE0EE48C4
:101670000088F14909884843642190FBF1F0EF4963
:101680000988084486B2204607F03CF880B2EC494D
:101690000988884209DA0020EA490880EA49088076
:1016A000EA4948800FB0BDE8F08FE5490988881BFA
:1016B00007F048F88046E248008807F05BF8824669
:1016C000214607F09CF90746414606F03DFF0446D7
:1016D000D5480088DE490988884227DDD24800883D
:1016E000DB490988401ADB49098800FB01F94846B3
:1016F00007F040F8D849089006F026FF099006F058
:1017000089FECDE90A0105F081FE07468846D348E7
:10171000008806F01FFB82463A46434606F06AFB05
:10172000CDE90C0106F05CF8054628E0C8480088C1
:10173000BD490988401AC749098800FB01F9484694
:1017400007F018F880F00040C349089006F0FCFE4E
:10175000099006F05FFE824605F058FE074688466F
:10176000BE48008806F0F6FA3A464346CDE90A013B
:1017700006F040FBCDE90C0106F032F8054628469C
:1017800006F0C0FFB1490883B549204607F03AF892
:101790008046294606F0D8FE0746B24907F032F8DF
:1017A0000446B148008806F0E5FF0746214606F0EA
:1017B0005DFE0446A348008840F63401884203DDFC
:1017C0000846A049088004E0204606F09BFF9D499A
:1017D00008809C48008806F0CDFF82460E9906F0EE
:1017E000B3FE8046A14907F00DF8074606F08AFFD0
:1017F000954908809348008806F0BCFF82460E9900
:1018000006F0A2FE8046994906F0FCFF074606F066
:1018100079FF8E49488000BF44E72DE9F04F8FB033
:101820004FF0000BDA469248007806F093FACDE9C3
:1018300008017D48008806F08DFA06468D4A8E4BD9
:1018400006F0D8FA044600228C4B06F0B7F8CDE932
:1018500002017549098801FB01F006F064FA0646A9
:10186000874A884B06F0C6FA04460022864B06F0EB
:10187000A5F8CDE90001DDE9022306F0E1FC834A89
:10188000834BCDE9040105F0DDFF0022814BCDE95A
:10189000060105F0D7FF8046DDE9082306F0AAFA25
:1018A0000022794BCDE90A0106F088F8CDE90C0158
:1018B00005F096FF8246504606F024FF80B261494B
:1018C0000988884208DA504606F01CFF5D490988FD
:1018D000081A1FFA80FB01E04FF0000B5248008805
:1018E00006F038FA6C4A6D4BCDE9060106F082FA33
:1018F00080466B4A6B4B05F0A5FF064632460B4609
:1019000069486A4906F05AF8694A6A4BCDE9080104
:1019100006F096FCCDE90A0105F078FD02460B467B
:10192000CDE90C010020644906F048F8044605F0B2
:1019300057FF8246584606F01DFF064651465F484F
:1019400007F068F807465E48008806F013FF8046F7
:10195000514607F05FF80546394606F0F5FD0446A6
:10196000314606F04FFF8246504606F0CBFE1FFA86
:1019700080FB58460FB0BDE8F08F10B50024FFF78C
:10198000A6FDFFF74AFF044640F63400844204DD1A
:101990004C4908802D49088103E04A4804802B48BF
:1019A000048110BD70B5054600240520464981F824
:1019B00001012648817C444880300155641C8038F0
:1019C00040788030C1B2404880300155641C0555D4
:1019D000641C803890F80101801EC1B23A48803002
:1019E000FFF782F80646320A2146641C36488030EA
:1019F00042540655803890F80111803001F032F8D9
:101A000070BD2DE9F04FB3B04FF0000A002500275C
:101A100000242D4890F80061324612A9FFF768F9BA
:101A200054E00000B2000020D8000020C2000020D6
:101A3000B0000020CC000020CA000020C800002018
:101A4000CE000020D2000020D00000204600002060
:101A5000B6000020C60000200050C347C40000208C
:101A600000401C460000C842C000002000007A442C
:101A7000AC0000201F85EB51B81E3D400000244003
:101A8000AE47E17A14AED73F0000594014AE47E1AB
:101A90007A828C400000E03F9A9999999999B93FD0
:101AA000E3A59BC4206C6D40560E2DB21D8FAF4038
:101AB00039B4C876BE1F284000408F4000407D44A6
:101AC000AE000020D40000201C0100209DF848003A
:101AD000FE490978884202D033B0BDE8F08FB01ECD
:101AE000C1B212A8FFF700F804464FEA142BE0B287
:101AF0003290B01E12A9085C584504D1701E095CD2
:101B00003298814202D00120FFF74CFF9DF84B0034
:101B1000202802DD0220FFF745FF9DF84900032839
:101B200002D006287ED165E09DF84D00052101EB2D
:101B30004000E74981F80101022000F024FEE3485B
:101B40000078E34981F880009DF84910E04880F86A
:101B500081109DF84D004006010EDD4880F882108E
:101B60000325002725E09DF84B103944D94A32F867
:101B70001100C11700EB1161C1F3072329466A1C4C
:101B8000D5B2D34A803253549DF84B103944D14AD0
:101B900032F81100C11700EB11610912A0EB01210D
:101BA000CBB229466A1CD5B2C94A80325354781C3C
:101BB000C7B29DF84D00B842D5DC022000F0E3FD2D
:101BC000C34890F80101801EC1B2C1488030FEF7C1
:101BD0008BFF0446220A2846691CCDB2BC498031DD
:101BE0000A5408464455803890F80111803000F0BE
:101BF00039FFF5E3B64880F80161002506E012A838
:101C0000415DB34880304155681CC5B2B542F6DB32
:101C10009DF84D109DF84C0001EB002084B29DF81A
:101C20004B0000E0DBE3C01F19287DD2DFE810F095
:101C300019007C001B02380257027C0002037C0062
:101C400072028A021D037C007C004E037C007C0033
:101C50007C0074037C007C007C009B02B602CF02F7
:101C6000E7029DF84D000A282ED004DC012807D099
:101C700002287DD116E068287BD08028F9D1CBE1FD
:101C80000120FFF7E2FA8246BAF1000F06D0904831
:101C900090F80111803000F0E5FE02E00320FFF72C
:101CA00081FEDEE10220FFF7D0FA8246BAF1000F92
:101CB00006D0874890F80111803000F0D3FE02E092
:101CC0000320FFF76FFECCE10020834908708149B3
:101CD000888200218148FEF7FDFF40F2F5308049FF
:101CE00008807C49488301467C48801CFEF7F2FF4F
:101CF00029207C4908807749C88229217748001D1E
:101D0000FEF7E8FF42F26020774908807149888039
:101D1000014672480830FEF7DDFFFA20734908805B
:101D20006C49C880FA2100E056E36C480A30FEF79F
:101D3000D1FF40F6FD306E49088066498883014630
:101D400066484C30FEF7C6FFFA206A4908806149B0
:101D50008881FA2161480C30FEF7BCFF4FF4AF6078
:101D6000654908805B490887634801885B4801E052
:101D700076E16DE13E30FEF7ADFF0A205F49088055
:101D8000544948875D48018854484030FEF7A2FF17
:101D900000205B4908804F498887594801884F488F
:101DA0004230FEF797FFA520564908804949C88769
:101DB0005448018849484430FEF78CFF4D4800885C
:101DC00005F0C8FF504A514BCDE9040106F012F866
:101DD00000224F4BCDE9060105F0F0FDCDE90A01E7
:101DE0004449098801FB01F005F09DFF494A4A4B2F
:101DF000CDE9000105F0FEFF0022484BCDE90201CC
:101E000005F0DCFDCDE906013A4909884943394A24
:101E1000128801FB02F005F086FF414A414BCDE9F3
:101E2000000105F0E7FF00223F4BCDE9020105F07C
:101E3000C5FDCDE90401DDE9062305F003FDCDE98B
:101E40000801DDE90A2306F0FBF94FF06632374B53
:101E5000CDE90C0105F0F6FC0022354BCDE90E0171
:101E600005F0F0FCCDE9100105F0BAFC81464846CA
:101E700006F048FC2F4908801E4800881B49098845
:101E8000884212DD1B48008818490988401A154904
:101E9000098848430A2190FBF1F013490988081A80
:101EA000119006F04FFC814649E010480188114826
:101EB0000088081A0B49098848430A2190FBF1F071
:101EC000094909880844119036E00000AB00002061
:101ED0001C01002046000020AC00002002E00008A9
:101EE000AE000020C2000020B0000020B2000020A0
:101EF000CE000020B6000020C8000020CA0000204C
:101F0000CC000020C600002054E3A59BC440444000
:101F100000002440068195438B6CE93F0000594046
:101F2000B81E85EB51B87EBF00408F4066D096400A
:101F30000000E03FBE00002006F004FC8146F748A8
:101F4000008868B9F6480088F64909884843642142
:101F500090FBF1F0F4490988081A1FFA80F80CE0A8
:101F6000EF480088EF4909884843642190FBF1F06D
:101F7000ED49098808441FFA80F8484606F0C2FB7C
:101F800080B2EA49098888422CDDE848008840454B
:101F900028DDE6490988A1EB080006F0D3FB119083
:101FA000E248008806F0E6FB49460F9006F027FD60
:101FB0001090119906F0C8FA8146DD490988DD4A7A
:101FC0001288881A06F0BEFBDB491090484606F0DE
:101FD00019FC0F90109906F0B7FAD849119006F045
:101FE00011FC8146484606F08DFBD54908804846DD
:101FF00006F088FBD3490883484606F083FB80B28D
:1020000001461190D048FEF765FED04890F80111C6
:10201000803000F027FD24E0CC4890F8011180309A
:1020200000F020FD0A2000F0AEFB012080F31388B1
:1020300000BF00BFC648006800F4E060C54908431F
:10204000001DC3490860BFF3408F00BF00BFFEE71B
:102050000F21C1A000F006FDC34800F0C1FB00BF86
:1020600000BF00BFB9E1012C01DB7F2C03DD0120A3
:10207000BE49087003E09DF84D00BC490870BB489C
:102080000078B0494882B9480178AF480838FEF76F
:1020900021FEAE4890F80111803000F0E3FC9CE195
:1020A000B4F5C87F07DD2820B14908704FF4C87027
:1020B000A449888206E00A2094FBF0F0AC4908703D
:1020C000A0488482AA4801789F48801FFEF702FE3C
:1020D0009E4890F80111803000F0C4FC7DE1B4F519
:1020E0007A7F06DD4FF47A70A24908809549C8824C
:1020F00003E0A04804809348C4829E480188924827
:10210000801EFEF7E7FD914890F80111803000F045
:10211000A9FC62E124B9984804808A48C48304E099
:102120000120954908808749C883934801888648DB
:102130004030FEF7CFFD854890F80111803000F067
:1021400091FC4AE18D4804807E4804848B480188D4
:102150007D484230FEF7BEFD7C4890F8011180308A
:1021600000F080FC39E1B4F5FA6F06DD4FF4FA6057
:102170006D4908807349088703E06B480480714803
:1021800004876948018870483830FEF7A3FD6F481E
:1021900090F80111803000F065FC1EE1C82C05DDCF
:1021A000C820604908806749488703E05D4804808B
:1021B000644844875B48018863483A30FEF78AFDEB
:1021C000624890F80111803000F04CFC05E124B920
:1021D000524804805B48848704E001204F4908800E
:1021E000584988874D48018857483C30FEF772FDB2
:1021F000564890F80111803000F034FCEDE0B4F561
:102200007A7F06DD4FF47A705D4908804D49C887B2
:1022100003E05B4804804B48C487594801884A481A
:102220003E30FEF757FD494890F80111803000F02C
:1022300019FCD2E040F2F530844201DD044604E0AE
:10224000B4F5077F01DA4FF407744E4804803D4827
:10225000448321463C48001FFEF73CFD3B4890F874
:102260000111803000F0FEFBB7E09DF84D109DF8A5
:102270004C0001EB0020444908809DF84E004FF6C9
:10228000FF7101EA0024404880783F4948800846B1
:10229000408820434880002509E03B4830F815106D
:1022A00005F11100274A22F81010681CC5B2032D51
:1022B000F3DB0322344924480830FEF79CFC234812
:1022C00090F80111803000F0CDFB86E0002514E08D
:1022D0006800401D12A9095C6800001D12AA105C6C
:1022E00001EB002084B2294820F8154005F11400C4
:1022F000144921F81040681CC5B2042DE8DB042203
:10230000224911481830FEF776FC104890F8011168
:10231000803000F0A7FB60E000254EE0CC000020FC
:10232000D8000020CA000020C8000020CE000020F5
:10233000BE000020C000002000401C460000C84233
:10234000C40000204600002008E000081C01002016
:102350000CED00E00000FA050A0D5570646174652B
:102360002066696C6521000000000608AB000020B3
:10237000AC000020C2000020BA000020B8000020FD
:10238000C6000020AE000020940000209A0000202B
:102390006800401D12A9095C6800001D12AA105CAB
:1023A00001EB002084B2104820F8154005F1180018
:1023B0000E4921F81040681CC5B2042DE8DB042248
:1023C00009490B48FEF717FC0A4890F801118030C4
:1023D00000F048FB01E003E000BF00BF00E000BFE9
:1023E00000BF00BFFFF778BBA2000020460000201E
:1023F00030E000081C01002008B50121102001F088
:1024000025FE4020ADF8000002208DF802001020CB
:102410008DF803006946334801F03CFB0121102090
:1024200001F014FE2020ADF8000002208DF802001B
:1024300010208DF8030069462A4801F02BFB01218A
:10244000082001F003FE0120ADF8000002208DF805
:10245000020004208DF803006946234801F01AFBAE
:1024600008BD2DE9F04700251EE040211D4801F080
:10247000C0FB20211B4801F0BCFB012000F05FF9EC
:102480004FF6FF7000EA44040121174801F095FB64
:1024900008B144F001042021124801F0A8FB0120FA
:1024A00000F04DF9681C85B2102DDEDB40210D488F
:1024B00001F09DFB204606F05DF981460B4906F0D0
:1024C0009EFA0746204606F055F98146084906F06F
:1024D00099F98046394606F037F806463046BDE899
:1024E000F087000000100140000C014000FF7F4712
:1024F00000409C4608B50121084601F0A7FD0121D6
:10250000144801F098FB0121042001F09FFD0121F6
:10251000082001F09BFD0121102001F097FD012111
:10252000202001F093FD0121042001F08FFD0820FF
:10253000ADF8000010208DF8030002208DF8020095
:102540006946054801F0A6FA0821034801F04FFB4F
:1025500008BD000000023000000801403EB50546FD
:102560000C460121022001F07EFDADF80450ADF8CB
:1025700000400020ADF80600ADF8020069465B4857
:1025800002F022F801221102584802F094FB0121C6
:10259000564802F075FB3EBD2DE9F04F85B04FF077
:1025A000000ADFF84CB10020049000BF23E0504641
:1025B00006F0E0F85946009006F024F9019005F085
:1025C00029FFCDE9020105F063F880460022494B5E
:1025D00005F038F906460022474B05F00BFC04468F
:1025E00005F0FEF80490049806F08CF8434921F8B1
:1025F0001A000AF1010ABAF1320FD8D305B0BDE8CA
:10260000F08F00B591B0FFF7C7FF0121480701F037
:102610002AFD0121084601F00CFD0121042001F0F2
:1026200015FD1020ADF840008DF8430003208DF813
:10263000420010A9324801F02DFA00200C900D90B4
:102640000E9002200F900CA9002000F000FD012147
:10265000002000F019FD0021084600F076FD294811
:1026600000F0B0FD2848019024480290102003900B
:1026700032200490002005908020069040000790B2
:102680008000089020200990C0010A9000200B9043
:1026900001A91C4800F038FE47210420FFF75EFF27
:1026A0000121184800F05BFE11B000BD10B5FFF726
:1026B000A8FF10BD10B50021084600F0E5FC10BDD4
:1026C00070B50446C4EB043040F6E44190FBF1F6EB
:1026D000304606F037F80546284606F013F886B26D
:1026E0003146002000F031FD70BD000000040040C4
:1026F000FCAD003E0000F03F00FC9F407043002016
:1027000000080140300002400874004010B56FF02E
:10271000040000F04AFA2E4800682E49B0FBF1F0A0
:102720002D4908700846007800EB4001C1EBC0104D
:102730004FF6FF7101EAC0002849088010BD01462C
:10274000254A12784A434FF0E0235A6100229A61E9
:102750001A46126942F001021A6100BF4FF0E022EE
:10276000106900F001021AB100F48032002AF5D09D
:102770004FF0E022126922F001024FF0E0231A61CB
:1027800000229A6170470146144A12884A434FF06A
:10279000E0235A6100229A611A46126942F001024E
:1027A0001A6100BF4FF0E022106900F001021AB177
:1027B00000F48032002AF5D04FF0E022126922F0B6
:1027C00001024FF0E0231A6100229A617047000075
:1027D0001800002000127A00E4000020E60000202B
:1027E00010B50446206814490840B0F1005F21D1BB
:1027F0000F2112A000F036F900211C2001F026FC68
:102800000021124802F03CFA0021114801F04DFD70
:1028100000214FF0804002F033FA00210D4802F011
:10282000DCFD60680C4908602068FDF7CFFC0A48B1
:102830000068804710BD00000000FE2F0A0D426FA7
:102840006F746C6F616465722100000000040040C9
:102850000030014000380140E800002000BF704710
:1028600010B586B00446012144F2040001F0EEFBED
:102870004FF40070ADF8140003208DF816001820F6
:102880008DF8170005A9884801F004F94FF480601D
:10289000ADF8140003208DF8160004208DF8170001
:1028A00005A9814801F0F6F84FF48070ADF81400E6
:1028B00010208DF8170003208DF8160005A97A481E
:1028C00001F0E8F84FF48071774801F092F9252083
:1028D0008DF8000003208DF8010000208DF8020023
:1028E00001208DF80300684600F015F901940020DE
:1028F000ADF80800ADF80A00ADF80C00ADF8100016
:102900000C20ADF80E0001A9684802F0DAFC0122A3
:1029100040F22551654802F06CFD0121634802F048
:102920005CFD06B010BD2DE9F04100240025002615
:1029300040F225515D4802F041FE01286FD15B480D
:1029400002F0BCFDC4B25A480078B8B9032C15D1C6
:1029500058480078002811DD56480078401E564936
:10296000085C56490978884208D154480078524991
:10297000087001204F4908704D4908704C48007894
:10298000B8B9062C15D14B480078002811DD49480C
:102990000078401E4849085C48490978884208D1B7
:1029A000464800784449087001204249087040496F
:1029B00008704048007800F07F053F484455681C87
:1029C0003C49087008460078022823DD0846007854
:1029D000801EC1B23848FEF787F8064606F0FF08A9
:1029E000370A34480078801E3349085CB8420CD15D
:1029F00030480078401E085C404506D1012030492F
:102A0000087000202A49087004E000202C49087052
:102A10002749087040F22551244802F0F9FDBDE82D
:102A2000F08130B50146002200200CE0254B1B78D8
:102A300003F07F02531C234C23701F4B9D5C034605
:102A4000441CE0B2CD541B4B1B781E4C2478A3428F
:102A5000ECD10023174C23701A4C23701A4B83F8C7
:102A6000000130BD70B505460E46104800884FF491
:102A700080710D4801F0BBF800240CE0295D0B4883
:102A800002F018FD00BF4021084802F081FD012836
:102A9000F9D1601CC4B2B442F0DB4FF4807102483B
:102AA00001F0A7F8204670BD000801400038014041
:102AB000F2000020F0000020D4430020AB000020F2
:102AC00000000020F10000201C0100200948804780
:102AD00009480047FEE7FEE7FEE7FEE7FEE7FEE700
:102AE000FEE7FEE7FEE7FEE704480549054A064B18
:102AF000704700004705000831010008B844002075
:102B0000B84A0020B8460020B846002031490143A9
:102B1000314A1160704770B5002100230F22C4783C
:102B200004B32D4C246804F4E064C4F5E064210A85
:102B3000C1F10403CA40447804FA03F184781440D4
:102B400021430901254C0678A155047804F01F059E
:102B50000124AC4005786D11AD0005F1E025C5F804
:102B6000004109E0047804F01F050124AC401C4D2D
:102B70000678761145F8264070BD1A4A0A4002438D
:102B8000154B1B1F1A60704739B1134A121D12688A
:102B90000243114B1B1D1A6006E00F4A121D1268FA
:102BA00082430D4B1B1D1A607047042808D14FF05B
:102BB000E021096941F004014FF0E022116107E0D2
:102BC0004FF0E021096921F004014FF0E02211618A
:102BD000704700000000FA050CED00E000E400E0A2
:102BE00080E100E080FFFF1F10B50446FA488442F0
:102BF00008D10121401501F043FA0021601501F0D0
:102C00003FFA17E0F548844208D10121001501F090
:102C100037FA0021201501F033FA0BE0F048844226
:102C200008D10121C80301F02BFA00214FF4004024
:102C300001F026FA10BD30B502460020002350688E
:102C4000E84C20400D790C6844EA0524204350608C
:102C50009068E54C2040D1E902542C434D7944EA78
:102C6000450420439060D06A20F470000C7C641E00
:102C7000E4B2234340EA0350D06230BD002101603A
:102C8000017141718160C16001210174704721B1FE
:102C9000826842F00102826003E0826822F0010251
:102CA0008260704721B1826842F48072826003E0E2
:102CB000826822F480728260704710B50023CBB224
:102CC0001AB144681C43446002E044689C43446079
:102CD00010BD816841F00801816070470146002005
:102CE0008A6802F008020AB1012000E00020704763
:102CF000816841F0040181607047014600208A68C4
:102D000002F004020AB1012000E00020704721B166
:102D1000826842F4A002826003E0826822F4A0028A
:102D200082607047014600208A6802F480020AB17E
:102D3000012000E00020704710B50A460021002362
:102D4000416821F46041531E41EA4331416010BDA6
:102D500021B1426842F40062426003E0426822F41A
:102D6000006242607047F0B504460D460020002125
:102D7000092D11DDE068A5F10A0606EB46070726D6
:102D800006FA07F18843A5F10A0606EB460603FAA0
:102D900006F10843E0600CE0206905EB45070726D3
:102DA00006FA07F1884305EB450603FA06F10843E6
:102DB0002061072A0FDA606B561E06EB86071F2676
:102DC00006FA07F18843561E06EB860605FA06F159
:102DD0000843606322E00D2A0FDA206BD61F06EB52
:102DE00086071F2606FA07F18843D61F06EB8606DC
:102DF00005FA06F10843206310E0E06AA2F10D062F
:102E000006EB86071F2606FA07F18843A2F10D0696
:102E100006EB860605FA06F10843E062F0BD21B133
:102E2000826842F48012826003E0826822F4801299
:102E3000826070470146C86C80B2704766484C306B
:102E40000068704721B1426842F48062426003E04A
:102E5000426822F480624260704721B1426842F4C5
:102E60008052426003E0426822F480524260704720
:102E70000A460021816821F4E041114381607047D6
:102E800021B1826842F40042826003E0826822F449
:102E900000428260704721B1826842F4021282606F
:102EA00003E0826822F4021282607047014600202B
:102EB0008A6802F400120AB1012000E00020704785
:102EC000F0B504461546002000220026092911DD30
:102ED000E068A1F10A0707EB470C072707FA0CF295
:102EE0009043A1F10A0707EB470703FA07F21043E3
:102EF000E0600CE0206901EB410C072707FA0CF2B7
:102F0000904301EB410703FA07F210432061A06BE5
:102F1000C0F30156EF1C06F1010CA7EB0C0707EB01
:102F2000870C1F2707FA0CF29043EF1C06F1010CE7
:102F3000A7EB0C0707EB870701FA07F21043A06322
:102F4000F0BD10B50A4600210023816B21F4401129
:102F5000531E41EA0351816310BD08B5002300935D
:102F60000090009B0B440093009B1A6008BD08B5BD
:102F7000024600200090009201F12800009B1844B6
:102F800000900098006880B208BD0A4600214168A0
:102F9000164B19401143416070474162826270478D
:102FA0000A460021416821F01F011143416070472A
:102FB00040B109490831096841F40001064A083264
:102FC000116007E004490831096821F40001024A50
:102FD00008321160704700000024014000280140C1
:102FE000003C0140FFFEF0FFFDF7F1FFFFFD3FFF5A
:102FF0000246002013680B400BB1012000E00020C6
:103000007047CA430260704770B502460020002333
:1030100000240B125568CEB205EA060415681D405F
:1030200015B10CB1012000E0002070BD00220A1291
:10303000D34303607047000010B50121480701F039
:103040002CF800214FF0005001F027F810BD30B5EA
:10305000002200235A4C226840F6FE748440A243AA
:10306000D1E900452C438D682C43CD6844EA050323
:1030700003FA00F42243524C226030BD002101606B
:1030800041608160C160704739B14D4A12680123C7
:1030900083401A434A4B1A6006E0494A12680123EA
:1030A00083409A43464B1A60704741B1444A1268C4
:1030B0004FF4805383401A43414B1A6007E0404A63
:1030C00012684FF4805383409A433D4B1A60704717
:1030D00010B551B13A4A121D126804090123A340E8
:1030E0001A43374B1B1D1A6009E0354A121D12683E
:1030F00004090123A3409A43314B1B1D1A6010BDE4
:1031000040B12F49091D096841F003012C4A121DE5
:10311000116007E02A49091D096821F00301284AC6
:10312000121D1160704710B53AB1254B1B6801FAAA
:1031300000F42343224C236006E0214B1B6801FA74
:1031400000F4A3431E4C236010BD08B5002200927A
:103150001B4A009200F10802009B1A440092009A58
:10316000116008BD08B500220092154A009200F1D6
:103170001402009B1A440092009A116008BD30B5F9
:1031800000240023082802D142EA012401E042EA97
:1031900001440B4B00F120052B441C6030BD08B5E9
:1031A000014600200090064800902C2000EB910082
:1031B000009A104400900098006880B208BD00009A
:1031C0000074004001684FF6FE721140016000215A
:1031D000016041608160C1608D49884208D18C499D
:1031E0000839496841F00F01894A083A51608AE07C
:1031F00087491431884208D185490839496841F026
:10320000F001834A083A51607DE0814928318842C3
:1032100008D17F490839496841F470617C4A083A0D
:10322000516070E07A493C31884208D178490839C8
:10323000496841F47041764A083A516063E0744944
:103240005031884208D172490839496841F47021E7
:103250006F4A083A516056E06D496431884208D19E
:103260006B490839496841F47001694A083A51606C
:1032700049E067497831884208D165490839496889
:1032800041F07061624A083A51603CE0614988420D
:1032900006D1011F096841F00F01021F116032E0E1
:1032A0005C491431884208D15A49091F096841F024
:1032B000F001584A121F116025E056492831884212
:1032C00008D15449091F096841F47061514A121F1D
:1032D000116018E04F493C31884208D14D49091F1F
:1032E000096841F470414B4A121F11600BE04949D3
:1032F0005031884207D14749091F096841F47021BC
:10330000444A121F1160704710B50022026847F648
:10331000F0739A430C6A8B6823430C6923434C690E
:1033200023438C692343CC6923434C6A23438C6A2F
:1033300023431A430260CB6843600B6883604B6889
:10334000C36010BD0021016041608160C160016106
:1033500041618161C161016241628162704721B155
:10336000026842F00102026004E002684FF6FE7358
:103370001A40026070471AB103680B43036002E011
:1033800003688B430360704741607047014648689B
:1033900080B2704701460020002201F080531BB12B
:1033A0001C4B083B1A6802E0194B083B1A6802EAFA
:1033B00001030BB1012000E00020704700F08051B4
:1033C00019B11449091F086002E011490839486021
:1033D000704701460020002201F080531BB10D4BC5
:1033E000083B1A6802E00A4B083B1A6802EA01032C
:1033F0000BB1012000E00020704700F0805119B1AE
:103400000449091F086002E0014908394860704713
:10341000080002400804024001460020FE4A1068ED
:1034200000F03800084310607047FB49096821F03C
:103430000801F94A1160114609680143116070479B
:10344000F549096821F01001F34A11601146096835
:10345000014311607047F148EF494860F048486007
:103460007047EE48EC494860ED4848607047EA48CC
:10347000006940F08000E84908617047E64800694B
:1034800040F08000E449086170470420E249C968BF
:1034900001F0010109B101200EE0DF49C96801F026
:1034A000040109B1022007E0DB49C96801F01001FD
:1034B00009B1032000E00420704700B50246042350
:1034C000FFF7E3FF034603E0FFF7DFFF0346521E6B
:1034D000012B01D1002AF7D102B90523184600BDFE
:1034E00030B5044604254FF43020FFF7E6FF0546CB
:1034F000042D17D1C848006940F00200C649086190
:1035000008464461006940F0400008614FF43020F3
:10351000FFF7D3FF0546C048006941F6FD7108403A
:10352000BD490861284630BD10B504244FF4302051
:10353000FFF7C3FF0446042C16D1B748006940F0DA
:103540000400B54908610846006940F04000086180
:103550004FF43020FFF7B1FF0446AF48006941F651
:10356000FB710840AC490861204610BD00B5024619
:103570000423FFF78AFF034603E0FFF786FF0346B5
:10358000521E012B01D1002AF7D102B9052318469A
:1035900000BD10B504244FF43020FFF7E7FF0446C8
:1035A000042C16D19C48006940F004009A49086137
:1035B0000846006940F0400008614FF43020FFF7F2
:1035C000D5FF04469448006941F6FB7108409249D2
:1035D0000861204610BD00208F49C96901F0020131
:1035E00009B1012000E00020704730B5A525042472
:1035F000FFF7F1FF00B100254FF43020FFF75DFF2A
:103600000446042C3AD18548834988608448886000
:103610000846006940F0200008610846006940F053
:10362000400008614FF43020FFF747FF0446042CA8
:103630001BD17948006941F6DF710840764908617D
:103640000846006940F01000086176480580E002F5
:10365000FFF733FF0446052C10D06F48006941F690
:10366000EF7108406C49086108E0052C06D06A48F3
:10367000006941F6EF71084067490861204630BD96
:1036800078B506460C46042500200090E802FFF7B6
:1036900014FF0546042D24D15F48006940F0010065
:1036A0005D4908613480E802FFF707FF0546042DF5
:1036B00010D1B01C0090200C00990880E802FFF7A0
:1036C000FCFE05465448006941F6FE710840524927
:1036D000086106E05048006941F6FE7108404E4915
:1036E0000861284678BD70B504460D460426F002F0
:1036F000FFF7E3FE0646042E11D14748006940F06B
:103700000100454908612580F002FFF7D6FE064614
:103710004148006941F6FE7108403F490861304662
:1037200070BD70B505460E460424E002FFF7C5FEE5
:103730000446042C17D139483749886038488860D6
:103740000846006940F0100008612E80E002FFF793
:10375000B4FE0446052C06D02F48006941F6EF71EF
:1037600008402D490861204670BD2DE9F04304460C
:103770004FF6FF763746B046B1460425E443E6B23D
:10378000C4F30727C4F307484FEA1469E802FFF7B8
:1037900094FE0546042D49D120481F4988602048E1
:1037A00088600846006940F010000861FF2E06D0CE
:1037B0001C4808300680E802FFF77FFE0546042D0E
:1037C00008D1FF2F06D017480A300780E802FFF71C
:1037D00074FE0546042D0AD1B8F1FF0F07D0114839
:1037E0000C30A0F80080E802FFF767FE0546042DC4
:1037F0000AD1B9F1FF0F07D00A480E30A0F80090A7
:10380000E802FFF75AFE0546052D0FD00248006971
:1038100041F6EF71084007E00020024023016745B0
:10382000AB89EFCD00F8FF1F664908612846BDE867
:10383000F08330B5054604244FF43020FFF73DFEF9
:103840000446042C41D160485E4988605F48886026
:103850000846006940F0200008610846006940F011
:10386000400008614FF43020FFF727FE0446042C87
:1038700022D15448006941F6DF710840514908617E
:103880000846006940F0100008611DB10020504951
:10389000088002E0A5204E4908804FF43020FFF751
:1038A0000CFE0446052C10D04648006941F6EF7125
:1038B00008404449086108E0052C06D041480069E9
:1038C00041F6DF7108403F490861204630BDF0B540
:1038D00005460E46174604243B483A4988603B4853
:1038E0008860E002FFF7E9FD0446042C19D1354851
:1038F000006940F010003349086147F0F800304398
:1039000028433349891C0880E002FFF7D6FD0446AE
:10391000052C06D02B48006941F6EF710840294973
:1039200008612046F0BD2748C069800870472548D7
:10393000006A704700202349096801F0200109B19D
:10394000012000E00020704729B11E4A126902439D
:103950001C4B1A6104E01B4A12698243194B1A611D
:10396000704701460020012908D1164AD26902F0A9
:1039700001020AB1012008E0002006E0114AD268E5
:103980000A400AB1012000E0002070470D49C860DC
:10399000704704200B49C96801F0010109B10120F9
:1039A0000EE00849C96801F0040109B1022007E0EE
:1039B0000449C96801F0100109B1032000E00420A6
:1039C000704700000020024023016745AB89EFCD1E
:1039D00000F8FF1F10B50446CC48844208D10121ED
:1039E000042000F04DFB0021042000F049FB46E0DC
:1039F000C748844208D10121082000F041FB002182
:103A0000082000F03DFB3AE0C248844208D1012181
:103A1000102000F035FB0021102000F031FB2EE0DB
:103A2000BD48844208D10121202000F029FB00215B
:103A3000202000F025FB22E0B848844208D1012173
:103A4000402000F01DFB0021402000F019FB16E093
:103A5000B348844208D10121802000F011FB0021ED
:103A6000802000F00DFB0AE0AE48844207D101211E
:103A7000801500F005FB0021A01500F001FB10BD32
:103A800010B50121084600F0FBFA0021012000F0EA
:103A9000F7FA10BD2DE9F04102460025002600206E
:103AA00000230024002791F803C00CF00F0591F8C3
:103AB00003C00CF0100CBCF1000F03D091F802C051
:103AC0004CEA050591F800C0BCF1000F31D0146834
:103AD00000202BE04FF0010C0CFA00F3B1F800C00D
:103AE0000CEA03069E4220D183004FF00F0C0CFA23
:103AF00003F7BC4305FA03FC4CEA040491F803C045
:103B0000BCF1280F06D14FF0010C0CFA00FCC2F8F2
:103B100014C00AE091F803C0BCF1480F05D14FF082
:103B2000010C0CFA00FCC2F810C0401C0828D1D3CC
:103B30001460B1F800C0BCF1FF0F34DD5468002000
:103B40002EE000F1080C4FF0010808FA0CF3B1F870
:103B500000C00CEA03069E4221D183004FF00F0CF7
:103B60000CFA03F7BC4305FA03FC4CEA040491F891
:103B700003C0BCF1280F05D100F1080C08FA0CF8BD
:103B8000C2F8148091F803C0BCF1480F07D100F1CE
:103B9000080C4FF0010808FA0CF8C2F81080401C1D
:103BA0000828CED35460BDE8F0814FF6FF71018044
:103BB000022181700421C170704702460020936881
:103BC0000B400BB1012000E00020704701468868DF
:103BD00080B2704702460020D3680B400BB1012031
:103BE00000E0002070470146C86880B2704701615C
:103BF0007047416170470AB1016100E0416170475F
:103C0000C16070474FF480320A43826181618261F2
:103C100082698269704702460020434B18684FF65C
:103C20008073184040EA021008433F4B1860704709
:103C30003E49C8617047F0B50A46002300240021C0
:103C4000002500F00046B6F1004F02D1364EF16972
:103C500001E0354E7168C0F3034583B200F44016AD
:103C6000B6F5401F08D121F070612F4E766826F01E
:103C700070662D4F7E6012E000F48016B6F5801F4E
:103C800006D1032606FA05F4A14341F0706106E06F
:103C9000460D360103FA06F6B14341F0706122B1D8
:103CA000460D360103FA06F6314300F00046B6F140
:103CB000004F02D11C4EF16101E01B4E7160F0BD5E
:103CC00030B500228B071C0F0F2303FA04F2164BAA
:103CD00008338C1053F824309343134C08348D1060
:103CE00044F8253023468C1053F824308C07240FD9
:103CF00000FA04F423430C4C08348D1044F82530AA
:103D000030BD0A49DC3108607047000000080140FE
:103D1000000C014000100140001401400018014057
:103D2000001C014000200140000001400000204232
:103D30000E49086070470D49486070470B4988601C
:103D400070474AF6AA200949086070474CF6CC40F3
:103D500006490860704701460020044AD2680A40BC
:103D60000AB1012000E00020704700000030004050
:103D7000DF48006840F00100DD49086008464068FF
:103D8000DC490840DA49486008460068DA490840DA
:103D9000D74908600846006820F48020086008467B
:103DA000406820F4FE0048604FF41F0088607047B0
:103DB000CF49096821F48031CD4A11601146096864
:103DC00021F480211160B0F5803F03D0B0F5802F41
:103DD0000ED106E0C649096841F48031C44A116039
:103DE00007E0C349096841F4A021C14A116000E01D
:103DF00000BF00BF704710B501460022002300201D
:103E00004A11012A02D1BA4C236806E0022A02D1E3
:103E1000B74C236A01E0B64C636A01F01F0201242B
:103E200094401C400CB1012000E0002010BD38B5CA
:103E3000002000900024002500BF3120FFF7DBFFA9
:103E400005460098401C00900098B0F5A06F01D086
:103E5000002DF2D03120FFF7CEFF08B1012400E0A1
:103E60000024204638BD01460020A14A106820F0F9
:103E7000F80040EAC10010607047A0490860704730
:103E8000024600209A4B586820F47C1042EA010355
:103E90001843974B58607047984908667047014629
:103EA0000020934A506820F0030008435060704798
:103EB0008F48406800F00C007047014600208C4A93
:103EC000506820F0F0000843506070470146002021
:103ED000874A506820F4E06008435060704701460C
:103EE0000020834A506820F4605040EAC1005060CE
:103EF000704729B17E4A527A02437D4B5A7204E0E0
:103F00007B4A527A82437A4B5A7270477B49D83146
:103F10000860704701460020754A506820F4404010
:103F20000843506070470021714A20321170704A76
:103F300082F82010012802D004280AD104E00121CF
:103F40006B4A2032117005E00521694A2032117058
:103F500000E000BF00BF70476949086070476449CE
:103F6000096A0143624A1162704765494439086031
:103F7000704730B500210022002400235C4D6D689D
:103F800005F00C0121B1042905D0082923D105E051
:103F90005C4D056022E05B4D05601FE0544D6D688F
:103FA00005F47012524D6D6805F48034022505EB5E
:103FB00092421CB9544D554305600BE04C4D6D6861
:103FC00005F400351DB1504D5543056002E04D4DDF
:103FD0005543056002E04B4D056000BF00BF444DF6
:103FE0006D6805F0F0010909484D6B5C0568DD401E
:103FF00045603F4D6D6805F4E061090A434D6B5C17
:104000004568DD4085603A4D6D6805F46051C90A28
:104010003E4D6B5C4568DD40C560354D6D6805F40F
:104020004041890B3A4D6B5CC568B5FBF3F5056102
:1040300030BD29B12E4A526902432D4B5A6104E02A
:104040002B4A526982432A4B5A61704729B1284A48
:1040500092690243264B9A6104E0254A92698243A1
:10406000234B9A61704729B1214AD2690243204B00
:10407000DA6104E01E4AD26982431D4BDA6170475F
:1040800029B11B4AD2680243194BDA6004E0184A8E
:10409000D2688243164BDA60704729B1144A12691C
:1040A0000243134B1A6104E0114A12698243104B18
:1040B0001A61704712494039086070470F49C86457
:1040C00070470B49C87170470948406A40F08070DA
:1040D00007494862704701460020054A92680A4035
:1040E0000AB1012000E00020704701498872704742
:1040F000001002400000FFF8FFFFF6FE0000424201
:104100008004424200127A0000093D00F3000020C2
:104110000301002010B50446BE48844208D10121A5
:104120008014FFF7ADFF0021A014FFF7A9FF16E0F0
:10413000B948844208D101210014FFF7AEFF0021E5
:104140002014FFF7AAFF0AE0B448844207D10121F6
:10415000C013FFF7A2FF0021E013FFF79EFF10BD81
:1041600010B50022028802F441520B884C88234388
:104170008C882343CC8823430C8923434C892343D5
:104180008C892343CC8923431A430280838B4FF2CB
:10419000FF74234083830B8A038210BD2DE9F04F07
:1041A00085B005460C464FF0000902274FF0000885
:1041B0004FF0010B0026B246A88B4FF24001084099
:1041C000A88302202884B5F81C90A068022801D199
:1041D00000BF38E0A08810B94FF0010B01E04FF0AC
:1041E000020B8D48854200D100E000BF6846FFF712
:1041F000C0FEDDF800A0E088B0F5007F0AD14FEAEC
:104200001A2000EB80004000A168B0FBF1F0401DD7
:1042100086B20BE04FEA4B10BAFBF0F000EB8000E7
:104220004000A168B0FBF1F0401D86B20A20B6FB49
:10423000F0F606F00108A6EB0800C0F34F074FF6B2
:10424000FF7000EA0828022F01DBFF2F02DD0227A2
:104250004FF00008E08840EA080038432884A0882E
:10426000A1890843618808432188084340F400601D
:1042700040EA0909A5F81C9005B0BDE8F08F0021BF
:10428000018041808180C180018141818181C18122
:104290000721018270470021018041808180C18017
:1042A0000221816000218181704721B1028842F0A2
:1042B0004002028004E002884FF6BF731A40028079
:1042C000704721B1828B42F48062828304E0828B4A
:1042D0004FF6FF331A408283704730B50024002325
:1042E0000C110125A540ABB21AB185881D4385800C
:1042F00002E085889D43858030BD1AB183880B43D9
:10430000838002E083888B4383807047818170477C
:104310000146888970474FF6FF62914204D00288B7
:1043200042F48072028004E002884FF6FF631A4074
:104330000280704721B1828842F00402828004E04A
:1043400082884FF6FB731A408280704702884FF2D2
:10435000FF731A40028002880A4302807047018876
:1043600041F480510180704721B1028842F400522B
:10437000028004E002884DF6FF731A400280704705
:1043800002460020012901D0108B00E0908A70477E
:104390000146088A7047B1F5804F04D1028842F483
:1043A0008042028004E002884BF6FF731A400280CC
:1043B00070470246002013890B400BB1012000E03A
:1043C00000207047CA4302817047F0B502460020C2
:1043D00000240023002501F00F070126BE40B4B2DF
:1043E0000B1101269E40B3B2968806EA0305168992
:1043F000264016B10DB1012000E00020F0BD10B53F
:10440000002201F00F040123A3409AB2D343038199
:1044100010BD00000030014000380040003C00406A
:1044200010B50446FE48844208D10121C014FFF7AC
:1044300027FE0021E014FFF723FEC4E0B4F1804F13
:1044400008D101210846FFF728FE00210120FFF7CF
:1044500024FEB8E0F348844208D101210220FFF78E
:104460001CFE00210220FFF718FEACE0EE4884425B
:1044700008D101210420FFF710FE00210420FFF7DE
:104480000CFEA0E0E948844208D101210820FFF792
:1044900004FE00210820FFF700FE94E0E448844277
:1044A00008D101211020FFF7F8FD00211020FFF7AF
:1044B000F4FD88E0DF48844208D101212020FFF785
:1044C000ECFD00212020FFF7E8FD7CE0DA48844283
:1044D00008D101214014FFF7D3FD00216014FFF73C
:1044E000CFFD70E0D548844209D10121C804FFF70F
:1044F000C7FD00214FF40020FFF7C2FD63E0D04864
:10450000844209D101210805FFF7BAFD00214FF4CB
:104510008010FFF7B5FD56E0CA48844209D1012159
:104520004805FFF7ADFD00214FF40010FFF7A8FD8F
:1045300049E0C548844208D101214020FFF7ADFD84
:1045400000214020FFF7A9FD3DE0C048844208D18A
:1045500001218020FFF7A1FD00218020FFF79DFDB4
:1045600031E0BB48844208D101218015FFF795FD59
:104570000021A015FFF791FD25E0B648844209D13E
:1045800001210804FFF77CFD00214FF48030FFF784
:1045900077FD18E0B048844209D101214804FFF7B3
:1045A0006FFD00214FF40030FFF76AFD0BE0AB48D0
:1045B000844208D101218804FFF762FD00214FF4F5
:1045C0008020FFF75DFD10BD00220288944B9842C9
:1045D0000ED0994B98420BD0B0F1804F08D0914B40
:1045E000984205D0904B984202D0904B984204D10B
:1045F0004FF68F731A404B881A438D4B984207D061
:104600008C4B984204D04FF6FF431A40CB881A4394
:1046100002808B8883850B880385814B98420BD061
:10462000854B984208D08B4B984205D08A4B9842D4
:1046300002D08A4B984201D10B7A038601238382F0
:10464000704770B5002400220023058C4FF6FE76DB
:1046500035400584028C8388048B4FF68F752C407F
:10466000B51E2C400D882C43751E2A400D892A4307
:104670004D882A436A4DA8420BD06F4DA84208D0FE
:10468000744DA84205D0744DA84202D0734DA84283
:1046900013D14FF6F7752A404D892A434FF6FB7523
:1046A0002A408D882A434FF6FF652B404FF6FF5571
:1046B0002B408D892B43CD892B4383800483CD8868
:1046C0008586028470BD70B5002400220023058C0D
:1046D0004FF6EF7635400584028C8388048B48F6CC
:1046E000FF752C404FF6FF452C400D884FF6FF76A6
:1046F00006EA05252C434FF6DF752A400D8906EAA8
:1047000005152A434D8806EA05152A43444DA8425B
:1047100002D0494DA8421DD14FF67F752A404D89E0
:104720004FF6FF7606EA05152A434FF6BF752A4075
:104730008D8806EA05152A434FF6FF352B404FF2C8
:10474000FF752B408D8906EA85052B43CD8906EA46
:1047500085052B4383800483CD880587028470BD43
:1047600070B5002400220023058C4FF6FF6635400B
:104770000584028C8388848B4FF68F752C404FF60E
:10478000FC752C400D882C434FF6FF552A400D89AF
:104790004FF6FF7606EA05252A434D8806EA0525E9
:1047A0002A431F4DA84202D0234DA8421DD14FF2EB
:1047B000FF752A404D894FF6FF7606EA05252A4304
:1047C0004FF6FF352A408D8806EA05252A434EF626
:1047D000FF752B404DF6FF752B408D8906EA0515B8
:1047E0002B43CD8906EA05152B4383808483CD882E
:1047F0008587028470BD70B5002200230024058CDB
:104800004EF6FF7635400584038C8488828B48F60B
:10481000FF752A404FF6FF452A400D8820E0000032
:10482000002C01400004004000080040000C004043
:10483000001000400014004000340140004C0140D2
:10484000005001400054014000180040001C00408E
:104850000020004000400140004401400048014069
:104860004FF6FF7606EA05252A434DF6FF752B40E5
:104870000D8906EA05352B434D8806EA05352B439D
:10488000FA4DA84202D0FA4DA84208D14BF6FF7566
:104890002C408D894FF6FF7606EA85152C438480DF
:1048A0008283CD88A0F84050038470BD828B4FF284
:1048B000FF331A408283828B4FF6FF7303EA012392
:1048C0001A4382837047F0B50C461546002200213A
:1048D0000026078C4EF6FF7C07EA0C070784828BC4
:1048E000018C4FF6FF7707EA043640F6FF473A405F
:1048F0004FF6FF7707EA05273A434FF6FF7707EAB7
:1049000003373A43D94FB8420ED0D94FB8420BD0F3
:10491000B0F1804F08D0D74FB84205D0D64FB8423B
:1049200002D0D64FB84206D14DF6FF77394046F453
:104930008057394305E047F6FF57394044F4805724
:10494000394382830184F0BD828B4FF6F3731A40A2
:104950008283828B0A4382837047F0B50C461546EA
:10496000002200210026078C4FF6FF6C07EA0C0797
:104970000784828B018C4FF6FF7707EA04264FF6F7
:104980000C773A404FF6FF7707EA03172F433A4375
:10499000B64FB8420ED0B64FB8420BD0B0F1804FF0
:1049A00008D0B44FB84205D0B34FB84202D0B34F8D
:1049B000B84206D14FF6FF57394046F48077394365
:1049C00005E04FF2FF57394044F480773943828342
:1049D0000184F0BD028B4FF2FF331A400283028B39
:1049E0004FF6FF7303EA01231A4302837047F0B5C1
:1049F0000C461546002200210026078C4FF6EF7C5E
:104A000007EA0C070784028B018C4FF6FF7707EA51
:104A1000041640F6FF473A404FF6FF7707EA0337A0
:104A20003A434FF6FF7707EA05273A438F4FB842DC
:104A30000ED08F4FB8420BD0B0F1804F08D08D4FC1
:104A4000B84205D08C4FB84202D08C4FB84206D144
:104A50004FF6DF77394046F01007394305E04FF64F
:104A60005F77394044F01007394302830184F0BD79
:104A7000028B4FF6F3731A400283028B0A430283C0
:104A80007047F0B50C46154600220021068C4FF603
:104A9000FE773E400684028B018C4FF60C76324046
:104AA0007E1C06EA03162E433243704EB0420ED0EF
:104AB0006F4EB0420BD0B0F1804F08D06D4EB04277
:104AC00005D06D4EB04202D06C4EB04206D14FF6CA
:104AD000FD76314044F00106314305E04FF6F576AE
:104AE000314044F00106314302830184F0BD70B5CA
:104AF00005460C465D4885420ED05D4885420BD088
:104B0000B5F1804F08D05B48854205D05A488542B0
:104B100002D05A48854200D100E000BF208850B939
:104B20002389A28861882846FFF7ABFFE1882846E1
:104B3000FFF79EFF25E0208804280AD12389A28858
:104B400061882846FFF753FFE1882846FFF742FFB8
:104B500017E0208808280AD12389A288618828467E
:104B6000FFF7FBFEE1882846FFF7EEFE09E0238908
:104B7000A28861882846FFF7A6FEE1882846FFF74D
:104B800095FE70BD2DE9F04105460C460026012733
:104B9000608808B9022600E00026A088012801D11B
:104BA000022700E001272088A0B92389A288618814
:104BB0002846FFF766FFE1882846FFF759FF23895B
:104BC0003A4631462846FFF712FFE1882846FFF7AC
:104BD00001FF13E02389A28861882846FFF707FFB9
:104BE000E1882846FFF7F6FE23893A4631462846F3
:104BF000FFF747FFE1882846FFF73AFFBDE8F0815D
:104C00000A884B881A438B881A43CB881A430B892E
:104C10001A434B891A438B891A43A0F844207047E2
:104C20004FF6FF71818000210180C18041800172B7
:104C300070470021018041808180C18001814181D4
:104C40008181C181704700210180418001218180E3
:104C50000021C18001817047002101804180818055
:104C6000C18001814181818170470000002C014099
:104C7000003401400004004000080040000C0040E7
:104C800021B1028842F00102028004E002884FF65E
:104C9000FE731A400280704731B1B0F8442042F4EC
:104CA0000042A0F8442005E0B0F84420C2F30E0210
:104CB000A0F8442070471AB183890B43838102E036
:104CC00083898B43838170478182704741EA020365
:104CD000A0F8483070471AB183890B43838102E002
:104CE00083898B438381704701894FF6F8721140A5
:104CF000018170470A46002101894FF68F731940E0
:104D000011430181704730B504460D4629462046BF
:104D1000FFF7F0FF208940F00700208130BD2DE92A
:104D2000F04104460D4616461F46602D06D13B460F
:104D3000012231462046FFF75AFE05E03B4601229C
:104D400031462046FFF79DFE29462046FFF7D2FF59
:104D5000208940F007002081BDE8F08130B50C4685
:104D600000210189C9B24FF6FF7505EA03251543F5
:104D700025432943018130BD2DE9F04105460E460A
:104D800017469846002443463A4631462846FFF7E0
:104D9000E5FF2C894FF6F870044044F007044FF605
:104DA0008F70044044F070042C81BDE8F081F0B5B0
:104DB00004460D4616461F463B46324629462046C7
:104DC000FFF7CCFF208940F480402081F0BD0185B1
:104DD000828270470A46002101884FF68F7319407E
:104DE000114301807047F0B50C4615461E46002160
:104DF000002200230189028B038C4FF6F87739409B
:104E000021434FF6FC473A4040F201173A434FF630
:104E1000DD773B404FF6FF7707EA06172F433B430A
:104E2000018102830384F0BD0A460021018B4FF605
:104E30008F7319401143018370470A460021018B8B
:104E400048F6FF7319404FF6FF7303EA0223194334
:104E5000018370470A460021818B4FF68F731940FA
:104E60001143818370470A460021818B48F6FF7306
:104E700019404FF6FF7303EA0223194381837047F9
:104E800021B1028842F08002028004E002884FF6DD
:104E90007F731A400280704721B1828842F0040279
:104EA000828004E082884FF6FB731A40828070474C
:104EB00021B1828842F00802828004E082884FF6A5
:104EC000F7731A408280704721B1828842F0010254
:104ED000828004E082884FF6FE731A408280704719
:104EE0000A460021018B4FF6F773194011430183E5
:104EF00070470A460021018B4FF2FF7319404FF6AD
:104F0000FF7303EA02231943018370470A46002115
:104F1000818B4FF6F77319401143818370470A461E
:104F20000021818B4FF2FF7319404FF6FF7303EAA4
:104F300002231943818370470A460021018B4FF6F3
:104F4000FB7319401143018370470A460021018B0E
:104F50004FF6FF3319404FF6FF7303EA022319435C
:104F6000018370470A460021818B4FF6FB7319407D
:104F70001143818370470A460021818B4FF6FF332E
:104F800019404FF6FF7303EA0223194381837047E8
:104F90000A460021018B4FF67F73194011430183AC
:104FA00070470A460021018BC1F30E014FF6FF73D3
:104FB00003EA02231943018370470A460021818BCB
:104FC0004FF67F7319401143818370470A460021D1
:104FD000818BC1F30E014FF6FF7303EA02231943DD
:104FE000818370470A460021018C4FF6FD731940FA
:104FF0001143018470470A460021018C4FF6F77374
:1050000019401143018470470A460021018C4FF674
:10501000DF7319404FF6FF7303EA0213194301844B
:1050200070470A460021018C4FF67F7319404FF6F6
:10503000FF7303EA02131943018470470A460021F3
:10504000018C4FF6FF5319404FF6FF7303EA02231A
:105050001943018470470A460021018C4FF2FF7307
:1050600019404FF6FF7303EA022319430184704786
:105070000A460021018C4DF6FF7319404FF6FF736D
:1050800003EA023319430184704730B50023012439
:105090008C40A3B2048C9C430484048C02FA01F576
:1050A000ADB22C43048430BD30B5002304248C40C1
:1050B000A3B2048C9C430484048C02FA01F5ADB2C3
:1050C0002C43048430BD70B50346002000241846EC
:1050D000183001258D40ACB21D8CA5431D8409B14B
:1050E000082909D100EB6100056825F0700505600D
:1050F0000568154305600EE00D1FC5F34E052844F5
:10510000056825F4E045056005684FF6FF7606EA78
:1051100002263543056070BD21B1028842F00202CB
:10512000028004E002884FF6FD731A400280704747
:1051300021B1028842F00402028004E002884FF6A6
:10514000FB731A400280704721B1828842F08002CE
:10515000828004E082884FF67F731A408280704715
:1051600002884FF6F7731A40028002880A430280D1
:10517000704782884FF68F731A40828082880A4374
:105180008280704702894FF6F8731A4002810289C3
:105190000A430281704702894FF67F731A400281E9
:1051A00002890A4302817047818470478185704774
:1051B000818670470187704781877047A0F840104B
:1051C000704702884FF6FF431A40028002880A4364
:1051D000028070470146888E70470146088F7047ED
:1051E0000146888F70470146B1F84000704701467C
:1051F000888C70470146088D704702460020138A4C
:105200000B400BB1012000E000207047CA4302822E
:10521000704730B50246002000230024158A05EAB5
:105220000103958905EA010413B10CB1012000E0E6
:10523000002030BDCA4302827047000010B504460A
:10524000FB48844209D101218803FEF719FF0021A0
:105250004FF48040FEF714FF32E0F648844209D153
:1052600001214804FEF719FF00214FF40030FEF73A
:1052700014FF25E0F048844209D101218804FEF79B
:105280000CFF00214FF48020FEF707FF18E0EB48E9
:10529000844209D10121C804FEF7FFFE00214FF42A
:1052A0000020FEF7FAFE0BE0E548844208D1012118
:1052B0000805FEF7F2FE00214FF48010FEF7EDFE28
:1052C00010BD2DE9F04786B005460E460024A246E3
:1052D00000BFA1460027B08900B100BF2F462C8A2D
:1052E0004CF6FF700440F08804432C82AC894EF6E3
:1052F000F3100440B088318908437189084304439E
:10530000AC81AC8A4FF6FF400440B0890443AC82C4
:1053100001A8FEF72EFEC648874202D1DDF810A094
:1053200001E0DDF80CA0A88900F4004040B10AEBD0
:10533000CA0000EB0A1031684900B0FBF1F807E041
:105340000AEBCA0000EB0A1031688900B0FBF1F8E3
:105350006420B8FBF0F004012009642101FB1089EE
:10536000A88900F4004040B1322000EBC900B0FB36
:10537000F1F000F00700044308E0322000EB0910D0
:105380006421B0FBF1F000F00F0004432C8106B063
:10539000BDE8F0874FF41651016000218180C18083
:1053A00001810C21418100218181704710B50246A5
:1053B0000020108A4FF2FF0318400B884C882343CB
:1053C0008C882343CC8823431843108210BD0021CE
:1053D000018041808180C180704721B1828942F47F
:1053E0000052828104E082894DF6FF731A40828167
:1053F0007047F0B50346002400260025002040F643
:105400006A17B94200D100BF1846C1F3421401F037
:105410001F06012707FA06F5012C01D10C3004E024
:10542000022C01D1103000E014301AB107682F436C
:10543000076002E00768AF430760F0BD1AB1838AD6
:105440000B43838202E0838A8B4383827047028A04
:105450004FF6F0731A400282028A0A4302827047B2
:1054600082894FF2FF731A40828182890A438281C6
:10547000704721B1828942F00202828104E0828970
:105480004FF6FD731A4082817047028A4FF6DF7330
:105490001A400282028A0A430282704721B1028ABC
:1054A00042F48042028204E0028A4BF6FF731A4003
:1054B00002827047C1F308028280704701468888E3
:1054C000C0F308007047818941F001018181704774
:1054D000028BD2B20283028B42EA0122028370471E
:1054E000028B02F47F420283028B0A4302837047DD
:1054F00021B1828A42F02002828204E0828A4FF641
:10550000DF731A408282704721B1828A42F0100212
:10551000828204E0828A4FF6EF731A4082827047DB
:1055200021B1828A42F00802828204E0828A4FF628
:10553000F7731A408282704721B1828942F4004297
:10554000828103E08289C2F30E028281704721B119
:10555000828A42F40062828204E0828A4FF2FF7300
:105560001A4082827047828A4FF6FB731A40828209
:10557000828A0A438282704721B1828A42F0020203
:10558000828204E0828A4FF6FD731A40828270475D
:1055900002460020B1F5007F00D100BF13880B4008
:1055A0000BB1012000E00020704701F40072B2F559
:1055B000007F00D100BFCA430280704770B5024629
:1055C000002400230025002040F66A16B14200D1D5
:1055D00000BFC1F3421501F01F03012606FA03F3D1
:1055E000012D02D19689334006E0022D02D1168AA0
:1055F000334001E0968A33400C12012606FA04F487
:105600001688344013B10CB1012000E0002070BDB9
:1056100010B50022002340F66A14A14200D100BF59
:105620000A1201249440A3B2DC43048010BD0000A0
:10563000003801400044004000480040004C004059
:10564000005000402DE9F04F4FF0000C4FF00003E8
:1056500001EB9C5EBEF90250BEF900400EF5806E73
:10566000BEF90290BEF900800EF5806EBEF90270A0
:10567000BEF900600EF5806EBEF902B0BEF900A062
:105680000EF5806ED044D944A8EB4A0AA9EB4B0B27
:105690004FEAA4044FEAA50504EBA60405EBA70511
:1056A000A4EB6606A5EB670704EBA80405EBA905C8
:1056B000A4EB6808A5EB690906EBAB06A7EBAA0704
:1056C000A6EB6B0B07EB6A0A458020F8044B47807A
:1056D00020F8046BA0F8029020F8048BA0F802A038
:1056E00020F804BB03F1010393FAA3FCB3F5807F18
:1056F000AED1A0EB82014FF0100312090FF234106B
:1057000000F1000006B403EB430C6144A2F58032C3
:1057100002EB8332B1F90250B1F90040A1EB030171
:10572000B0F902B0B0F900A000F10400A5EB040E3E
:105730000EFB0BFC0AEB4B0E05FB0ACB04FB0ECA5F
:10574000B1F90250B1F90040A1EB0301B0F90290A8
:10575000B0F9008000F10400A5EB040E0EFB09FC7B
:1057600008EB490E05FB08C904FB0EC8B1F902504D
:10577000B1F90040A1EB0301B0F90270B0F900608B
:1057800000F10400A5EB040E0EFB07FC06EB470E30
:1057900005FB06C704FB0EC6B1F90250B1F9004083
:1057A00001F10001D044D944A8EB4A0AA9EB4B0B04
:1057B0004FEAA4044FEAA50504EB264405EB274570
:1057C000A4EBE636A5EBE73704EB284405EB2945C7
:1057D000A4EBE838A5EBE93906EB2B46A7EB2A4703
:1057E000A6EBEB3B07EBEA3A4D800C8019444F8067
:1057F0000E801944A1F80290A1F800801944A1F884
:1058000002A021F804BBB2F5803283DA03EB430C2B
:105810006144A2F101025FEA024E18BFA0EB0C0046
:105820007FF476AF06BC4FEA830392087FF46AAF39
:10583000BDE8F08F00400000004000000040000084
:105840005DDD213BA3227E180000412D7EA5412D68
:105850000000412D00C000405DDD82E75DDD213BA1
:105860007EA5412D004000000040000000400000E7
:10587000AA2A94126B39460649327C0CA8118E2351
:1058800049327C0CA3227E1821F77931AA2A94127E
:10589000A8118E235DDD213BA3227E180000412D3F
:1058A00095C6B13F461A2B1E58EE3735BEB4C53EDD
:1058B000A8118E235DDD213B63A97138DF089A288A
:1058C000B7CDC53E7EA5412D0000412D00C0004052
:1058D00063A92B1E21F77931BEB4C53EBEB47C0C42
:1058E00058EE373561AC213B95C6BAF9BAE5713847
:1058F0003BA737355DDD82E75DDD213B7EA5412D90
:1059000021F766D756D53F3D3BA78E23A811C9CABC
:10591000B7CDC53E61AC7E18AA2AC1C295C6B13FBB
:10592000BEB47C0C004000000040000000400000BD
:105930001E3BB504693E9201C83C2403EB35640963
:10594000C83C24036B3946066C30060E1E3BB5047A
:10595000EB356409AA2A94126B39460649327C0C4D
:10596000AE240917AF37D607882E8D0F7E1E5D1B1C
:10597000EB356409AA2A941224188C1F1E34F10AEC
:10598000B3269015A8118E2349327C0CA3227E18D1
:10599000140B60276C30060E7E1E5D1B7104FB2A03
:1059A000882E8D0F461A2B1EC7FD5A2E9D2C1211C4
:1059B000FE15E72021F77931AA2A9412A8118E2327
:1059C00087F05334B2281314480D202602EAE53636
:1059D000B3269015DF089A289CE32B39AE240917CB
:1059E0007104FB2A5DDD213BA3227E180000412DBE
:1059F0004ED7C53C9320EF198FFB6C2F78D1153E05
:105A00007E1E5D1B21F77931E2CB0F3F641CC61C63
:105A1000B8F2683395C6B13F461A2B1E58EE37359B
:105A200097C1FB3F24188C1F02EAE536F0BCEC3F1F
:105A3000FE15E720BAE57138A6B8853FD5133D229B
:105A400082E1DB39BEB4C53EA8118E235DDD213B6A
:105A500040B1AF3D790FDA244DD9423C2EAE423CE5
:105A6000480D202656D53F3D8EAB823A140B602759
:105A700078D1153E63A97138DF089A28B7CDC53EA5
:105A8000B1A71236A906CE2915CA4F3F78A66833AA
:105A90007104FB2A95C6B13FBCA576303902212C92
:105AA00038C3EC3F7EA5412D0000412D00C00040D1
:105AB000BCA5CE29C7FD5A2EF0BCEC3F78A6202607
:105AC0008FFB6C2F09BAB13FB1A73D2257F9763051
:105AD0004DB74F3F63A92B1E21F77931BEB4C53EA8
