:020000040800F2
:10000000201F002055010008E90A000875090008B2
:10001000E50A000811020008E927000800000000B6
:100020000000000000000000000000006B2300083A
:10003000D105000800000000750B00086D010008E4
:100040006F0100086F0100086F0100086F010008D0
:100050006F0100086F0100086F0100086F010008C0
:100060006F0100086F0100086F0100086F010008B0
:100070006F0100086F0100086F0100086F010008A0
:100080006F0100086F0100086F0100086F01000890
:10009000952700086F0100086F0100086F01000834
:1000A0006F0100086F0100086F0100086F01000870
:1000B0006F0100086F0100086F0100086F01000860
:1000C0006F0100086F0100086F0100086F01000850
:1000D0006F010008052500086F0100086F01000886
:1000E0006F0100086F0100086F0100086F01000830
:1000F0006F0100086F0100086F0100086F01000820
:100100006F010008A50D00086F0100086F010008CD
:100110006F0100086F0100086F0100086F010008FF
:100120006F0100086F0100086F0100086F010008EF
:10013000DFF80CD000F05AF800480047B54000083E
:10014000201F002030BF72B6704762B6704780F340
:10015000088870470648804706480047FEE7FEE7E4
:10016000FEE7FEE7FEE7FEE7FEE7FEE7FEE7FEE767
:10017000512400083101000840EA01039B0703D025
:1001800009E008C9121F08C0042AFAD203E011F8D6
:10019000013B00F8013B521EF9D27047D2B201E098
:1001A00000F8012B491EFBD270470022F6E710B57C
:1001B00013460A4604461946FFF7F0FF204610BDD5
:1001C00030B50B46014600202022012409E021FA27
:1001D00002F59D4205D303FA02F5491B04FA02F524
:1001E0002844151EA2F10102F1DC30BD064C074D7A
:1001F00006E0E06840F0010394E8070098471034F7
:10020000AC42F6D3FFF798FFA44B0008C44B00089C
:1002100000BFFEE7002242F2107105E00948406B82
:1002200010F0800F00D003E00800A1F10101F5D12A
:1002300000BF09B90320704740F2FF50014B98639B
:100240001046F8E700800140024605E01348416B84
:1002500011F0450F00D000E0F8E700BF11F0040FE7
:1002600004D004200D4B98630320704711F0010F58
:1002700003D00120094B9863F7E7084800699042D2
:1002800001D01020F1E740F2FF50044B986318466C
:10029000406908231840C0B2E7E700000080014031
:1002A00010B50020002142F2107205E0134B596B8B
:1002B00011F0450F00D003E01300A2F10102F5D1C7
:1002C00000BF12B111F0040F07D003200B4B9B6B42
:1002D00043F00403094CA36310BD11F0010F06D0D5
:1002E0000120064B9B6B43F00103044CA36340F2D7
:1002F000FF53024CA36300BFEEE700000080014003
:1003000005E00C48416B11F0450F00D000E0F8E724
:1003100000BF11F0040F07D00648806B40F00400C6
:10032000044A90630320704740F2FF50014A9063F3
:100330000020F8E70080014070B503460C46002518
:1003400005E02148426B12F0450F00D000E0F8E7CD
:1003500000BF12F0040F07D01B48806B40F0040070
:10036000194EB063032070BD12F0010F07D016487C
:10037000806B40F00100144EB0630120F3E7124897
:100380000069984201D01020EDE740F2FF500E4E78
:10039000B0633046416911F4604F03D1080C2080EE
:1003A0002846E0E711F4005F01D01320DBE711F4E9
:1003B000804F01D01020D6E711F4004F01D00F205C
:1003C000D1E72846CFE700000080014010B50020AB
:1003D000002142F2107205E0114B596B11F0450FEC
:1003E00000D003E01300A2F10102F5D100BF12B169
:1003F00011F0040F07D00320094B9B6B43F004035B
:10040000074CA36310BD11F0400F06D00020044B31
:100410009B6B43F04003024CA36300BFF2E7000074
:100420000080014008B525208DF8000001208DF8DE
:10043000010000208DF8020001208DF803006846BD
:1004400000F054FB08BD000001684FF6FE72114039
:1004500001600021016041608160C1604B498842B8
:1004600008D14A490839496841F00F01474A083A1A
:1004700051608AE045491431884208D1434908391E
:10048000496841F0F001414A083A51607DE03F4936
:100490002831884208D13D490839496841F47061E2
:1004A0003A4A083A516070E038493C31884208D1F4
:1004B00036490839496841F47041344A083A516074
:1004C00063E032495031884208D1304908394968DF
:1004D00041F470212D4A083A516056E02B496431AD
:1004E000884208D129490839496841F47001274AEE
:1004F000083A516049E025497831884208D12349BA
:100500000839496841F07061204A083A51603CE07E
:100510001F49884206D1011F096841F00F01021FDF
:10052000116032E01A491431884208D11849091F74
:10053000096841F0F001164A121F116025E01449C4
:100540002831884208D11249091F096841F47061B5
:100550000F4A121F116018E00D493C31884208D142
:100560000B49091F096841F47041094A121F1160C3
:100570000BE007495031884207D10549091F096836
:1005800041F47021024A121F1160704708000240B6
:100590000804024010B50022026847F6F0739A433F
:1005A0000C6A8B6823430C6923434C6923438C6991
:1005B0002343CC6923434C6A23438C6A23431A4365
:1005C0000260CB6843600B6883604B68C36010BDFA
:1005D0007047000030B5044604254FF4302000F089
:1005E0006FF80546042D17D10C48006940F0020051
:1005F0000A49086108464461006940F0400008610A
:100600004FF4302000F05CF805460448006941F6DC
:10061000FD71084001490861284630BD00200240B4
:1006200004200B49C96811F0010F01D001200EE030
:100630000749C96811F0040F01D0022007E00449FE
:10064000C96811F0100F01D0032000E004207047AA
:10065000002002400348006940F080000149086121
:10066000704700000020024070B504460D46042685
:10067000F00200F025F80646042E11D10948006961
:1006800040F00100074908612580F00200F018F8E9
:1006900006460448006941F6FE71084001490861B8
:1006A000304670BD002002400248034948600348BC
:1006B000486070472301674500200240AB89EFCDB9
:1006C00000B502460423FFF7ABFF034603E0FFF744
:1006D000A7FF0346521E012B01D1002AF7D102B910
:1006E0000523184600BD0000FCB507460D46002650
:1006F000002400200090019008220121102000F029
:1007000055FB1020FFF7A0FD04460CB12046FCBDB0
:100710003A040121372000F049FB3720FFF794FD10
:1007200004460CB12046F2E70123032208213F488A
:1007300000F05CFB00220121332000F037FB332066
:10074000FFF782FD04460CB12046E0E70DE0384893
:10075000406B10F4001F08D0364800684DF82600A2
:1007600006F10106022E00D305E03148406B40F24D
:100770002A610842EBD000BF2D48406B10F0080FF3
:1007800007D02B48806B40F008002949886304207B
:10079000BDE72748406B10F0020F07D02448806B5C
:1007A00040F00200224988630220B0E72048406BF5
:1007B00010F0200F07D01E48806B40F020001C492D
:1007C00088630620A3E71A48406B10F4007F07D027
:1007D0001748806B40F4007015498863072096E73E
:1007E00040F2FF501249886300980006009901F416
:1007F0007F4140EA0120009901F47F0140EA112085
:10080000009940EA1160686001980006019901F4BE
:100810007F4140EA0120019901F47F0140EA112063
:10082000019940EA11602860204670E7FFFF0F0041
:10083000008001408080014070B504460D46164698
:1008400032462946204601F045FD70BD70B504468C
:100850000D46164632462946204601F04FFD70BD32
:100860002DE9F04102460025002600200023002447
:10087000002791F803C00CF00F0591F803C01CF09D
:10088000100F03D091F802C04CEA050591F800C0A2
:10089000BCF1000F31D0146800202BE04FF0010CA8
:1008A0000CFA00F3B1F800C00CEA03069E4220D116
:1008B00083004FF00F0C0CFA03F7BC4305FA03FC5E
:1008C0004CEA040491F803C0BCF1280F06D14FF0A4
:1008D000010C0CFA00FCC2F814C00AE091F803C045
:1008E000BCF1480F05D14FF0010C0CFA00FCC2F826
:1008F00010C0401C0828D1D31460B1F800C0BCF16E
:10090000FF0F34DD546800202EE000F1080C4FF09A
:10091000010808FA0CF3B1F800C00CEA03069E4285
:1009200021D183004FF00F0C0CFA03F7BC4305FAFA
:1009300003FC4CEA040491F803C0BCF1280F05D174
:1009400000F1080C08FA0CF8C2F8148091F803C002
:10095000BCF1480F07D100F1080C4FF0010808FA6C
:100960000CF8C2F81080401C0828CED35460BDE8B3
:10097000F08100000EE00849096881F48071064AA0
:100980001160002001E0411C88B242F210718842DF
:10099000F9DB00BFEFE700000C08014000B585B0AF
:1009A0000121052000F008F90121880300F004F975
:1009B000254801F0CFFD4FF40070ADF8100018206D
:1009C0008DF8130003208DF8120004A91F48FFF7CB
:1009D00047FF4FF48060ADF8100004208DF813003D
:1009E00004A91A48FFF73CFF4FF4E13000904FF4A0
:1009F0008050ADF804000020ADF80600ADF8080006
:100A0000ADF80C000C20ADF80A0069460E4801F064
:100A10004BFE012240F225510B4801F020FE01213E
:100A2000094801F082FD4021074801F0E1FD084A34
:100A30000549091D074801F03BFD012280210248BC
:100A400001F07FFD05B000BD003801400008014005
:100A500064000020440002401CB5044600200190C0
:100A600000901E480088020401210D2000F09EF92C
:100A70001B48406B009002E01948406B00900098C2
:100A800010F0450FF8D0009810F0010F07D014486F
:100A9000806B40F001001249886301201CBD009862
:100AA00010F0040F07D00E48806B40F004000C4992
:100AB00088630320F2E70A4800690D2801D010205E
:100AC000ECE740F2FF500649886308464069019010
:100AD0000198C0F3432020700020DFE72C000020A5
:100AE0000080014000BFFEE77047000070B50021A4
:100AF00000230F22C4780CB3164C246804F4E0647D
:100B0000C4F5E064210AC1F10403CA40447804FA40
:100B100003F184781440214309010F4C0678A15554
:100B2000047804F01F050124AC4005786D114FF0E6
:100B3000E02606EB8505C5F8004109E0047804F0DD
:100B40001F050124AC40054D0678761145F8264076
:100B500070BD00000CED00E000E400E080E100E08A
:100B600002490143024A1160704700000000FA0583
:100B70000CED00E07047000029B1064A52690243BB
:100B8000044B5A6104E0034A52698243014B5A61A3
:100B9000704700000010024029B1064A1269024362
:100BA000044B1A6104E0034A12698243014B1A6143
:100BB000704700000010024029B1064A92690243C2
:100BC000044B9A6104E0034A92698243014B9A61A3
:100BD000704700000010024029B1064AD268024363
:100BE000044BDA6004E0034AD2688243014BDA60C6
:100BF000704700000010024030B5002100220024A0
:100C000000232D4D6D6805F00C0121B1042905D09C
:100C1000082923D105E0294D056022E0274D056014
:100C20001FE0254D6D6805F47012234D6D6805F4C5
:100C30008034022505EB92421CB9214D55430560D5
:100C40000BE01D4D6D6815F4003F03D01C4D55435E
:100C5000056002E0194D5543056002E0174D05603F
:100C600000BF00BF144D6D6805F0F0010909154D76
:100C70006B5C0568DD4045600F4D6D6805F4E06113
:100C8000090A104D6B5C4568DD4085600A4D6D6852
:100C900005F46051C90A0B4D6B5C4568DD40C560C9
:100CA000054D6D6805F44041890B074D6B5CC568C7
:100CB000B5FBF3F5056130BD0010024000127A006B
:100CC00000093D00140000202400002008B5012187
:100CD0000420FFF771FF03208DF8020010208DF82B
:100CE0000300C001ADF8000069460248FFF7B8FDF7
:100CF00008BD0000000801404FF400600149086091
:100D000070470000100801407CB505460024002013
:100D10000090019000260DB1022600E00026184840
:100D2000406910F0007F01D00E207CBD1549098874
:100D300088B26946FFF7D8FC04460CB12046F4E7B8
:100D4000019810F4802F18D00E4800880204012169
:100D5000372000F02BF83720FFF776FA04460CB165
:100D60002046E2E732460121062000F01FF8062067
:100D7000FFF76AFA04462046D7E72520D5E70000AA
:100D8000008001402C0000200549496821F0FF0146
:100D9000034A5160114649680143516070470000A1
:100DA0000080014000B500F01DFC00BD10B50E4BE9
:100DB0009A60DB686FF30A030B4CE3602346DB6841
:100DC00000F03F042343084CE3602346DB6843EA1A
:100DD0008113E3602346DB68E3602346DB6843F46A
:100DE0008063E36010BD00000080014030B5104C0E
:100DF000606221F07E440E4DAC622C46E46A24F021
:100E0000F704EC622C46E46A44EA0214EC622C46D5
:100E1000E46AEC622C46E46A03F0010544EA450406
:100E2000034DEC622C46E46A44F00104EC6230BDF0
:100E30000080014010B5234B1B6843F47043214CE4
:100E40002360204B40331B6823F001031D4C4034CA
:100E5000236023461B6847F6F074A343194C4034C3
:100E6000236023461B6843EA0213236023461B6862
:100E7000236023461B68236023461B6843F08003DE
:100E8000236023461B6843F40073236023461B68DA
:100E900043F40063236023461B6843F4005323603C
:100EA0008B08241D2360084B241D2360231D18601C
:100EB000044B40331B6843F00103024C4034236071
:100EC00010BD0000040402408080014030B504469B
:100ED000002516480078032801D1272030BD13488B
:100EE000007838B111480078012803D00F48007805
:100EF000022818D1022C01D32720EFE7E0B2FFF738
:100F000003FF05467DB90A48406820F4C0500849EF
:100F1000486008464068A1B240EAC12004494860E0
:100F20000846406848602846D8E7000028000020AE
:100F300000800140F0B5014600200022C94B1B781B
:100F400081F85630C84B1B88A1F85430C74B1B683A
:100F50001A0E93090B70C2F383034B7002F0030364
:100F60008B70C24B1B68C3F30742CA70BF4B1B8810
:100F7000C3F307220A71BD4B1A784A715B681A0ED7
:100F80001301CB80B94B5B68C3F30742CB8843EABC
:100F90001213CB8002F00F030B72B44B9B88C3F388
:100FA0000722D3094B72C2F380138B72C2F3401332
:100FB000CB72C2F300130B7300234B73A94B1B7846
:100FC0003BB1A84B1B78012B03D0A64B1B78032BFE
:100FD0004FD193071B0D0B61A44B1A790B6943EAA0
:100FE00082030B61A14B9B681A0E0B6943EA9213B3
:100FF0000B61C2F3C2030B7502F007034B759B4BE9
:101000009B68C3F3074253098B75C2F38203CB7508
:1010100093075B0F0B76954B1B89C3F307220B7E5F
:1010200043EAD2130B760B695B1C0024C1E912342E
:101030000B7E9B1C012404FA03F3DC17D1E9125642
:10104000A5FB037C06FB03C305FB0433C1E9127354
:101050000C7A0123A3400B650024D1E912650B6DC6
:10106000A6FB037C05FB03C306FB0433C1E9127333
:101070002EE07C4B1B78022B2AD17C4B1A799306ED
:101080009B0A0B61794B9B681A0E0B6943EA02239A
:101090000B61764B9B68C3F307420B6913430B61EB
:1010A000724B1B89C3F307220B695B1C4FF400745E
:1010B000A3FB04464FF480630025A4FB037C06FBDE
:1010C00003C304FB0533C1E912734FF400730B65CE
:1010D000C2F3801301F8193F93065B0E4B70634B0C
:1010E0001A7A4B7843EAD2134B7002F07F038B706D
:1010F0005E4BDB681A0ED309CB70C2F341130B7140
:10110000C2F382034B7193071B0F8B71574BDB6844
:10111000C3F307428B7943EA92138B71C2F34013F6
:10112000CB7100230B7202F001034B724F4B9B8972
:10113000C3F30722D3098B72C2F38013CB72C2F3BD
:1011400040130B73C2F300134B73C2F381038B7311
:1011500002F00303CB73454B1A7B53080B74012336
:101160004B74434B1B681A0ECA74A1F11901404B12
:101170001B68C3F307424FEA0224CC853C4B1B8813
:10118000C3F30722CB8D43EA0203CB85384B1A7891
:101190004FEA02640C635B684FEA13620B6B43EA2D
:1011A00002440C63324B5B68C3F307420B6B43EAA8
:1011B00002240C632E4B9B88C3F307220B6B43EA7C
:1011C00002030B632A4B1A794FF034035A54284B0D
:1011D0009B684FEA13624FF035035A54244B9B68C7
:1011E000C3F307424FEA02648C63214B1B89C3F3AC
:1011F00007228B6B43EA02448C631D4B1A7A8B6B7C
:1012000043EA02248C631A4BDB684FEA13628B6B50
:1012100043EA02038B63164BDB68C3F307424FF0CC
:101220003C035B5C43EA12144FF03C035C544FEA0E
:1012300002734FEA1354CC870D4B9B89C3F30722EB
:10124000CB8F43EA0203CB87094B1A7B4FEA520448
:101250004FF040035C544FF001044FF041035C54E5
:10126000F0BD0000280000202C000020A802002073
:10127000B80200201CB500240121B020FFF79CFC1F
:10128000012140F20240FFF777FC4FF4F850ADF82F
:10129000040003208DF8060018208DF8070001A92E
:1012A0002A48FFF7DDFA0420ADF8040001A9284818
:1012B000FFF7D6FA0420ADF804008DF8070001A965
:1012C0002448FFF7CDFA31208DF8000000208DF87A
:1012D00001008DF8020001208DF803006846FFF739
:1012E00005FC00201C49086048608860C8604862AE
:1012F0008862C862194888630020C86300F0B6F8A5
:10130000044614B900F030F804461CB91448FFF73D
:1013100011FE044634B91249B1F85410080400F023
:1013200075FC04461CB90120FFF7D0FD04461CB132
:101330000C480078032806D10220FFF725FD012084
:1013400000F070FC044620461CBD00000010014067
:1013500000140140001C014000800140FF07C00054
:10136000C80200202800002018B5002401200090A9
:101370003948006810F0030F01D1252018BD374807
:101380000078042817D0002203210220FFF70EFD69
:10139000FEF786FF04460CB12046EFE72E48406971
:1013A0002F4908602C48806948602B48C0698860D4
:1013B0002948006AC8602948007858B12748007851
:1013C000012807D025480078062803D02348007854
:1013D00002280CD1002201210320FFF7E7FC694617
:1013E0000320FEF7A9FF04460CB12046C6E71B48C0
:1013F000007803280CD1BDF800000204012103206D
:10140000FFF7D4FCFEF74CFF04460CB12046B5E7CD
:101410001248007804281DD0BDF80000114908606A
:10142000BDF80000020403210920FFF7BFFCFEF70E
:1014300037FF04460CB12046A0E7074840690A4937
:1014400008600548806948600348C06988600248B0
:10145000006AC860002091E7008001402800002059
:10146000B80200202C000020A80200202DE9F04343
:101470000027002400260025A046A146002055494B
:10148000486008464068486008464068486008462A
:1014900040684860084640684860084640684860C0
:1014A000B220FFF771FC03204A49086008464068F3
:1014B00040F48070486000BF0BE0002211461046E7
:1014C000FFF774FCFEF7A6FE044604B903E0781C9F
:1014D000C7B24A2FF1DB00BF14B12046BDE8F0834C
:1014E0004FF4D57201210820FFF760FCFEF76EFF74
:1014F000044624B90120384908704FF08049002281
:1015000001213720FFF752FC3720FEF79DFE0446ED
:101510007CBB20E0002201213720FFF747FC372069
:10152000FEF792FE04460CB12046D7E72B4849EA65
:10153000000201212920FFF739FCFEF7E1FE0446F5
:101540000CB12046CAE723484669012080EAD670DC
:1015500080F001086D1CB8F1000F03D14FF6FF7049
:101560008542D7D34FF6FF70854203D31B24204614
:10157000B4E707E006F08040060028D002201649B4
:10158000087024E012E0164A01210846FFF70EFC1D
:10159000FEF7B6FE04460CB120469FE70D484669AB
:1015A000012080EAD67080F001086D1CB8F1000FB0
:1015B00003D14FF6FF708542E5D34FF6FF708542A9
:1015C00002D31B24204689E70320034908702046E4
:1015D00084E7000000800140280000200000108007
:1015E0000080FF8000B54D48406B10F4807F24D010
:1015F0004B48007801280AD1002201210C20FFF776
:10160000D5FB0C20FEF720FE4649087002E00020C2
:10161000444908704148806B40F480703F498863BA
:101620000846C06B4CF23A3188433C49C8630120FC
:101630003D4908703B48007800BD3848406B10F0C9
:10164000020F10D03548806B40F0020033498863A8
:101650000846C06B4CF23A3188433049C8630220D7
:1016600030490870E8E72D48406B10F0080F10D0A3
:101670002A48806B40F00800284988630846C06B00
:101680004CF23A3188432549C86304202549087043
:10169000D2E72248406B10F0200F10D01F48806B1B
:1016A00040F020001D4988630846C06B4CF23A3177
:1016B00088431A49C86306201A490870BCE71748CE
:1016C000406B10F0100F10D01448806B40F01000E9
:1016D000124988630846C06B4CF23A3188430F497F
:1016E000C86305200F490870A6E70C48406B10F44A
:1016F000007F10D00948806B40F400700749886370
:101700000846C06B4CF23A3188430449C86307204D
:101710000449087090E700208EE700000080014037
:101720003100002032000020330000202DE9F04F6E
:1017300006460F4614464FF00008C1463546C246DD
:1017400016B92620BDE8F08F00207149C8627148A3
:101750000078022801D104027F0A00231A461946A4
:101760006D48FFF743FB6A48406910F0007F01D0E5
:101770000E20E7E7002C17DDB4F5006F14DC601EC7
:10178000204211D1204601F06FFA83462246012102
:101790001020FFF70BFB1020FEF756FD8046B8F136
:1017A000000F03D04046CDE72620CBE701235A4661
:1017B00021465948FFF71AFB3A4601211120FFF74D
:1017C000F5FA1120FEF740FD8046B8F1000F01D078
:1017D0004046B7E75148007800285CD111E04C48FA
:1017E000406B10F4004F0CD04FF0000905E04C485E
:1017F000006845F8290009F10109B9F1080FF6D38D
:1018000020354348406B40F22A610842E7D0404807
:10181000406B10F0080F07D03D48806B40F0080087
:101820003B49886304208DE73948406B10F0020F74
:1018300007D03748806B40F00200354988630220AA
:1018400080E73348406B10F0200F07D03048806BA2
:1018500040F020002E498863062073E72C48406B37
:1018600010F4007F07D02A48806B40F400702849AC
:101870008863072066E704E02548D0F880002860E8
:101880002D1D2348406B10F4001FF5D140F2FF508E
:101890001F49886339E021480078012835D10020AC
:1018A0002049087020490870204908701848C06B0A
:1018B00040F22A3108431649C8630846C06A40F01E
:1018C0000800C862002221463046FFF7B3FADFF86D
:1018D00060A001E0AAF1010A1648006810F4005F58
:1018E00008D11248007828B90E48007810B9BAF12A
:1018F000000FEFD1BAF1000F01D1042022E709480F
:10190000007810B1074890F8008040461AE70000C0
:101910000080014028000020FFFF0F003000002061
:101920008080014032000020310000203300002080
:10193000FFFF0200000402402DE9F04106460F4679
:1019400014464FF000081948007800B17F0216F0E5
:10195000030F17D0002512E04FF4007000FB057153
:1019600002461348FFF7E2FE80464FF4007210492A
:101970003046FEF701FC06F50076681CC5B2A542AC
:10198000EADB10E0012C06D1620239463046FFF74F
:10199000CDFE804607E023464FF4007239463046BC
:1019A00000F008F880464046BDE8F081280000209D
:1019B000200300202DE9F84F8346884614461D4633
:1019C0000026B1465F46B24600208649C862864876
:1019D0000078022802D104024FEA582800231A4650
:1019E00019468248FFF702FA7E48406910F0007FEE
:1019F00002D00E20BDE8F88F002C15DDB4F5006F85
:101A000012DC601E20420FD1204601F02DF900901B
:101A1000224601211020FFF7C9F91020FEF714FC1F
:101A200006461EB13046E5E72620E3E7012D7DD9C5
:101A300005FB04F0B0F1007F01D32620DAE705FBB7
:101A400004F101236948009AFFF7D0F942460121C9
:101A50001220FFF7ABF91220FEF7F6FB06460EB197
:101A60003046C7E76248007800287BD111E05D4826
:101A7000406B10F4004F0CD04FF0000905E05D48BA
:101A8000006847F8290009F10109B9F1080FF6D3F8
:101A900020375448406B40F22A310842E7D0514881
:101AA000406B10F0080F07D04E48806B40F00800E4
:101AB0004C49886304209DE74A48406B10F0020FB0
:101AC00007D04848806B40F00200464988630220F6
:101AD00090E74448406B10F0200F07D04148806BDE
:101AE00040F020003F498863062083E73D48406B73
:101AF00010F4007F07D03B48806B40F400703949F8
:101B00008863072076E704E03648D0F88000386024
:101B10003F1D3448406B10F4001FF5D13148406B35
:101B200010F4807F19D03048007800E058E038B1D8
:101B30002D480078012803D02B48007802280CD1CA
:101B4000002201210C20FFF731F90C20FEF77CFB6D
:101B5000064616B130464DE704E040F2FF502149F9
:101B600088633DE022480078012839D100202249CD
:101B70000870012021490870002021490870194887
:101B8000C06B40F22A3108431649C8630846C06A50
:101B900040F00800C86205FB04F100225846FFF738
:101BA00049F9DFF860A001E0AAF1010A16480068CF
:101BB00010F4005F02D1BAF1000FF5D1BAF1000FB5
:101BC00001D1042016E700BF0D48007818B90A4873
:101BD00000780028F8D00848007808B10648067850
:101BE000304607E70080014028000020FFFF0F007B
:101BF00030000020808001403200002031000020B1
:101C000033000020FFFF02000004024010B504462C
:101C1000224601210720FFF7C9F80720FEF714FB31
:101C200010BD000001460020012900D011B9024B6F
:101C3000197000E026207047300000202DE9F74F92
:101C400084B08346154600260020039002900024AD
:101C50000027019080460090AA46D946BBF1000FAC
:101C600003D1262007B0BDE8F08F0020A349C86249
:101C700000231A461946A248FFF7B8F89F48406962
:101C800010F0007F01D00E20ECE79E48007802287B
:101C900003D105020598400A0590002D15DDB5F524
:101CA000006F12DC681E28420FD1284600F0DCFFCE
:101CB00003902A4601211020FFF778F81020FEF744
:101CC000C3FA06461EB13046CCE72620CAE78E4846
:101CD0000088020401210D20FFF768F80D20FEF7AF
:101CE000B3FA06460EB13046BCE78448406901901D
:101CF000834C11E0641E84480088020401210D20F9
:101D0000FFF754F80D20FEF79FFA06460EB1304655
:101D1000A8E77A4840690190019810F4807F01D1CA
:101D2000002CE7D10CB929209CE701211820059A45
:101D3000FFF73CF81820FEF787FA06460EB130464A
:101D400090E7002071490870002329466C48039AE7
:101D5000FFF74CF86E480078002877D136E06748E6
:101D6000406B10F4804F31D0AAEB070020281ED220
:101D7000AAEB070010F0030F03D1AAEB07008008BD
:101D800003E0AAEB07008008401C00904FF0000819
:101D900009E06049D9F80000086008F1010809F17C
:101DA000040907F10407009880450FD2F1E74FF0CE
:101DB000000805E059F828005649086008F10108B4
:101DC000B8F1080FF6D309F1200920374B48406BD2
:101DD00040F21A610842C2D04848406B10F0080F28
:101DE00007D04648806B40F00800444988630420CF
:101DF00038E74248406B10F0020F07D03F48806B35
:101E000040F002003D49886302202BE73B48406BCD
:101E100010F0100F07D03948806B40F010003749A0
:101E2000886305201EE73548406B10F4007F08D01A
:101E30003248806B40F4007030498863072011E716
:101E400004E040F2FF502D4988633FE030480078BD
:101E500001283BD10020304908702C4908702F49D7
:101E600008702648C06B40F21A3108432349C86302
:101E7000012229465846FEF7DDFF2048C06A40F09F
:101E800008001E49C862264C00E0641E2548006810
:101E900010F4005F01D1002CF7D11CB9FFF7EAF96B
:101EA0000420DFE61E4C00E0641E1C48007820B9C8
:101EB0001948007808B9002CF6D10CB90420D1E6F5
:101EC0001548007810B114480078CBE640F2FF5076
:101ED0000A49886302A8FEF7BFFD064603E002A890
:101EE000FEF7BAFD06463EB99DF808000728F6D071
:101EF0009DF808000628F2D03046B3E60080014085
:101F0000FFFF0F00280000202C00002031000020DF
:101F1000300000208080014032000020330000208B
:101F2000FFFF0200000402402DE9F04104460F4685
:101F300015464FF000081948007800B17F0214F0F0
:101F4000030F17D0002612E04FF400722146144808
:101F5000FEF712F94FF4007000FB067102461048BC
:101F6000FFF76CFE804604F50074701CC6B2AE42EA
:101F7000EADB10E0012D06D16A0239462046FFF760
:101F80005DFE804607E02B464FF40072394620463E
:101F900000F008F880464046BDE8F08128000020A7
:101FA000200300202DE9FF4F83B014461D46002674
:101FB000002002900190002780468146009005FB9A
:101FC00004FBDDF80CA0DDF80CA0BAF1000F03D182
:101FD000262007B0BDE8F08F0020B349C862002377
:101FE0001A461946B148FEF701FFAF48406910F0A4
:101FF000007F01D00E20ECE7AD480078022803D125
:1020000004020498400A0490002C15DDB4F5006F1A
:1020100012DC601E20420FD1204600F025FE029007
:10202000224601211020FEF7C1FE1020FEF70CF918
:1020300006461EB13046CCE72620CAE7012D6ED9F0
:1020400005FB04F0B0F1007F01D32620C1E79848DA
:10205000007838B196480078012803D09448007879
:10206000022819D193480088020401213720FEF785
:102070009DFE3720FEF7E8F806460EB13046A8E789
:102080002A4601211720FEF791FE1720FEF7DCF803
:1020900006460EB130469CE701211920049AFEF74E
:1020A00085FE1920FEF7D0F806460EB1304690E7BF
:1020B00005FB04F100237D48029AFEF797FE7E4857
:1020C0000078002873D138E07748406B10F4804FD7
:1020D00033D0ABEB080020281ED2ABEB080010F089
:1020E000030F03D1ABEB0800800803E0ABEB080063
:1020F0008008401C00904FF0000909E06F49DAF8B1
:102100000000086009F101090AF1040A08F1040855
:102110000098814511D2F1E74FF0000906E0ABE0ED
:102120005AF829006549086009F10109B9F1080F59
:10213000F6D30AF1200A08F120085B48406B40F210
:102140001A310842C0D05848406B10F0080F07D031
:102150005548806B40F0080053498863042038E7F5
:102160005148406B10F0020F07D04F48806B40F091
:1021700002004D49886302202BE74B48406B10F06A
:10218000100F07D04848806B40F010004649886324
:1021900005201EE74448406B10F4007F08D04248F9
:1021A000806B40F4007040498863072011E720E00D
:1021B0003D48406B10F4807F16D03D48007838B120
:1021C0003B480078012803D03948007802280BD119
:1021D000002201210C20FEF7E9FD0C20FEF734F867
:1021E00006460EB13046F4E640F2FF502E498863B1
:1021F00042E03148007801283ED100203049087083
:1022000001203049087000202F4908702648C06B13
:1022100040F21A3108432449C86305FB04F1012246
:102220000398FEF707FE2048C06A40F008001E49E8
:10223000C862264F00E07F1E2548006810F4005F4A
:1022400001D1002FF7D11FB9FFF714F80420C0E621
:102250001E4F00E07F1E1C48007820B91848007807
:1022600008B9002FF6D10FB90420B2E6144800785F
:1022700010B113480078ACE640F2FF500A49886379
:1022800001A8FEF7E9FB064603E001A8FEF7E4FB20
:1022900006463EB99DF804000728F6D09DF80400D4
:1022A0000628F2D0304694E600800140FFFF0F0080
:1022B000280000202C0000203000002080800140F9
:1022C000320000203100002033000020FFFF020018
:1022D0000004024030B503460C461546002207E0D4
:1022E000184600F008F824F812009B1C501C82B21B
:1022F000AA42F5DB30BD0146088870472DE9F04160
:1023000004460F469046B4F1006F02D30C48844255
:1023100001D3BDE8F081FEF7C7F9A4F10066F50A24
:102320004FF0006101EBC520FEF754F942463946F3
:10233000204600F007F8FEF78DF900BFE9E700003E
:10234000000004082DE9F04105460E46174600241A
:1023500007E036F814102846FEF786F9AD1C601C1D
:1023600084B2BC42F5DBBDE8F081704710B500F0E7
:1023700001F810BD0CB500200190009032480068B3
:1023800040F480303049086000BF2F48006800F4F6
:10239000003000900198401C0190009818B90198F5
:1023A000B0F5A06FF1D12848006810F4003F02D0CA
:1023B0000120009001E0002000900098012842D107
:1023C0002248006840F01000204908600846006874
:1023D00020F0030008600846006840F00200086032
:1023E00019484068184948600846406848600846EF
:1023F000406840F4806048600846406820F47C10E3
:1024000048600846406840F4E810486008460068A4
:1024100040F08070086000BF0B48006810F0007F3B
:10242000FAD00948406820F0030007494860084690
:10243000406840F00200486000BF0348406800F078
:102440000C000828F9D10CBD001002400020024009
:1024500010B51348006840F00100114908600846B3
:102460004068104908400E494860084600680E4917
:1024700008400B4908600846006820F48020086086
:102480000846406820F4FE0048604FF41F00886052
:10249000FFF76CFF4FF000600449086010BD0000BA
:1024A000001002400000FFF8FFFFF6FE08ED00E01C
:1024B00070B58CB006460C46154601210846FEF75D
:1024C0005BFB052000F080FA3046FDF7BDFF01946C
:1024D0000295102003904020049000200590802059
:1024E00006904000079080000890002009904FF46B
:1024F00080500A9000200B9001A93046FEF74AF860
:102500000CB070BD10B500F04BF910BD10B5002235
:102510000023A1F510646A3C00D100BF0A12012417
:102520009440A3B2DC43048010BD21B1828942F4FF
:102530000052828104E082894DF6FF731A40828145
:1025400070471AB1838A0B43838202E0838A8B43EC
:102550008382704710B504462048844209D1012186
:102560008803FEF739FB00214FF48040FEF734FB6F
:1025700032E01B48844209D101214804FEF70CFBDC
:1025800000214FF40030FEF707FB25E01548844298
:1025900009D101218804FEF7FFFA00214FF48020C1
:1025A000FEF7FAFA18E01048844209D10121C80464
:1025B000FEF7F2FA00214FF40020FEF7EDFA0BE0EF
:1025C0000A48844208D101210805FEF7E5FA0021F6
:1025D0004FF48010FEF7E0FA10BD00000038014013
:1025E0000044004000480040004C004000500040C3
:1025F00002460020B1F5007F00D100BF13880B42D6
:1026000001D0012000E00020704770B50246002490
:10261000002300250020A1F510666A3E00D100BF0E
:10262000C1F3421501F01F03012606FA03F3012D41
:1026300002D19689334006E0022D02D1168A33403A
:1026400001E0968A33400C12012606FA04F416883B
:10265000344013B10CB1012000E0002070BDF0B592
:1026600003460024002600250020A1F510676A3FDC
:1026700000D100BF1846C1F3421401F01F06012724
:1026800007FA06F5012C01D10C3004E0022C01D12F
:10269000103000E014301AB107682F43076002E0E1
:1026A0000768AF430760F0BD2DE9F04786B00546E7
:1026B0000E460024A24600BFA1460027B08900B103
:1026C00000BF2F462C8A4CF6FF700440F08804436C
:1026D0002C82AC894EF6F3100440B088318908434F
:1026E000718908430443AC81AC8A4FF6FF40044033
:1026F000B0890443AC8201A8FEF77EFA1F488742E6
:1027000002D1DDF810A001E0DDF80CA0A88910F4DA
:10271000004F08D00AEBCA0000EB0A1031684900EC
:10272000B0FBF1F807E00AEBCA0000EB0A103168D1
:102730008900B0FBF1F86420B8FBF0F00401200937
:10274000642101FB1089A88910F4004F08D03220C1
:1027500000EBC900B0FBF1F000F00700044308E013
:10276000322000EB09106421B0FBF1F000F00F0003
:1027700004432C8106B0BDE8F0870000003801401A
:1027800001468888C0F308007047C1F308028280C0
:10279000704700000148C069704700000010024007
:1027A00010B540F225510E48FFF72FFFB8B10022B7
:1027B00040F225510A48FFF752FF40F225510848E0
:1027C000FFF7A4FE0648FFF7DBFFC4B2054804800C
:1027D000012240F225510248FFF741FF00BF10BD22
:1027E000003801405000002000BFFEE70FB4054B49
:1027F00010B503A9044A029800F02CF810BC5DF84B
:1028000014FB00000D3E00084C0000200FB4084BE4
:1028100010B504A902AA039800F01CF8044602A906
:10282000002000F0C1F8204610BC5DF814FB000049
:10283000A929000802E008C8121F08C1002AFAD11D
:1028400070477047002001E001C1121F002AFBD130
:10285000704700002DE9FF4F89B09B4604460025D4
:1028600097E0252833D10027641C4E49B846012241
:102870002378203B02FA03F0084202D00743641C8D
:10288000F6E720782E2819D114F8010F47F0040735
:102890002A280ED06FF02F022078A0F130010929EC
:1028A0000CD808EB880102EB410100EB0108641C25
:1028B000F2E70A98641C50F8048B0A9020780028EC
:1028C0006BD0642808D0692806D0752820D05A46D5
:1028D0000B9990476D1C5BE00A994FF00A0901C9FA
:1028E0000A91002804DAC0F100004FF02D0102E047
:1028F000390504D52B218DF82010012103E0F907BB
:1029000004D02021F7E78A4608AE0EE00021FAE75E
:102910000A994FF00A0901C90A91F7E74946FDF7FC
:102920004FFC01F1300106F8011D0028F6D1ADEB96
:10293000060000F12009780701D44FF00108C845CE
:1029400002DDA8EB090000E000208046002706E039
:1029500008A85A46C05D0B9990476D1C7F1C5745CF
:10296000F6DB04E030205A460B9990476D1CB8F115
:102970000001A8F10108F5DC05E016F8010B5A4644
:102980000B9990476D1CB9F10001A9F10109F4DC24
:10299000641C207800287FF464AF0DB02846BDE8A1
:1029A000F08F0000092801000A68531C0B601070AA
:1029B00070470000411EC8B218B94FF40051014AD7
:1029C00011607047101C014030B5084C636800214D
:1029D000074C2468074DB4FBF5F404FB00F202E059
:1029E000024C6468E11A9142FAD330BD001000E055
:1029F0000000002040420F0010B54FF44070FEF779
:102A0000AFF800F031F800F043F800F015F800F0EE
:102A100057F802A0FFF7EAFE10BD0000626F6F7466
:102A20006C6F6164657220696E697420737563638D
:102A30006573732E0D0A000008B501218020FEF792
:102A4000BBF80120FFF7B6FF03208DF8020010202D
:102A50008DF803004002ADF8000069460148FDF71B
:102A6000FFFE08BD001C01400748006840F0807070
:102A7000054908600020054948600846006840F0A4
:102A80000100086070470000FCED00E0001000E06D
:102A900008B501210420FEF78FF8012000F01AF894
:102AA00003208DF8020010208DF803000220ADF8FD
:102AB000000069460148FDF7D3FE08BD000801404B
:102AC00010B5FDF76BFFFEF701F9FDF7ABFCFEF764
:102AD00013F910BD411EC8B210B90221014A11609C
:102AE000704700001008014070B504460D460020F4
:102AF0002071401EE0622946204601F0EBFB08B140
:102B0000032070BD94F82E1294F82F0241EA0020A1
:102B1000A0F52A41553901D00220F2E794F8690066
:102B2000010694F8680041EA004194F8670041EA20
:102B3000002094F86610084320F07F400D49884239
:102B400001D10020DDE794F88500010694F88400A7
:102B500041EA004194F8830041EA002094F8821091
:102B6000084320F07F400349884201D10020C8E794
:102B70000120C6E746415400024600E0521C10788E
:102B800010B110788842F9D11078704770B50346BB
:102B90000D46586A021D680A1E68B678B0FBF6F446
:102BA00000BF02CA09B9002070BD8C4200D202E009
:102BB000641A121DF5E700BF10682044F4E70246CE
:102BC000891E5069801E884201D800207047937882
:102BD000906A01FB0300F9E72DE9F04705460C4632
:102BE000207820F04000401E00EB800101EBC00681
:102BF00000274FF0010800BF1A48C05D205C19494A
:102C0000C95D2144497840EA0129B8F1000F10D08C
:102C1000484600F093FE8046FF2E07D23146761CD0
:102C200035F8110000F08AFE404508D00020BDE8CC
:102C3000F087A9F57F40FF3801D00020F7E7781C26
:102C400007460D28D8D3207810F0400F07D0B8F1F0
:102C5000000F04D035F8160008B10020E7E7012086
:102C6000E5E70000A84600080146002002E0491000
:102C7000421CD0B20129FAD170472DE9F047044631
:102C80008946B9F1000F06D1E76817B16069B8420B
:102C900015D8012713E04946204601F023F90646DE
:102CA000022E02D20120BDE8F087701C01D130460F
:102CB000F9E76069B04201D93046F4E74F463D4636
:102CC00000BF6D1C6069A84204D80225BD4201D92D
:102CD0000020E8E72946204601F004F9064606B937
:102CE00009E0701C01D0012E01D13046DBE7BD4266
:102CF000E7D10020D7E700BF6FF070422946204699
:102D000001F001FB8046B8F1000F08D1B9F1000FC6
:102D100005D02A464946204601F0F5FA8046B8F12A
:102D2000000F0BD1E5602069401C0FD02069401EC8
:102D30002061607940F00100607107E0B8F1010F97
:102D400002D14FF0FF3000E0012005462846AAE7F7
:102D50002DE9F34F83B082460498D0F800B001E02B
:102D60000BF1010B9BF800002F28F9D09BF8000015
:102D70005C28F5D0DAF81C9000252E4600BF3046BE
:102D8000761C1BF80040202C03DB2F2C01D05C2C80
:102D900000D11CE0FF2D03D3062005B0BDE8F08F65
:102DA000E4B20121204600F0A3FD04460CB9062040
:102DB000F3E7802C06DA21466BA0FFF7DDFE08B1B1
:102DC0000620EAE728466D1C29F81040D7E700BF27
:102DD0000BEB060104980160202C01DA042000E0CE
:102DE0000020074608E0681E39F81040202C02D069
:102DF0002E2C00D002E06D1E002DF4D100BF0DB9C5
:102E00000620CAE7002029F815000B222021DAF855
:102E1000180001F055FA002600E0761C39F816007B
:102E20002028FAD039F816002E28F6D00EB147F037
:102E3000030700E06D1E25B1681E39F810002E282A
:102E4000F8D14FF00008CDF808800820019000BFAD
:102E50003046761C39F8104004B955E0202C03D0D8
:102E60002E2C04D1AE4202D047F00307F0E7DDE993
:102E70000110884201D2AE4216D101980B2802D12E
:102E800047F0030740E0AE4201D047F00307AE42EF
:102E900000D939E02E46082002900B2001904FEA1D
:102EA00088604FEA1068D3E7802C0BDB00212046B6
:102EB00000F01EFD04461CB1A4F180002D490C5CFD
:102EC00047F0020700BF24B121462BA0FFF754FEB4
:102ED00018B15F2447F003070FE0412C04DB5A2CA4
:102EE00002DC48F0020808E0612C06DB7A2C04DCE6
:102EF00048F00108A4F1200084B2DAF818300298F2
:102F0000411C02911C54A3E700BFDAF818000078B6
:102F1000E52803D10520DAF8181008700198082870
:102F200003D14FEA88604FEA106808F00C000C28C3
:102F300003D008F00300032801D147F0020717F07F
:102F4000020F0BD108F00300012801D147F0100750
:102F500008F00C00042801D147F00807DAF818003F
:102F6000C772002019E70000222A3A3C3E3F7C7FCE
:102F700000000000284600082B2C3B3D5B5D000054
:102F80002DE9F04104460E460021204600F0B1F93B
:102F90000546EDB9002700BF2169206801F09AF9C4
:102FA000054605B113E060690078E52802D0606944
:102FB000007820B9781C0746B04201D107E000270D
:102FC0000121204600F079F80546002DE4D000BF2D
:102FD000042D00D107252846BDE8F0812DE9F047F2
:102FE00004460021204600F084F9074617B1384610
:102FF000BDE8F0874FF0FF09CA4600BF216920688D
:1030000001F068F9074607B154E065692E780EB9FA
:1030100004274FE0E87A00F03F08E52E05D018F0CD
:10302000080F05D0B8F10F0F02D04FF0FF093AE0BA
:10303000B8F10F0F1CD1E069A0B316F0400F06D015
:1030400095F80DA026F04006B146E08820844E4554
:103050000AD1687B504507D12946E069FFF7BCFDDE
:1030600010B1A9F1010000E0FF2000F0FF091AE013
:10307000B9F1000F05D1284601F021FA504500D1E1
:1030800018E04FF0FF094FF6FF702084A069C07A66
:1030900010F0010F07D10B222846A16901F0F0F8CA
:1030A00000B907E0FFE70021204600F006F80746D8
:1030B000002FA3D000BF38469AE72DE9F04104461F
:1030C0008846E088461C3004000C01D0206910B905
:1030D0000420BDE8F08116F00F0F6BD12069401C71
:1030E0002061E06828B920680089B04262D80420D5
:1030F000EFE720688078401E10EA161F5AD1E16879
:10310000206800F0EFFE0546012D01D80220E0E71F
:10311000681C01D10120DCE720684069A84243D83F
:10312000B8F1000F01D10420D3E7E1682068FFF770
:10313000A4FD05460DB90720CBE7012D01D10220E2
:10314000C7E7681C01D10120C3E7206801F02BFA12
:1031500008B10120BDE7216801F130004FF4007291
:10316000002101F0ADF829462068FFF728FD21680D
:10317000C86200270EE0012021680871206801F074
:1031800012FA08B10120A4E72068C06A401C216837
:10319000C8627F1C20688078B842ECD82068C06A7A
:1031A000C01B2168C86200BFE56029462068FFF7A0
:1031B00006FD2061E6802068303006F00F0100EB4C
:1031C00041106061002084E72DE9FE4F0446D4F8E9
:1031D0001880D4F81C900C224146684601F063F830
:1031E00000BF9DF80B0010F0010F24D0002088F8DC
:1031F0000B00E06101260CE033464A466946404632
:1032000000F016FE2046FFF7E9FE054605B102E094
:10321000761C642EF0D300BF642E02D10720BDE8D7
:10322000FE8F042D01D02846F9E79DF80B0088F8A1
:103230000B00C4F81C909DF80B0010F0020F0CD08E
:10324000002600E0761C39F816000028FAD106F1B5
:1032500019000D21B0FBF1F700E0012739462046A7
:10326000FFF78EFE054645BB781E070025D0E08897
:10327000C11B204600F03DF80546F5B9A06901F0F4
:103280001EF9824600BF2169206801F023F8054637
:1032900005B111E0FAB253466169E06900F02EFD14
:1032A00001202168087100212046FFF706FF05462E
:1032B00015B9781E0700E6D100BFC5B9216920689D
:1032C00001F008F8054695B920220021606900F058
:1032D000F7FF0B22D4E9050100F0E5FFA069C07AF1
:1032E00000F0180061690873012021680871284600
:1032F00095E72DE9F04104460E46E680A568012DCC
:1033000003D020684069A84202D80220BDE8F081BD
:103310002DB920680078032801D12068456A45B995
:1033200020680089B04201D80220EFE72068476A90
:103330001EE0206880784FEA001812E029462068D5
:1033400000F0D0FD0546681C01D10120DEE7022D0A
:1033500003D320684069A84201D80220D6E7A6EB33
:1033600008064645EAD229462068FFF728FC0746AA
:10337000E5600FB90220C9E707EB1610206120684D
:10338000303006F00F0100EB411060610020BDE716
:1033900070B50446002514B1012C09D107E0FDF7F2
:1033A00069FF05460DB9002500E0012502E001E0B6
:1033B000012500BF00BF0DB1012070BD0020FCE75A
:1033C00010B503460020BBB931B101290FD0022945
:1033D00004D003290DD106E000200CE04FF4007466
:1033E0001480002007E008241480002003E000205F
:1033F00001E0042000BF02E0012B00D0012010BD3D
:103400002DE9F04105460E4617461C464FF00008D0
:1034100014B90420BDE8F08115B1012D08D106E0F2
:10342000E2B239463046FEF787FA804603E002E012
:103430004FF0010800BF00BFB8F1000F01D100201C
:10344000E8E70120E6E70146002070472DE9F04754
:1034500005460E4617461C464FF000084FF01F0960
:1034600014B90420BDE8F08715B1012D15D113E082
:103470000DE0E2B239463046FEF756FD8046B8F11F
:10348000000F00D106E0A9F1010000F0FF09B9F139
:10349000000FEED100BF03E002E04FF0010800BFD3
:1034A00000BFB8F1000F01D10020DBE70120D9E710
:1034B00070B50546284600F0C4F9044634B92846DC
:1034C00001F097F804460CB900202860204670BD32
:1034D000F7B582B016460398019001A800F078FD78
:1034E0000546002D02DA0B2005B0F0BD0E4850F85D
:1034F00025400CB100202070029810B100200299E4
:1035000008700949029841F82500029808B1012E77
:1035100001D00020E8E7002203A902A800F02AFA5F
:1035200007463846E0E700003C0000202DE9F7435D
:103530008CB0054616461DB909200FB0BDE8F083D2
:103540000020286006F01F0626F001020DA903A83E
:1035500000F010FA0746002F7ED1CDF824D04C4859
:103560000A9003A80D9900F009FC0746089C0FB9C2
:1035700004B9062716F01C0F50D04FB1042F03D109
:1035800003A8FFF721FE074646F00806089C09E05D
:10359000E07A10F0110F01D0072703E016F0040FB6
:1035A00000D00827002F38D116F0080F35D000F0D2
:1035B0000DFD804684F80E804FEA1821E1734FEA32
:1035C000184121744FEA186161740020E07220777D
:1035D00000216177A177E1772146039800F059FD3A
:1035E00081460021204600F062FF01200399087106
:1035F000B9F1000F11D00398D0F82C8049460398F8
:1036000000F01FFF074647B9A9F101000399C86000
:103610004146039800F05EFE07460EE06FB9E07A7F
:1036200010F0100F01D0042707E016F0020F04D0AD
:10363000E07A10F0010F00D0072747B916F0080F05
:1036400001D046F020060398C06AE8612C621FB9D9
:10365000AE710020E87100E018E02146039800F008
:1036600018FD2861E07F0106A07F41EA0041607FEC
:1036700041EA0020217F0843E8600020A860A8619B
:103680006862039828602868C088A880384654E794
:10369000200D00202DE9FF4F83B0044615469A46C1
:1036A000DDF810B00020CAF80000204600F0A1FFAD
:1036B0000290029818B1029807B0BDE8F08FE07947
:1036C00008B1E079F8E7A07910F0010F01D10720E7
:1036D000F2E7D4E90210401A00900098854200D920
:1036E000009DA9E02089C005C00D76D120688078B2
:1036F000401EA16800EA512000F0FF09B9F1000F57
:103700001FD1A06810B9206901900CE0606A28B14F
:103710002046A168FFF73AFA019004E06169206849
:1037200000F0E0FB01900198022802D20220E07133
:10373000C2E70198401C02D10120E071BCE701986A
:10374000606161692068FFF73AFA064616B90220FF
:10375000E071B1E74E444FEA5528B8F1000F29D087
:1037600009EB080021688978884203D920688078AD
:10377000A0EB090821684878434632465946FFF7CE
:103780003FFE10B10120E07196E7A07910F0400FE4
:103790000DD0A069801B404509D2A169891B0BEBA4
:1037A00041204FF4007204F1280100F07CFD4FEA43
:1037B000482737E0A069B04220D0A07910F0400F30
:1037C00010D021684878012304F12801A269FFF78D
:1037D0003DFE18B10120E0716EE710E0A07920F005
:1037E0004000A071216848780123324604F1280185
:1037F000FFF706FE10B10120E0715DE7A6612089A8
:10380000C0F30800C0F50077AF4200D92F462089E9
:10381000C0F3080204F1280011183A46584600F097
:1038200042FD00BFBB44A0683844A060DAF8000045
:103830003844CAF80000ED1B002D7FF453AF002080
:103840003AE72DE9F0410446204600F0D2FE074653
:10385000002F4BD1A07910F0200F47D0A07910F0A5
:10386000400F0FD021684878012304F12801A26994
:10387000FFF7ECFD10B10120BDE8F081A07920F048
:103880004000A071E169206800F024FD0746002F88
:103890002CD1256AE87A40F02000E872207B287756
:1038A000A089010A6977E068010CA977E068010E38
:1038B000E9772846216900F0FAFD00F087FB06460B
:1038C000AE75310AE975310C2976310E6976002022
:1038D000A8740021E974A07920F02000A0710120D3
:1038E00021680871206800F0FAFD07463846C3E7F2
:1038F00010B50246802A01DA10461BE051B1FF2ABA
:1039000001DD002304E0A2F180030B4C34F81330F6
:1039100018460FE0002007E0074B33F810309342C1
:1039200000D103E0431C98B28028F5DB00BF00F112
:103930008003D8B210BD0000E24600080246002114
:1039400000E0491C094830F8110020B1074830F860
:1039500011009042F5D1054830F8110018B1044823
:1039600030F8110070471046FCE70000E2470008FD
:10397000C24900082DE9F74F88B00021089801607E
:10398000099800F025FB07900798002803DA0B2020
:103990000BB0BDE8F08FD549079851F820400CB91D
:1039A0000C20F5E708980460207878B16078FFF77C
:1039B0004AFD804618F0010F08D10A9820B118F08E
:1039C000040F01D00A20E3E70020E1E70020207087
:1039D000079860706078FFF7DBFC804618F0010FF5
:1039E00001D00320D4E70A9820B118F0040F01D0C9
:1039F0000A20CDE7002739462046FFF775F805462F
:103A0000012D01D06DBB2CE0002614E004F5F77108
:103A100001EB0610017951B1C17A0A06817A42EAB6
:103A20000142417A42EA0121027A114300E0002179
:103A30004DF82610761C042EE8D3002606B1761E1B
:103A400000BF5DF8267027B139462046FFF74CF8D5
:103A500000E0022005461DB1701C06460428F0D384
:103A600000BF032D01D1012092E70DB10D208FE79A
:103A70003B20015D94F83C0041EA0020B0F5007F56
:103A800001D00D2084E74620015D94F8470041EA0B
:103A90000029B9F1000F0ED194F85700010694F8EF
:103AA000560041EA004194F8550041EA002094F89C
:103AB000541040EA0109C4F818904020005DE070FD
:103AC000E078012804D0E078022801D00D205FE7DB
:103AD000E07809FB00F93D20005DA070A07818B1E6
:103AE000A078411E084201D00D2051E74120015D20
:103AF00094F8420041EA00202081207A10F00F0F54
:103B000001D00D2044E74320015D94F8440041EAD0
:103B1000002BBBF1000F0ED194F85300010694F86E
:103B2000520041EA004194F8510041EA002094F823
:103B3000501040EA010B3E20015D94F83F0041EA3D
:103B400000200490049808B90D2021E70498484407
:103B5000218900EB111006900698834501D20D20B3
:103B600016E70698ABEB0000A178B0FBF1FABAF1CA
:103B7000000F01D10D200BE7012540F6F6708245BC
:103B800000D302254FF6F670824500D303250AF1D3
:103B900002006061E7610498384420620698384466
:103BA000A062032D16D1208908B10D20F0E694F80B
:103BB0005F00010694F85E0041EA004194F85D0060
:103BC00041EA002094F85C1008436062606980005C
:103BD000059014E0208908B90D20D9E6206A4844F0
:103BE0006062022D02D16069400007E0207D00F094
:103BF0000100616901EB410100EB51000590A169F1
:103C0000059800F2FF10B1EB502F01D20D20BFE656
:103C10004FF0FF302061E06080206071032D5AD1A9
:103C200094F8601094F8610041EA0020012852D114
:103C3000791C204600F04EFBE8BB0020607194F830
:103C40002E1294F82F0241EA0020A0F52A4155399E
:103C500041D13320005D01063220005D41EA004180
:103C60003120005D41EA002094F8301008432049DB
:103C7000884230D194F81702010694F8160241EAFE
:103C8000004194F8150241EA002094F81412084308
:103C9000184988421FD194F81B02010694F81A02B1
:103CA00041EA004194F8190241EA002094F8181200
:103CB0000843206100E00EE094F81F02010694F82A
:103CC0001E0241EA004194F81D0241EA002094F8E6
:103CD0001C120843E060257007480088401C80B231
:103CE00005490880E080002052E600003C000020EA
:103CF000525261417272416144000020F0B50446A5
:103D00001D464D730F27CF7200270F738F76BC4669
:103D100081F81BC0571E07EB870C0CEBC70600276A
:103D200038463B4600BFA0F57F47FF3F03D03746EC
:103D3000761C34F81700DFF840C01CF803C001F807
:103D40000C000712DFF830C01CF803C08C448CF85C
:103D5000017008B94FF6FF705F1C3B460D2FE2D390
:103D6000A0F57F47FF3F02D034F816700FB942F03C
:103D700040020A70F0BD0000A84600082DE9F3419A
:103D80000446019800782F2803D0019800785C2819
:103D900002D10198401C01900020A0600198007899
:103DA000202807D200212046FFF7A3FA054600206D
:103DB000606128E000BF01A92046FEF7C9FF054663
:103DC00005B11FE02046FFF709F90546A069C67A4C
:103DD0003DB1042D04D100BF16F0040F00D105251C
:103DE00010E016F0040F00D00CE06769F87A10F0CC
:103DF000100F01D1052505E03946206800F049F98A
:103E0000A060D8E700BF2846BDE8FC8170B5044635
:103E10000D46E1B20548FEF7B8FC00BF402103485B
:103E2000FEF7E6FB0028F9D0204670BD00380140BF
:103E30002DE9FC4780468A4617461D460B2251460F
:103E4000404600F030FA052D18D9284611E037F821
:103E5000021B00240BE00A4660F35F0210464FEAA3
:103E6000610110F4803F01D01D4A5040641C102CA9
:103E7000F1D33A88002AEAD1054600BF072400BFE3
:103E800005F00F0000F13009B9F1390F03DD09F138
:103E9000070000F0FF092046641E0DF800902D0970
:103EA000002DEDD17E200DF80400002600E0761CE8
:103EB000A64203D218F806002028F8D100BF082C2B
:103EC00004D22046641C1DF8001000E0202130467A
:103ED000761C08F80010082EF1D3BDE8FC8700001E
:103EE000211001002DE9F04105460C46022C02D3B9
:103EF0006869A04202D80120BDE8F0812878012835
:103F000004D002282CD003285AD13DE0274607EBE5
:103F10005707286A00EB5721284600F0DBF900B16B
:103F200050E0C7F3080105F1300010F801807F1C54
:103F3000286A00EB5721284600F0CCF900B141E097
:103F4000C7F3080105F13000405C48EA002814F08E
:103F5000010F02D04FEA1810CEE7C8F30B00CBE7F1
:103F6000286A00EB1421284600F0B4F900B129E0DA
:103F700040F2FF1000EA440105F130000E183078DD
:103F8000717840EA0120B7E7286A00EBD41128468F
:103F900000F0A0F900B115E040F2FF1000EA840142
:103FA00005F130000E18F0780006B17840EA0140C3
:103FB000717840EA01203178084320F070409BE797
:103FC000012099E700BF4FF0FF3095E700207047D0
:103FD00070B502464FF0FF301568E5B1116800E09A
:103FE000491C0D78202D02D30D783A2DF8D10D788B
:103FF0003A2D0FD1146814F8015BA5F130030A2B98
:1040000007D28C4205D1022B03D218464D1C2946FB
:10401000156070BD002000BFFBE7000010B504462E
:10402000206807490840B0F1005F08D16068054981
:1040300008602068FCF78BF802480068804710BDD4
:104040000000FE2F480000202DE9F047ADF5006D7F
:104050000746884614460025BA46464600BF0BE090
:1040600070784FEA0029307848441FFA80F9B61C6E
:104070002DF81590681C85B2B5EB540FF0D3C4F33E
:104080004F0269465046FEF739F90DF5006DBDE85F
:10409000F08710B502468C7ECB7E44EA032013786D
:1040A000032B05D10C7D4B7D44EA032340EA0340FA
:1040B00010BD0000ADF5107DFEF79EFC01223E49CB
:1040C0003E48FCF7B9FB3C4801783DA0FEF78EFB6B
:1040D0003948007800280DDD37480078FF2809DAD4
:1040E0003CA0FEF783FB344802783FA101A8FEF70D
:1040F0008DFB02E040A0FEF779FB5BE0434F00241C
:10410000012243494348FCF797FB4148017842A00C
:10411000FEF76CFB3E480078002844D0012244A101
:104120004448FFF7D5F905460020394908700122B7
:104130003848FCF78BFB012201A906A8FFF7F6F926
:10414000054629463CA0FEF751FB099E31463EA09C
:10415000FEF74CFB1CE04FF400614048FCF725F8EB
:104160003F4B4FF400623D4906A8FFF793FA05461E
:104170003B48006800B90CE055B94FF4006237497C
:104180003846FFF761FF601C84B2204800EBC4276B
:10419000E1E700BF06A8FFF78BF9002224A125481C
:1041A000FFF796F905E02FA0FEF720FB1748FFF771
:1041B00035FF00BFA2E700003400002008C003085C
:1041C000436F6E74726F5F4944203A202564200D5E
:1041D0000A000000436F6E74726F5F49442074726E
:1041E00075652E200D0A0000303A2F25642F3334D8
:1041F00035312E62696E0000436F6E74726F5F49D5
:1042000044206572726F722E200D0A0000000108B2
:104210003500002000E003085570646174655F4656
:104220006C616773203A202564200D0A00000000AD
:10423000303A000078000020665F6F70656E203AAB
:10424000202564200D0A00006170706C656E746832
:10425000203D202564200D0A0000000020050020DC
:1042600038000020BFAACABCD6B4D0D0464C4153B7
:1042700048D3C3BBA7B4FAC2EB21210D0A0000004A
:10428000F0B503461C460D46002000BF1600A2F103
:10429000010207D014F8017B15F801CBA7EB0C063F
:1042A0003000F3D0F0BD70B503460C4603E014F8BF
:1042B000015B03F8015B1500A2F10102F7D170BDAB
:1042C00030B5034601E003F8011B1400A2F101021E
:1042D000F9D130BD70B504460D46E06AA84210D051
:1042E000204600F060F908B1012070BD607801231C
:1042F0002A4604F13001FFF783F808B10120F4E702
:10430000E5620020F1E72DE9F04705460E46174625
:10431000022E02D36869B04202D84FF002088DE045
:104320002878012804D0022843D003287DD156E004
:10433000B14609EB5909286A00EB59212846FFF7D5
:10434000C9FF8046B8F1000F00D074E0C9F308013E
:1043500005F130000C1816F0010F04D0F9B22078E6
:1043600061F31F1000E03846207009F101090120B7
:104370002871286A00EB59212846FFF7ABFF8046D9
:10438000B8F1000F00D056E0C9F3080105F1300084
:104390000C1816F0010F02D0C7F3071007E02078C1
:1043A00000F0F000C7F3072101F00F01084320706F
:1043B00041E0286A00EB16212846FFF78BFF804674
:1043C000B8F1000F00D036E040F2FF1000EA4601DD
:1043D00005F130000C182770380A60702BE0286A4D
:1043E00000EBD6112846FFF775FF8046B8F1000FA5
:1043F00000D020E040F2FF1000EA860105F1300015
:104400000C18E0780006A17840EA0140617840EAA3
:1044100001202178084300F0704007432770380AD4
:104420006070380CA070380E00E001E0E07002E02F
:104430004FF0020800BF00BF012028714046BDE8D0
:10444000F0872DE9F04104460E46022E02D3606942
:10445000B04201D8022727E0002721E0314620465C
:10446000FFF740FD054605B91DE0012D01D10227EA
:1044700019E0681C01D1012715E0002231462046D1
:10448000FFF741FF074607B10DE02069401C06D049
:104490002069401C2061607940F0010060712E4667
:1044A0006069B042DAD800BF3846BDE8F081817655
:1044B0000B0AC3760A0C02750B0E4375704730B5B4
:1044C000014600200B2200BF431003EBC01411F87B
:1044D000015B6319D8B2531E1A00F5D130BD70B517
:1044E0000446204600F05FF80546002D59D120789B
:1044F00003284FD1607901284CD14202002104F1F8
:104500003000FFF7DDFE552184F82E12AA2184F831
:104510002F12522084F830005221312001556121A0
:1045200032200155412133200155722184F81412A3
:1045300084F81512412184F81612612184F81712AB
:10454000217C84F81812208A010A84F81912206943
:10455000010C84F81A122069010E84F81B12217BC9
:1045600084F81C12A089010A84F81D12E068010C6D
:1045700084F81E12E068010E84F81F12E069401CE6
:10458000E0626078012304F13001E26AFEF75EFF29
:1045900000206071607800221146FEF711FF00B123
:1045A0000125284670BD70B504462079F8B1E56A4A
:1045B000607801232A4604F13001FEF747FF08B175
:1045C000012070BD00202071206A281AA16988424C
:1045D0000DD2E67809E0A0690544607801232A46F7
:1045E00004F13001FEF732FF761E022EF3D20020D6
:1045F000E7E770B505462C464CB1206838B1206815
:10460000007820B12068C088A188884201D00920A4
:1046100070BD21684878FEF716FF10F0010F01D039
:104620000320F5E70020F3E7809A90418E418F80C8
:104630004545454949498E8F9092924F994F55551E
:1046400059999A9B9C9D9E9F41494F55A5A5A6A708
:10465000A8A9AAABAC21AEAFB0B1B2B3B4B5B6B7EE
:10466000B8B9BABBBCBDBEBFC0C1C2C3C4C5C6C752
:10467000C8C9CACBCCCDCECFD0D1D2D3D4D5D6D742
:10468000D8D9DADBDCDDDEDFE0E1E2E3E4E5E6E732
:10469000E8E9EAEBECEDEEEFF0F1F2F3F4F5F6F722
:1046A000F8F9FAFBFCFDFEFF01030507090E1012E5
:1046B0001416181C1E0000040002000180004000B7
:1046C00020001000080004000200000000800040EC
:1046D0000020001000080040002000100008000426
:1046E0000002C700FC00E900E200E400E000E50091
:1046F000E700EA00EB00E800EF00EE00EC00C40089
:10470000C500C900E600C600F400F600F200FB0098
:10471000F900FF00D600DC00A200A300A500A7203E
:104720009201E100ED00F300FA00F100D100AA00CF
:10473000BA00BF001023AC00BD00BC00A100AB005C
:10474000BB0091259225932502252425612562250C
:10475000562555256325512557255D255C255B2567
:104760001025142534252C251C2500253C255E25E7
:104770005F255A25542569256625602550256C2519
:104780006725682564256525592558255225532513
:104790006B256A2518250C25882584258C259025D0
:1047A0008025B103DF009303C003A303C303B50057
:1047B000C403A6039803A903B4031E22C603B503CA
:1047C00029226122B1006522642220232123F700DF
:1047D0004822B0001922B7001A227F20B200A0257B
:1047E000A00061006200630064006500660067006D
:1047F000680069006A006B006C006D006E006F005D
:10480000700071007200730074007500760077000C
:10481000780079007A00A100A200A300A500AC00F6
:10482000AF00E000E100E200E300E400E500E600A4
:10483000E700E800E900EA00EB00EC00ED00EE0024
:10484000EF00F000F100F200F300F400F500F600D4
:10485000F800F900FA00FB00FC00FD00FE00FF007C
:10486000010103010501070109010B010D010F0100
:10487000110113011501170119011B011D011F0170
:10488000210123012501270129012B012D012F01E0
:1048900031013301350137013A013C013E0140014C
:1048A00042014401460148014B014D014F015101B4
:1048B00053015501570159015B015D015F01610120
:1048C00063016501670169016B016D016F01710190
:1048D0007301750177017A017C017E019201B103B8
:1048E000B203B303B403B503B603B703B803B90304
:1048F000BA03BB03BC03BD03BE03BF03C003C103B4
:10490000C303C403C503C603C703C803C903CA035B
:1049100030043104320433043404350436043704DB
:10492000380439043A043B043C043D043E043F048B
:10493000400441044204430444044504460447043B
:10494000480449044A044B044C044D044E044F04EB
:104950005104520453045404550456045704580493
:1049600059045A045B045C045E045F0470217121E5
:104970007221732174217521762177217821792183
:104980007A217B217C217D217E217F2141FF42FFF5
:1049900043FF44FF45FF46FF47FF48FF49FF4AFFEB
:1049A0004BFF4CFF4DFF4EFF4FFF50FF51FF52FF9B
:1049B00053FF54FF55FF56FF57FF58FF59FF5AFF4B
:1049C000000041004200430044004500460047000B
:1049D000480049004A004B004C004D004E004F007B
:1049E000500051005200530054005500560057002B
:1049F000580059005A002100E0FFE1FFE5FFE2FF07
:104A0000E3FFC000C100C200C300C400C500C6006F
:104A1000C700C800C900CA00CB00CC00CD00CE0042
:104A2000CF00D000D100D200D300D400D500D600F2
:104A3000D800D900DA00DB00DC00DD00DE00780100
:104A4000000102010401060108010A010C010E0126
:104A5000100112011401160118011A011C011E0196
:104A6000200122012401260128012A012C012E0106
:104A7000300132013401360139013B013D013F0172
:104A800041014301450147014A014C014E015001DA
:104A900052015401560158015A015C015E01600146
:104AA00062016401660168016A016C016E017001B6
:104AB00072017401760179017B017D0191019103FD
:104AC0009203930394039503960397039803990322
:104AD0009A039B039C039D039E039F03A003A103D2
:104AE000A303A403A503A603A703A803A903AA037A
:104AF00010041104120413041404150416041704FA
:104B0000180419041A041B041C041D041E041F04A9
:104B10002004210422042304240425042604270459
:104B2000280429042A042B042C042D042E042F0409
:104B30000104020403040404050406040704080431
:104B400009040A040B040C040E040F046021612103
:104B50006221632164216521662167216821692121
:104B60006A216B216C216D216E216F2121FF22FFB3
:104B700023FF24FF25FF26FF27FF28FF29FF2AFF09
:104B80002BFF2CFF2DFF2EFF2FFF30FF31FF32FFB9
:104B900033FF34FF35FF36FF37FF38FF39FF3AFF69
:104BA00000000000C44B000800000020500000007E
:104BB00034280008144C000850000020D01E0000CB
:104BC0004428000800A24A04000000000000000081
:104BD00001020304060708090000000001020304A3
:104BE0000102030406070809020406080000000089
:104BF00000000000010000000000000000000000B4
:104C000000000000000000000000000000000000A4
:044C100000000000A0
:0400000508000131BD
:00000001FF
